:020000040808EA
:1000000000000808887F0808000005000A000501B4
:080010000402EA0300000000F5
:100018007C75080809480A4908B5884205D0094A84
:10002800824202D0121A06F0E3FD0748074A00216F
:10003800121A06F0E8FD064808BD00BF00040020BB
:100048006C7E0808F4040020F8040020FC0C002052
:10005800FC0C002070B503F055FF074B074C1E46FB
:10006800E41AA4080025A54204D056F8253098477C
:100078000135F8E770BD00BF287E08085C7E0808D7
:1000880001F066BC08B501F01DF9BDE8084003F0B1
:10009800FBBE02F0BBBB02F0C1BB0078B0FA80F037
:1000A8004009704701230370704748B1836C3BB126
:1000B800C36C2BB1006DB0FA80F040094042704724
:1000C8004FF0FF30704773B5024608460C46FFF7FD
:1000D800ECFF054650BB12F0800FCA7814BF00230E
:1000E80010239A4222D0CB708E6C01230DF10702A7
:1000F800F3216078B04784F8540010B16FF001051F
:1001080014E0E378E66C03F010029DF807307321E1
:1001180023F0100313438DF807300DF10702012374
:100128006078B04784F854000028E7D1284602B028
:1001380070BD73B50446FFF7B8FF054688B9A66CCD
:1001480001230DF10702F3216078B04784F85400C9
:1001580028B99DF8073003F01003E37001E06FF051
:100168000105284602B070BD40B103788B4208D91A
:100178000170137843F00203137002E04FF0FF3070
:100188007047002070472DE9F84306461846884610
:1001980091461D46FFF789FF0446A8B9AB783BB9DD
:1001A80029463046FFF78FFF044608B946F0800617
:1001B800AF6C4B46424631466878B847002885F808
:1001C800540018BF6FF001042046BDE8F8832DE9FC
:1001D800F04F1E468BB083468A46144600212822DB
:1001E800684606F010FD3046FFF75FFF0546A8BBDE
:1001F800631E122B30D80DF101085F46C1460AF183
:10020800FF3AA4B2CBEB07039BB29C4213D9B37855
:1002180043B931463878FFF756FF3B78054603F077
:100228007F0300E03B7808F8013C1AF8013F0137EA
:1002380008F8023BE6E78DB96300013BF46C9BB21A
:100248004A469DF800107078A047002886F85400A8
:1002580018BF6FF0010501E06FF0030528460BB0E9
:10026800BDE8F08F37B5E0238DF80630B623054694
:100278008DF80730FFF719FF0446D8B9AB786BB192
:100288002B4601220DF107010DF10600FFF79FFF34
:1002980004462B6D0A20984734B10BE02846FFF737
:1002A80048FF044630B9EBE7AB781BB92846FFF79F
:1002B80040FF0446204603B030BD30B58DB004463B
:1002C800FFF7F3FE0546002840F0D5802046FFF7EB
:1002D800C9FF0546002840F0CE802346012221466A
:1002E800D020FFF750FF0546002840F0C48023784F
:1002F800612B40F0BE800146292201A806F083FC4C
:1003080020468DF80350FFF7D0FE0546002840F040
:10031800B2802346192201A98920FFF734FF054638
:1003280038B9234610220DF11D01E120FFF72BFFFC
:1003380005469DF826209DF8253043EA0223E382EE
:100348009DF806209DF8053043EA022323839DF893
:1003580007309DF80A20A3769DF8093043EA022366
:10036800A3839DF80C209DF80B3043EA0223E38316
:100378009DF80D309DF8102084F820309DF80F303E
:1003880043EA022363849DF812209DF8113043EA62
:100398000223A3849DF814309DF8182084F8263091
:1003A8009DF8133084F827309DF8173043EA02236C
:1003B80023859DF81A209DF8193043EA02236385A6
:1003C8009DF81B309DF81F1084F82C309DF81E30C6
:1003D80003F00F0242EA011222819DF81D201B0939
:1003E80043EA021363819DF820309DF82820237387
:1003F8009DF8213063739DF82230A3739DF8233054
:10040800E3739DF8243023749DF8293063749DF8B4
:10041800273043EA022363829DF82A30237515BBEF
:10042800234601220DF103010220FFF7ACFE9DF8DF
:1004380003300546C3F3011384F8343098B92346D2
:1004480001220DF10301FFF79EFE9DF803300546DA
:1004580084F8353038B9234601220DF10301042010
:10046800FFF791FE05469DF903301B1184F83630DD
:1004780001E06FF0020528460DB030BD37B5742392
:1004880004468DF80730FFF710FEA0BB054623464B
:1004980001220DF106017420FFF775FEA0B99DF841
:1004A800063013F0030511D023F003038DF806304E
:1004B800012223460DF106010DF10700FFF787FE23
:1004C800236D0A209847E2E7002DE0D194F84430E4
:1004D8008BB19DF8062003F0030322F003021343B7
:1004E8008DF8063038B9234601220DF106010DF1C9
:1004F8000700FFF76CFE03B030BD2DE9F041002383
:1005080088B0064608460C468DF807300493ADF8C7
:1005180014300693ADF81C30FFF7C7FD002840F0F3
:100528005F81320791F8447065D5012FADF8080056
:10053800ADF80C005ED15A23B1F840508DF8083060
:10054800B1F91230B5F5C87F03F5163303F29913E4
:1005580028BF4FF4C8755D43142395FBF3F505F5E3
:1005680048130A2593FBF5F591F9112091F9043008
:1005780002F544726A4391F914505D434FF47A735B
:1005880095FBF3F31B0203EB620194F83430043358
:1005980091FBF3F294F9351083234B4303F5803331
:1005A80092FBF3F32222FA3B53436422323393FB48
:1005B800F2F38DF80C30B4F842308DF80920B3F519
:1005C8007C6F0AD23F2BC2B200F1010001D99B080F
:1005D800F8E703EB8213DBB200E0FF238DF80D3060
:1005E800002384F83C300222234603A902A8FFF71F
:1005F800EEFD00E00120002384F8443010B92046C5
:10060800FFF73CFF06F01005ADB205B304F1460252
:10061800072104F13B00FFF7A7FD30B9234601226B
:100628000DF107017520FFF7AEFD94F83B30012569
:100638009B0003F01C029DF8073023F01C031343B2
:1006480075228DF807308DF810208DF81830B30614
:1006580022D504F14602082104F13D00FFF784FD8C
:1006680030B9234601220DF107017020FFF78BFDF9
:100678009DF80730702123F0080294F83D3003F00C
:100688000803134308AA2A4401358DF8073002F8F5
:10069800101C02F8083CEDB2B10733D004F1460251
:1006A800052104F13900FFF75FFD30B92346012227
:1006B8000DF107017420FFF766FDF20709D59DF8D3
:1006C800073094F8392003F01F0343EA42138DF8EA
:1006D8000730B3070BD594F83A309B0003F01C029F
:1006E8009DF8073023F01C0313438DF8073008AB3F
:1006F8002B44742203F8102C9DF80720013503F8C9
:10070800082CEDB2710722D504F14602052104F147
:100718003800FFF729FD30B9234601220DF1070102
:100728007220FFF730FD9DF80730722123F0070291
:1007380094F8383003F00703134308AA2A44013514
:100748008DF8073002F8101C02F8083CEDB216F0DC
:10075800C00F3CD004F146084246012104F13E0096
:10076800FFF702FD68B942460A2104F13C00FFF791
:10077800FBFC30B9234601220DF107017120FFF778
:1007880002FD72060BD594F83E301B0103F01002EF
:100798009DF8073023F0100313438DF80730330614
:1007A8000AD59DF8073023F00F0294F83C3003F087
:1007B8000F0313438DF8073008AB2B44712203F85D
:1007C800102C9DF80720013503F8082CEDB228B944
:1007D80023462A4606A904A8FFF7F9FC84F84470C2
:1007E80008B0BDE8F081000013B5184B044618683E
:1007F8009B8802AAADF8043091F839300090134470
:1008080091F83A2002A8024412F8082C13F8083C80
:10081800134491F83820024412F8082C134440F28B
:10082800AB72534303F595534FF47A721933B3FB04
:10083800F2F301339BB2238091F83E201AB1B1F84C
:1008480042201344238002B010BD00BF90750808F1
:100858002DE9F04F8046A9B008460C46FFF725FC65
:100868000546002840F0858104AF01460F2238462E
:1008780006F0C9F92046FFF718FC05460A26002DA0
:1008880040F0718123460F2239461D20FFF77BFC7B
:1008980005469DF810009DF81EE000F00F0388F84B
:1008A80001309DF8113020F07F0088F802309DF863
:1008B80012309DF8139000939DF818309DF814C0DD
:1008C80001939DF819309DF815B002939DF81D30DD
:1008D8009DF8161003934FFA8EF303F0200A40EAAE
:1008E8000A0003F01003184340B200289DF81720AF
:1008F80088F8000080F23481120942EA011141EAC5
:100908000B3BE18AB4F918004900C1EBDB010A4648
:10091800CB175B104FEA320202FB03F6A2FB02235D
:100928004FEA123A94F91A2003EB46034AEA035AAB
:100938004FEA233B1301DF170AFB07F680FB01018F
:1009480003FB0B66AAFB0323C00A3344920B40EA5D
:10095800415042EA83428318236303EB83038033C5
:100968001B12A8F80430236B94F926105B10A3F52A
:100978007A4398104043C2125143B4F924204013DB
:100988005A43520002EBA102B4F91E104FEA1C1C94
:100998004B4394F920104CEA091949014143C91005
:1009A80001EB63039B14A18B03F500434B43D9135D
:1009B800009BB4F9280049EA0339B4F92230C9F593
:1009C80080191B0403EBA20240F63543A9EB22323F
:1009D8005A43B2F1804FADBF92FBF1F3520092FB44
:1009E800F1F35B00D9104943B4F92A2049134A436B
:1009F800991041431E12491301EB223106FB06F2FE
:100A0800564394F82C2008AF724301EB624294F9E4
:100A18002710019E02EBC11203EB2213C8F808301D
:100A2800236B94F90E1003EB830380331B12594395
:100A3800642291FBF2F194F90D005943584389114E
:100A480090FBF2F091FBF2F10144608901F58041DD
:100A580041430298891240EA06262089A6EB00162F
:100A680094F90C00584390FBF2F0A6EB6000484361
:100A780094F91010414E4B4393FBF2F2E37B02EBE7
:100A8800C31283135B4312119B12534300EB63039E
:100A98004FF47A729B125343394A1B1323EAE373C8
:100AA8009342D4BFC8F80C30C8F80C2094F936C06B
:100AB8000FCE0FC70FCE0FC70FCE0FC796E80F0088
:100AC800103687E80F000FCE18AF0FC70FCE0FC72D
:100AD8000FCE0FC796E80F0087E80F0040F23C5092
:100AE80005230021CCFB03010EF00F0628AB03EB16
:100AF800860656F8807C4FEA9E1EA0FB072307FB5C
:100B08000133100C40EA03401914039B4EEA830E8C
:100B18004FEACE3256F840EC12F17F42AEFB006746
:100B28000EFB01774FF0000343F1FF3312184B41DE
:100B3800700A40EAC75079125F104FEA32068019EE
:100B4800794105F041FDC8F8100095B998F90030D1
:100B5800002BBABF012384F8453084F8455008E0DB
:100B6800236D0A209847013E16F0FF067FF487AEF2
:100B78000225284629B0BDE8F08F00BF98750808FF
:100B8800A0860100014B01221A70704779060020E7
:100B980008B5044902F0DFFE18B1034B03221A70AE
:100BA800012008BD847A0808AD05002001F0EABBE1
:100BB80001F0F0BB37B505469DF8184023438DF882
:100BC80000303C2302F0C6F8284603B030BD0000D0
:100BD80030B58FB0104904A801F074FE04A801F0E4
:100BE800CAFE044604A801F025FF054604A801F042
:100BF80009FF04F09BFECDE90201284604F096FEA9
:100C0800CDE90001054B064A53F824304021054838
:100C180001F024FE0FB030BDB406002018040020F7
:100C280058760808D4050020F8B5002318461A4657
:100C3800194601F0DBFD01F089FD002001F0C2FB3F
:100C48004EF65F26044600250027002001F0BAFB77
:100C5800001B61EB05018F4208BF864205D301F0F6
:100C680085FD10B901F06AFDEFE701F07FFD01F0A5
:100C780071FB044B186001F061FD002001F096FD46
:100C88000120F8BDC00B002008B501F067FD002366
:100C980018461A46194601F0B1FD4FF47A7001F072
:100CA800F5FD012008BD00001FB51F4802F00AFB32
:100CB8001D4802F0ABFC1D4B1C781D4BBCB1142227
:100CC80041F2E82118481A6002F075FB4FF461718F
:100CD800154802F0FAFB0022114602920192009296
:100CE8000123114802F039FC41F2700116E01E227E
:100CF80041F270010C481A6002F05DFB40F2DC51D1
:100D0800094802F0E2FB0123214602940194009471
:100D18001A46054802F021FC41F21001024804B0CD
:100D2800BDE8104002F04CBCAE0500208A06002049
:100D38000C050020000000002DE9F84F0D4604F0D6
:100D4800F5FD7FA3D3E9002304F044FE00227E4B87
:100D580004F08EFC05F0EEF87C49044605F03EF9F7
:100D68007B4905F045FA7B490646204605F038F9E7
:100D78000146304605F034F977490646284605F01D
:100D880037FA0146304605F02BF94FF07C5105F053
:100D98002FFA04F0CBFD00226B4B04F067FC68A32C
:100DA800D3E9002304F040FF05F0C4F801460646E5
:100DB800204605F015F94FF07C5105F019FA6749FE
:100DC80005F0D2FB002800F0B3806549204605F005
:100DD8000FFA644905F004F9214605F009FA624959
:100DE80005F0FCF861490746204605F001FA60491C
:100DF80005F0F4F8214605F0FBF95E4905F0F0F836
:100E0800294605F0F5F95C498246204605F0F0F9D7
:100E18005A4905F0E5F8214605F0EAF9584905F080
:100E2800DDF8294605F0E4F9294605F0E1F94B49D2
:100E38008346204605F098FB002835D051492046C6
:100E480005F074FB002876D04F49284605F06EFB64
:100E5800002870D04D49204605F0C0F805F08EFBFB
:100E68000028B8BF404205F06FF90146484805F030
:100E7800B5F8474905F070FA04F058FD03F052FC44
:100E8800804689464048294605F0A8F84FF07A512F
:100E980005F0AEF904F04AFD42464B4604F09AFDCF
:100EA80005F048F8064605E02C49204605F05CFBAD
:100EB8000026F0B13749204605F038FBD8B136494D
:100EC800284605F051FBB0B13349284605F086F8AD
:100ED800324905F041FA214605462E4805F07EF8CC
:100EE8002F4905F039FA0146284605F081F90446EC
:100EF80002E0344600E000245146384605F070F818
:100F0800594605F06DF8314605F068F8214605F0B8
:100F180067F804F00BFD00220B4B04F0A7FB08A3B5
:100F2800D3E9002304F080FE05F004F8BDE8F88F4B
:100F38003046BDE8F88F0026BCE700BFAFF300805D
:100F4800CDCCCCCCCCCCFC3F00004040000088424B
:100F58009A99993F000074421283C03D0000A04254
:100F6800E00FE0BB1123034019842942AC0DA13ADC
:100F78004826663E164B2241F18B05B6C88F5F3A6C
:100F8800F887603D0000E042000050410000BE428A
:100F9800000088410000AE420000AA420000204143
:100FA8000000A04073B596224FF4A071404801F0AC
:100FB80047F93F4801F010F900221146104601F0A8
:100FC8000DFC08B1FFF704FE394C3A4D206804F0D7
:100FD800ADFC394AC5E90001CDE9000110213748C7
:100FE80001F03CFCA06804F0A1FC354ECDE90001FD
:100FF800C6E90001334A1021334801F02FFC60682C
:1010080004F094FC0022314B04F00EFE304B314AC0
:10101800C3E90001CDE9000110212F4801F01EFCB1
:10102800E06804F083FC00222C4B04F0FDFD2C4BFF
:101038002C4AC3E90001CDE9000110212A4801F03A
:101048000DFC2A49204601F0CBF804F06FFC284B30
:10105800284AC3E90001CDE900011021264801F022
:10106800FDFB264802F026F805F088FA244A0346D4
:1010780010601021234A244801F0F0FBD6E9000152
:1010880004F058FF0446D5E9000104F053FF214657
:10109800FFF752FE1D4B186004F048FC064ACDE9E4
:1010A800000110211A4801F0D9FB012002B070BDDF
:1010B800140500206806002071760808FC0400204A
:1010C80098050020797608087A0600200000594023
:1010D80018060020817608082806002000408F4066
:1010E800B00500208A7608083806002000507D44A4
:1010F800A00600209476080851060020A4050020C8
:10110800D00500209B7608088B06002024060020C6
:10111800C005002008B501F01DF9054B1B68C01A71
:10112800044B1B68984234BF0020012008BD00BF53
:10113800B80500201004002008B5FFF7EBFF18B130
:10114800BDE80840FFF7E6BF01F0F8FAF5E7000050
:1011580037B501F003FB01F0FDF843F69725044687
:1011680001F004FB40B101F0F5F8001BA84203D8D8
:10117800642001F08BFBF3E70021094B47F2305262
:10118800084601F0AFF84FF47A7001F07FFB054B89
:101198000A221B680121684602F010FC03B030BD2A
:1011A800A0760808AC06002008B50121062002F048
:1011B8000AFF0021062002F006FF024B00221A70E7
:1011C80008BD00BF7906002038B5046805467CB123
:1011D8006368013B63605BB9236820469B68984756
:1011E800A368013BA3601BB923682046DB689847C6
:1011F800284638BD10B5244BD2B01B6800240E9386
:10120800224B1B680D93224B1B680C93214BD3E98F
:101218000023CDE90A23204BD3E90023CDE9082395
:101228001E4B186804F082FBCDE906011C4B4FF4F5
:101238008071D3E90023CDE904231A4B12A8D3E91E
:101248000023CDE90223184BD3E90023CDE900237D
:10125800164A01F003FB164B12AA1B78154910A871
:101268008DF80040FFF7A6FC11A8FFF7ADFF02F0CC
:1012780085FC114B187002F095FC104B1870104B40
:101288001C7052B010BD00BFBC0500201406002021
:10129800D0050020A0060020B0050020240600206C
:1012A800180600209805002068060020AD7608087A
:1012B800900500204777080820060020AF05002089
:1012C800000400207FB5A14C2378013B052B00F2D8
:1012D8008381DFE813F0190106002C0042007D002D
:1012E800AF009B4B1B780BB1FFF75EFF994B1B7848
:1012F80063B9994B1B784BB101F02CF8974B1A68DE
:10130800974B1B6813448342C0F0638102F036FC9C
:10131800944B1B7898421CBF03232370924B1A6886
:10132800924B1B689A4200F35781052313E0FFF79D
:1013380039FE054670B9012323708D4B1B78002BAD
:1013480000F04A81FFF7F8FE8A4B8B4A1B788DF82C
:101358000050CEE0062323703EE1884B1C781D46E2
:1013680064BB01F003FAD0B1814B1B788BB1FFF756
:10137800E3FE804B824A1B78824902A88DF8004020
:10138800FFF718FC03A8FFF71FFF00F0E3FF7E4BF1
:1013980018604FF47A7001F079FAFFF775FC02F0E3
:1013A8003FFE7A4B02201978FFF702FC784B0021A8
:1013B8000720197002F007FE01232B7002F0E8FBEA
:1013C800744BC0F13C003C221B68424302212DE0D3
:1013D80001F0CCF9D8B1664B1B7893B1FFF7ACFE9E
:1013E800644B00221B7867498DF8002002A86A4ADE
:1013F800FFF7E0FB03A8FFF7E7FE00F0ABFF624B47
:1014080018604FF47A7001F041FAFFF73DFC604B29
:1014180000210720197002F0D6FD02F0B9FB3C222A
:10142800C0F13C005B4B42431B68012102A802F05B
:10143800C5FAD1E001F09AF910B9FFF7F5FBCBE056
:10144800444D2B78EBB94A4B1B788BB1FFF774FEF0
:10145800484B524A1B784B498DF8003002A8FFF7D9
:10146800A9FB03A8FFF7B0FE00F074FF464B186015
:1014780000F070FF4A4B186001232B70FFF7BAFE8B
:10148800AAE0484B1E78F6B1394B1B7893B1FFF7A9
:1014980053FE384B00221B783A498DF8002002A8E9
:1014A800414AFFF787FB03A8FFF78EFE00F052FFC3
:1014B800354B18600223237000232B7000F04AFF7D
:1014C800264B186088E000F045FF354B1A68374B0B
:1014D8001B68134498427FD301232370244B1B7845
:1014E800002B79D0FFF728FE224B314A1B788DF864
:1014F8000060244902A8FFF75DFB03A8FFF764FE1C
:1015080000F028FF204BDCE700F024FF294B1A6885
:10151800294B1B68134498425ED9164B00241B784C
:10152800264A184902A88DF80040FFF743FB03A894
:10153800FFF74AFE4FF4FA6001F0A8F9134B1B6855
:10154800032B3DDC02F036FA46E000BFAD05002073
:101558007906002078060020480600207006002042
:101568000C04002020060020D00500200C050020D7
:1015780050060020900500205A770808A806002089
:101588007A77080874770808B80500201406002040
:10159800AC050020AC06002089770808A077080869
:1015A8001005002000040020AA7708081404002071
:1015B800AF7708087406002004040020CB770808D9
:1015C80002F02EFD21460220FFF7F2FAFFF7C0FDD8
:1015D80002E00423237099E604B070BDF0B585B02D
:1015E800084602AF0D4605F06CFB00F1080323F036
:1015F80007036E46ADEB030D02AC421C294620469C
:1016080005F07CFB9DF80820144D22B92B788DF845
:101618000020134A16E0204605F0DAF9C8380022FF
:1016280001282B788DF800200BD80E4A0E49384631
:10163800FFF7C0FA381DFFF7C7FD0C4B01221A70DF
:1016480007E0224638460A49FFF7B4FA381DFFF783
:10165800BBFDB5460C37BD46F0BD00BF9005002068
:10166800E3770808F877080874770808000400206A
:10167800EB77080830B5244985B0054602F06BF9C8
:101688000446D0B1214B01241C7002F0C9FC04208F
:10169800FFF78CFA1E4D40F00400287002F0C0FCE1
:1016A80029780420FFF784FAFFF7FEFA194B002285
:1016B8001B788DF80020184A1CE01849284602F0CB
:1016C8004AF9F8B1114B124D1C7002F0A9FC042024
:1016D800FFF76CFA20F00400287002F0A1FC2978CA
:1016E8000420FFF765FAFFF7DFFA0A4B0C4A1B786C
:1016F8008DF800400B4902A8FFF75CFA03A8FFF732
:1017080063FD012005B030BD847A08088A060020F0
:101718009B060020900500200A7808082178080810
:10172800237808083978080830B5224985B0054675
:1017380002F011F90446C0B11F4B01241C7002F0DD
:101748006FFC0420FFF732FA1C4D40F008002870A7
:1017580002F066FC29780420FFF72AFA184B0022C9
:101768001B788DF80020174A1AE01749284602F01E
:10177800F2F8E8B1104B114D1C7002F051FC042036
:10178800FFF714FA20F00800287002F049FC2978C5
:101798000420FFF70DFA0A4B0C4A1B788DF800401D
:1017A8000B4902A8FFF706FA03A8FFF70DFD012071
:1017B80005B030BD847A0808500600209B0600203A
:1017C800900500203E780808217808084F78080816
:1017D8003978080870B5CCB00A2205A9006805F068
:1017E80027FBC5B205F10C03DBB2182B3DD844B278
:1017F800204604F0A9FC02F05BF902F011FC29462E
:101808000320FFF7D5F902F0B2F9194E194D234616
:101818003060194A4FF4807100240CA801F01EF8BA
:101828002B780CAA154908A88DF80040FFF7C2F9D3
:1018380009A8FFF7C9FC4FF47A7001F027F831685E
:1018480008A802F051F9089B0C490393039A2B78D6
:1018580006A88DF80040FFF7ADF907A8FFF7B4FC1C
:1018680008A802F004F8012000E000204CB070BD88
:10187800A0050020900500206478080878780808FA
:101888007FB52649054602F066F828B92449284656
:1018980002F061F800283FD002F0C2FB0420FFF7F5
:1018A80085F9204C1D492070284602F054F8064658
:1018B800A0B11D4B00221B781C498DF8002002A8FE
:1018C8001B4AFFF777F903A8FFF77EFC237801226C
:1018D80043F001032370174B1A7016E0104928468D
:1018E80002F039F888B1104B134A1B780F4902A847
:1018F8008DF80060FFF75EF903A8FFF765FC237811
:1019080003F07E0323700B4B1E7002F089FB04204A
:101918002178FFF74DF9012004B070BD847A0808DA
:10192800217808089B0600209005002039780808CF
:101938007D780808480600208778080800230422D4
:1019480000F0ECBE0246014801F0E4B8F12A0808AC
:10195800F0B5B9B008AA1646A34B03F11005144612
:1019680018685968083303C4AB422246F7D119886E
:101978009B782D22A37021809C4D00210DF133000E
:1019880005F041F90227012107202F7002F00AFB18
:101998000021052002F006FB0121062002F002FBCF
:1019A80004A8002400F0EAFE00237D2218A904A858
:1019B80001F0E3FF234622468D490194009418A8BC
:1019C80000F0ECFE8B498C48FFF7B8FF3A462346F7
:1019D8008A498B4800F0A2FE8A49234604220968F6
:1019E800894800F09BFE89498948FFF7A7FF2346ED
:1019F80001228849884800F091FE88498848FFF705
:101A08009DFF88498848FFF799FF88498848FFF76C
:101A180095FF88498848FFF791FF88498848FFF76C
:101A28008DFF88498848FFF789FF88498848FFF76C
:101A380089FF88498848FFF785FF88498848FFF764
:101A480081FF88498848FFF77DFF88498848FFF764
:101A580079FF02F0E5FA2046FFF7A8F801282F469B
:101A680010D101227721834800F09EFAF8B900F0DE
:101A780071FC814B81491860304605F0FFF801235D
:101A88003B7014E002F0CCFA0125042202A920469A
:101A9800029500F087FC02F0C3FA2846042202A946
:101AA8000135029400F07EFC0A2DF4D1D9E7042117
:101AB800704800F0D9FB02216E4800F0E2FB0321D8
:101AC8006C4800F0EBFB02216A4800F0F4FB962218
:101AD8004FF4A071674800F0B3FB02F0A1FA0220AE
:101AE800FFF764F8454C00222060114602A80292D4
:101AF80000F020FC029B142B08D1236801332360DB
:101B080002F08EFA21780220FFF752F82368052B9D
:101B180007DD02F085FA04210220FFF749F8FFF7F4
:101B280017FB02F07DFA0320FFF740F800F10C03E1
:101B3800DBB2182B03D840B204F006FB00E000200B
:101B480001F0B6FF02F06CFA0420FFF72FF8314CD1
:101B580000F001034A4F23704A4D4B4BC0F38002FB
:101B68003870C0F3C0001A702870FFF79DF8FFF7AF
:101B780019FA052002F040FA50B93B78207023F09A
:101B880001033B7002F04CFA04213878FFF710F893
:101B980023783BB93D4B1A683D4B1B689A4201DBE1
:101BA800FFF742F80024FFF73FF84FF0FF330094A7
:101BB80001223849062001F01BFB2B785BB1364B1C
:101BC80002A81B7832468DF800403449FEF7F2FF30
:101BD80003A8FFF7F9FA00F0BDFB314B186004A821
:101BE80001F045FE39B0F0BD18760808AD050020B3
:101BF800E5150808D405002099780808140600207F
:101C0800A078080808040020AB7808088B06002094
:101C1800B378080848060020BE780808FC040020AD
:101C2800CB7808087A060020D7780808280600200C
:101C3800E078080838060020E978080851060020EE
:101C4800ED780808C0050020F6780808990B080800
:101C580001790808891808080D7908087D16080808
:101C68001A7908083117080825790808DD170808BF
:101C78003279080814050020740600203E79080807
:101C88009B060020500600208A060020D005002070
:101C98000C0500208D0B0808900500205C790808C9
:101CA800B8050020214B37B500251D60204B0122C7
:101CB8001A7000F08FFB4FF0FF311E4800F05CF9FE
:101CC8004FF69C731C4C022063804FF6FF732570FF
:101CD800A38000F0D7FC02A840F8045D2A462946F4
:101CE80000F028FB019B1E2B04D103232370112332
:101CF8006580A3800021012000F0DCFC0121042084
:101D080000F008FB00210D4801F094F90C4A0D4938
:101D18000A4802F01FFA00210B4801F0E1FA084ACC
:101D28000A49094802F016FA03B030BDAC06002093
:101D380090050020140500204A060020A405002074
:101D4800F80400205B300808AE05002007330808B7
:101D580000F09CBDF8B5074614461D460E4602F035
:101D680073F9394601F01FFA02F06EF9036831463B
:101D78009B6898472544AC4207D002F065F9036890
:101D880014F8011B9B689847F5E702F05DF901F02C
:101D980015FA0020F8BD00002DE9F0471B4D8046DC
:101DA80095F90030013305D10146BDE8F0471848E0
:101DB80001F054BDDFF85C90DFF85CA00726002432
:101DC80095F90000002180B202F0FDF8012799F989
:101DD800000007FA06F101EA080180B202F0F3F800
:101DE80095F90000394680B202F0EDF89AF9000042
:101DF800640080B2E4B202F0FFF800B13C4316F18F
:101E0800FF36DDD22046BDE8F08700BFB1060020CE
:101E1800040C0020B2060020B00600202DE9F04195
:101E28001F461B4B164693F900200546013288468B
:101E38001C460ED1174801F0A9FC4021154801F0B5
:101E4800F9FC0121134801F0A6FC0021114801F01A
:101E5800A5FCADB20021284602F0B5F84046FFF7D0
:101E68009BFF3744BE4204D016F8010BFFF794FFDE
:101E7800F8E70121284602F0A6F894F9003001336A
:101E880002D1044801F08DFC0020BDE8F08100BFBC
:101E9800B1060020040C00202DE9F0411F461C4B20
:101EA800164693F900200546013288461C460ED195
:101EB800184801F06BFC4021164801F0BBFC0121D9
:101EC800144801F068FC0021124801F067FCADB22B
:101ED8000021284602F077F848F08000FFF75CFF01
:101EE8003744BE4205D00020FFF756FF06F8010B25
:101EF800F7E70121284602F066F894F9003001332B
:101F080002D1044801F04DFC0020BDE8F08100BF7B
:101F1800B1060020040C0020F8B5044615461E46FC
:101F28000F4602F091F8214601F03DF902F08CF8D5
:101F3800036839469B68984702F086F801F03EF935
:101F480002F082F82146F2B201F025F984B2A642E5
:101F58000DD14FF6FF76013CA4B2B44209D002F08D
:101F680073F803685B69984705F8010BF3E70120EC
:101F7800F8BD0020F8BD000010B5084C0177FF211E
:101F88002170074C00222170064C026221700275F4
:101F9800C27482744274027410BD00BFB20600207D
:101FA800B0060020B106002070B50446617590F9AE
:101FB8001C001546421C0E460CD102F045F801F0F3
:101FC800DBF8012384F82630344B84F82560E36677
:101FD800334B2DE0012180B201F0F5FF94F91C008C
:101FE800012180B201F0DEFF2E4B93F90000431C63
:101FF80003D12D4801F0CAFB11E0012180B201F0A4
:10200800D1FF2A4B012193F9000080B201F0CAFFE9
:10201800274B002193F9000080B201F0C3FF237F12
:1020280084F82530002384F82630224BE366224BBF
:102038002367224B04F124006367FEF73EF958BB7F
:10204800E5B10222042384F85C2084F85F204FF471
:10205800A07284F85D3003210123A4F8642096223D
:102068006374A37484F85E10E3742374A4F8662080
:1020780084F8610084F86230237509E00823A4F825
:102088006450A4F8665084F8613084F8625025756D
:10209800012084F8680070BD002070BD211F080869
:1020A8005D1D0808B1060020040C0020B2060020BF
:1020B800B0060020A11E0808251E0808591D08089A
:1020C80073B5056A044645BB012380F86830A37CD4
:1020D800407C0BB140F00400E37C0BB140F00200FF
:1020E800237C0BB140F01000237D0BB140F0C800F9
:1020F80004F124063146FEF700FA70B93046FEF7BF
:10210800BDF950B931460DF10600FEF76DFB00F040
:1021180021F9BDF8065005442562284602B070BD75
:1021280030B587B00546FFF7CBFF0446002849D0F5
:1021380000F010F9844203D9201A400000F0A6FBF1
:1021480000242C6205F1240101A8FEF781FB002878
:1021580038D16B7C5BB1BDF9080003F0D5FB0022D8
:102168001A4B03F061FD03F0E5FE286001E0184B0F
:102178002B60AB7C53B1049803F0B6FB0022154BDF
:1021880003F052FD03F0D6FEA86001E0104BAB60EF
:10219800EB7C23B1039803F0D3FF686001E00C4B9C
:1021A8006B602C7D5CB19DF80430DB0604D5059886
:1021B80003F0C6FFE86005E00023EB6002E0044B93
:1021C8000124EB60204607B030BD00BF0000594035
:1021D8000000C07F00408F40FFF7A2BF0000000052
:1021E80038B505460C46FFF7F7FF6868124904F052
:1021F800B3F8214604F0B0F803F098FB0AA3D3E93A
:10220800002302F0F7F802460B4600200B4903F0C2
:102218002DFA07A3D3E9002303F0DCFB03F08AFEC1
:1022280038BD00BFAFF30080EBE2361AC05BC83F91
:102238000000000040A5E5400000C8420000F03F53
:10224800A0F86410A0F8662001B122B9082380F82C
:102258006130002303E0002380F86130012380F817
:1022680062300375012070470529034607D880F8B6
:102278005D10012009B959747047587470470020DF
:1022880070470529034607D880F85C10012009B972
:102298009974704798747047002070470529034661
:1022A80007D880F85E10012009B9D9747047D8742E
:1022B8007047002070470729034607D880F85F1049
:1022C800012009B9197470471874704700207047C5
:1022D80000F080B808B5024B1B685B6C019308BD21
:1022E8002000060808B5024B1B689B6C019308BDCB
:1022F8002000060808B5024B1B681B6B019308BD3C
:10230800D001040808B5024B1B681B6C019308BD7B
:10231800D001040808B5024B1B685B6E019308BD29
:10232800B801040808B5024B1B689B6E019308BDF1
:10233800B801040808B5024B1B68DB6E019308BDA1
:10234800B801040808B5024B1B685B68019308BD17
:102358009C01040808B5024B1B685B69019308BD22
:102368009C01040808B5024B1B68DB69019308BD92
:102378009C01040808B5024B1B689B6A019308BDC1
:102388009C01040808B5024B1B68DB6A019308BD71
:102398009C01040808B5024B1B681B6B019308BD20
:1023A8009C01040808B5024B1B689B6C019308BD8F
:1023B8009C01040808B5024B1B689B6D019308BD7E
:1023C8009C01040808B5024B1B68DB6D019308BD2E
:1023D8009C01040808B5024B1B681B68019308BDE3
:1023E800B001040808B5024B1B689B68019308BD3F
:1023F800B001040808B5024B1B68DB68019308BDEF
:10240800B001040808B5024B1B681B69019308BD9D
:10241800B001040808B5024B1B685B69019308BD4D
:10242800B001040808B5024B1B689B69019308BDFD
:10243800B001040808B5024B1B68DB69019308BDAD
:10244800B001040808B5024B1B68DB68019308BD9E
:10245800AC01040808B5024B1B685B69019308BD11
:10246800AC01040808B5024B1B689B69019308BDC1
:10247800AC01040808B5024B1B68DB69019308BD71
:10248800AC01040808B5024B1B681B6A019308BD20
:10249800AC01040808B5024B1B685B6A019308BDD0
:1024A800AC01040808B5024B1B689B6A019308BD80
:1024B800AC01040808B5024B1B68DB6A019308BD30
:1024C800AC01040808B5024B1B681B6B019308BDDF
:1024D800AC01040808B5024B1B685B6B019308BD8F
:1024E800AC01040808B5024B1B681B6C019308BDBE
:1024F800AC01040808B5024B1B689B6C019308BD2E
:10250800AC01040808B5024B1B68DB6C019308BDDD
:10251800AC01040808B5024B1B681B68019308BD91
:10252800B401040808B5024B1B689B68019308BDF9
:10253800B401040808B5024B1B68DB68019308BDA9
:10254800B401040808B5024B1B681B69019308BD58
:10255800B401040808B5024B1B685B69019308BD08
:10256800B401040808B5024B1B68DB69019308BD78
:10257800B401040808B5024B1B681B6A019308BD27
:10258800B401040808B5024B1B685B6A019308BDD7
:10259800B401040808B5024B1B689B69019308BD88
:1025A800C401040808B5024B1B685B6A019308BDA7
:1025B800C401040808B5024B1B689B6A019308BD57
:1025C800C401040808B5024B1B68DB6A019308BD07
:1025D800C401040808B5024B1B681B6B019308BDB6
:1025E800C401040808B5024B1B685B6B019308BD66
:1025F800C401040808B5024B1B689B6B019308BD16
:10260800C401040808B5024B1B681B6C019308BD84
:10261800C401040808B5024B1B681B68019308BD78
:102628001C00060808B5024B1B681B69019308BD0E
:102638001C00060808B5024B1B685B69019308BDBE
:102648001C00060808B5024B1B689B69019308BD6E
:102658001C00060808B5024B1B68DB69019308BD1E
:102668001C00060808B5024B1B681B6A019308BDCD
:102678001C00060808B5024B1B681B68019308BDBF
:10268800A401040808B5024B1B685B68019308BDE8
:10269800A401040808B5024B1B685B69019308BDD7
:1026A800A401040808B5024B1B689B69019308BD87
:1026B800A401040808B5024B1B68DB6A019308BD36
:1026C800A401040808B5024B1B68DB6C019308BD24
:1026D800A401040808B5024B1B685B6D019308BD93
:1026E800A401040808B5024B1B689B6D019308BD43
:1026F800A401040808B5034B1B68D3F89030019374
:1027080008BD0000A401040808B5034B1B68D3F8F2
:102718009C30019308BD0000A401040808B5024BD1
:102728001B681B68019308BDCC01040808B5024B5F
:102738001B685B68019308BDCC01040808B5024B0F
:102748001B689B68019308BDCC01040808B5024BBF
:102758001B68DB68019308BDCC01040808B5024B6F
:102768001B681B69019308BDCC01040808B5024B1E
:102778001B685B69019308BDCC01040808B5024BCE
:102788001B68DB69019308BDCC01040808B5024B3E
:102798001B681B6A019308BDCC01040808B5024BED
:1027A8001B685B6A019308BDCC01040808B5024B9D
:1027B8001B68DB6A019308BDCC01040808B5024B0D
:1027C8001B681B6B019308BDCC01040808B5024BBC
:1027D8001B68DB6B019308BDCC01040808B5024BEC
:1027E8001B681B69019308BDC801040808B5024BA2
:1027F8001B685B69019308BDC801040808B5024B52
:102808001B689B69019308BDC801040808B5024B01
:102818001B681B68019308BDA001040808B5024B9A
:102828001B685B68019308BDA001040808B5024B4A
:102838001B689B68019308BDA001040808B5024BFA
:102848001B681B69019308BDA001040808B5024B69
:102858001B689B69019308BDA001040808B5024BD9
:102868001B68DB69019308BDA001040808B5024B89
:102878001B68DB6A019308BDA001040808B5024B78
:102888001B681B6B019308BDA00104080021FFF71A
:1028980001BF10B5836804460BB901F060FCC3683A
:1028A8009847A3681BB10322214620469847204633
:1028B800BDE81040FDF7EFBB002211461046FFF7B8
:1028C8008DBF000070B51B4B002503601826283308
:1028D80088B043608560C56032462946044610309A
:1028E80004F091F92A4629462846FFF777FF08B9E8
:1028F800A0601BE02946324602A80095019504F025
:1029080082F902A96846ADF80860FFF7E3FC10B148
:102918000123A3600AE0009B019AA360E2600BB95F
:102928000223A36002A9204600F09CF8204608B0C4
:1029380070BD00BFAC79080838B50B4C28252A466D
:102948000021204604F05FF94FF0FF3363602580D3
:10295800064C074B20462C2540F8043B2A4600210C
:1029680004F051F9A58038BDE4060020B406002023
:10297800A07908087047007D7047000008B5037DFE
:102988001BB18069B0F1004F01D1002008BD03F0F0
:10299800DBFB024903F0E0FC08BD00BF0000C842B1
:1029A80008B5037D1BB1006AB0F1004F01D10020CA
:1029B80008BD03F0C9FB024903F0CEFC08BD00BF07
:1029C8000000C84270B50D4606460A2281682846AE
:1029D80000F0AAFE2C210446284600F054FE0A22E4
:1029E8000444F168284600F09FFE204470BDA0F121
:1029F8000400FFF7E7BF10B50446FDF74CFB20467F
:102A080010BD000008B5037D5BB1406A002808DBF3
:102A180003F09AFB044903F09FFC044903F0E8FB28
:102A280008BD034808BD00BF00FF7F470000C8423B
:102A3800000080BF08B5037D5BB1C069002808DBD2
:102A480003F082FB044903F087FC044903F0D0FB40
:102A580008BD034808BD00BF00FF7F470000C8420B
:102A6800000080BF30B50D4600F110040FCD0FC433
:102A780095E8030084E80300012030BD704700207A
:102A8800704710B50446FDF706FB204610BD08B593
:102A980008B1FFF7F6FF08BD10B58368044613B107
:102AA800032201469847204610BD38B5C468D4B102
:102AB8002378022B02D1E068FFF7B0FE65682DB1DC
:102AC8002846FFF7E9FF2846FDF7E5FAA5682DB186
:102AD8002846FFF7E1FF2846FDF7DDFA2046BDE866
:102AE8003840FDF7D8BA38BD10B588B004466846F6
:102AF80000F004FF694604A800F022FF04A8A047DC
:102B0800044604A800F0B3FE684600F0B0FE204674
:102B180008B010BDF0B507460E46154685B010241E
:102B280022460021684604F06EF8002269461046E5
:102B3800ADF80040029703960195FFF7F7FD05B041
:102B4800F0BD13B5044691E8050000234B600B6007
:102B58002060626001A801930093FEF735FB2046D0
:102B680002B010BD0B68036013B15A6801325A6095
:102B78007047F7B50C4606460F4654F8043B02ADBD
:102B880045F8083D214601A8FFF7ECFF29463046E5
:102B9800FFF7D7FF01A8FEF717FB2046FEF714FB47
:102BA8003846FDF778FA304603B0F0BD13B50B464A
:102BB800044603C88DE8030093E8030084E8030093
:102BC8009DE8030083E8030002B010BD826810B5D9
:102BD8000AB901F0C4FAC368BDE81040184708B53F
:102BE800006800F11001FFF7F1FF08BD826810B519
:102BF8000AB901F0B4FAC368BDE81040184708B52F
:102C0800006800F11001FFF7F1FF08BD38B5002397
:102C180083608B6804460D462BB102229847EB6807
:102C2800E360AB68A360204638BD00002DE9F041A1
:102C38004FF69C7304684FF0020086B0B1F9042087
:102C48008B8000230F688DF800300B60D4E84F1F8D
:102C5800994203D1C4E8450F002DF7D102D08DF871
:102C680000106BE014F10C051CBFE7602282BFF373
:102C78005F8F18BF1F4601236370BFF35F8F04F196
:102C88000803002053E8006F43E80002002AF9D146
:102C9800BFF35F8F002E51D0FFF714FD20B12946F6
:102CA8003046FFF793FF43E031466846FFF7AEFF33
:102CB800E068B4F9105008B103F0E8FF0490102060
:102CC800ADF81450FDF7E5F9054630B34FF00008AC
:102CD800C0F808801820FDF7DCF90446C0B1C0F838
:102CE800088001466846FFF761FF029BA268A3605F
:102CF800039B0292E268E360BDF814300392A3825A
:102D08004FF69C73ADF81430049BCDF81080236106
:102D18000D4B2C60EB600D4BAB600498FFF77EFD0C
:102D28006846FFF7B9FE002229460948FFF7D2FC9A
:102D38003046FFF7B1FE3046FDF7ADF93846FFF7EC
:102D48006DFD06B0BDE8F081E72B0808452E0808A0
:102D58009B2808082DE9F04F8BB007AD4FF0000B0A
:102D68000646994614200C230F4690469DF850A01D
:102D7800C5F804B0C5F808B00793FDF78AF904460A
:102D880038B180F800B080F801B0C0F804B0C0F8DD
:102D980008B00023102003940493FDF77AF928B1B2
:102DA800012343608360234BC4600360224B04907B
:102DB80008200893FDF76DF9044628B1039B04A980
:102DC80040F8043BFFF7CEFE00955FFA8AF34A46C7
:102DD800414638460994FFF7D9FCB8B9039B5B789C
:102DE80003F0FF0293B94FF69C7305A903A8059257
:102DF800ADF81830FFF71AFF0598FFF70FFD05A883
:102E08000999FFF7B6FE06A8FEF7DEF9039B04A9A9
:102E180006A80593FFF7A6FE05A93046FFF791FE21
:102E280006A8FEF7D1F904A8FEF7CEF930460BB094
:102E3800BDE8F08FE0790808AD2F0808022AF8B538
:102E4800044606D0032A17D0012A20D10B68036054
:102E58001DE018200E68FDF71CF9054650B13146F3
:102E6800FFF7D4FE3069B6F9147008B103F00EFF0D
:102E78002861AF8225600AE0046844B12069FFF741
:102E8800CDFC2046FFF708FE2046FDF704F9002098
:102E9800F8BD38B5002383608B6804460D462BB116
:102EA80002229847EB68E360AB68A360204638BD10
:102EB800022A70B5044606D0032A11D0012A17D178
:102EC8000B68036014E014200E68FDF7E2F805466D
:102ED80020B13146FFF7DDFF337C2B74256007E016
:102EE80004682CB12046FFF7D7FD2046FDF7D3F83C
:102EF800002070BDF0B50C46BFF35F8F87B000238C
:102F080050E8006F40E80032002AF9D1BFF35F8F24
:102F1800002E3ED01846FFF7D5FB074620B12146C4
:102F28003046FFF763FE2EE0314601A8FFF7B1FFF8
:102F3800237810208DF81430FDF7ABF80546D0B192
:102F480087601420FDF7A5F8044678B1876001462C
:102F580001A8FFF72BFE039BA268A360049B0392C2
:102F6800E268E3609DF81430049223740A4B2C60E5
:102F7800EB600A4BAB6001A8FFF78EFD00222946E3
:102F88000748FFF7A7FB3046FFF786FD3046FDF7F9
:102F980082F807B0F0BD00BF072C0808B92E080852
:102FA8009B28080830B5044685B00D46684611468A
:102FB800FFF7DFFD7CB124B228460DB103F066FEB1
:102FC800029002A96846ADF80C40FFF72FFE029860
:102FD800FFF724FC1DE04FF0010200988DF808402F
:102FE800D0E84F3FA34203D1C0E8412F0029F7D1D1
:102FF80002D08DF808300CE010F10C014FF00103FD
:1030080018BF0373BFF35F8F043000F8033CFFF76A
:1030180071FF01A8FEF7D8F805B030BD006800F0D0
:10302800D4B810B50446016002710AB1FFF7F6FF83
:10303800204610BD38B504460D4601F025F82A464D
:1030480001462046FFF7EDFF204638BD006800F036
:10305800C5B810B5037904460BB1FFF7F7FF204652
:1030680010BDF8B504460F4616461D46FFF7D6FFB5
:103078002068362100F09BF82068394603689B6871
:1030880098470121206800F095F802223621012393
:10309800206800F083F8206803685B6998473070FF
:1030A800206803685B69984728702046BDE8F840A7
:1030B800FFF7CCBF13B5002202AB03F8012D8DF842
:1030C800062004210DF10602FFF7CBFF9DF807004B
:1030D80002F01AFC0022084B02F07CFC02F02AFFE6
:1030E80004469DF8060003F02FF80146204602F03A
:1030F80077FF02B010BD00BF0000703F7047F8B501
:10310800064615460C468F18BC4206D0336814F89C
:10311800011B9B6830469847F6E72846F8BD002211
:10312800007CFFF7AFB90021007CFFF7B3B900219D
:10313800007CFFF7B7B90021007CFFF7BBB900217D
:10314800007CFFF7BFB910B50446FCF7A4FF204682
:1031580010BD000010B5044608464FF47A73A3600A
:10316800044B0021207461602360FFF7BBF92046FF
:1031780010BD00BFFC79080800231A461946007CD8
:10318800FFF760B913B50024007C0094FFF762F9DB
:10319800C0B202B010BD0123FFF7F4BFDBB2D2B258
:1031A800C9B2FFF7EFBF0022007CFFF75BB9C9B2D5
:1031B800FFF7F9BF0022007CFFF75CB90121FFF798
:1031C800F9BF0021007CFFF785B908B50021007C14
:1031D800FFF790F9B0FA80F0400908BD08B5002162
:1031E800007CFFF78FF9B0FA80F0400908BD00476E
:1031F80007282DE9FF4105460F4690461E464FF029
:10320800000419D0FFF716F9A6424FF004030394FF
:103218008DF80C30A2BF9DF8283003AC8DF80E3025
:103228002846009443463A460549A8BF8DF80D60E4
:10323800FFF7F8F8012000E0204604B0BDE8F0816F
:10324800F7310808704710B50446FCF724FF2046FC
:1032580010BDF8B50F4600F10806051D002416F844
:10326800011D0A22384600F03BFAAE42044407D05A
:10327800002CF4D02E21384600F005FA0444EEE77D
:103288002046F8BD10B59DF8084044EA032343EAF8
:10329800024242EA0161416010BD000037B5044DA9
:1032A80005609DF818500095FFF7ECFF03B030BD9E
:1032B800247A0808014A024B1A607047E57A080820
:1032C8000C07002008B500F0DFFEFFF755FF0120CE
:1032D80008BD08B500F0D8FEBDE80840FFF775BF87
:1032E80010B50446017009B1FFF7F3FF204610BD81
:1032F80008B500F0C9FEBDE80840FFF76FBF10B57C
:10330800037804460BB1FFF7F3FF204610BD10B554
:1033180004460068FFF7ECFF204610BD37B502AC45
:103328000D4644F8040DFFF7D4FF00F0ADFE6B2105
:10333800FFF73DFF00F0A8FE036829469B68984701
:1033480000F0A2FE0121FFF735FF00F09DFE0123EA
:103358001A466B21FFF722FF00F096FE03685B69AF
:10336800984705462046FFF7D2FFE8B203B030BDC4
:1033780073B502AC15460E4644F8040DFFF7A9FFD5
:1033880000F082FE6B21FFF712FF00F07DFE03685C
:1033980031469B68984700F077FE036829469B688A
:1033A800984700F071FE0121FFF704FF2046FFF760
:1033B800AEFF02B070BD37B504460D460190FFF769
:1033C80088FF00212046FFF7A9FF41F258139D42CC
:1033D80000F087025BD020D841F218039D424DD0FF
:1033E8000CD840F678739D4242D040F6C8739D428F
:1033F80041D040F628739D4260D159E041F2B803AC
:103408009D423ED041F208139D423DD041F26803EF
:103418009D4253D142F020024AE041F298239D4256
:103428003ED00ED841F2F8139D4233D041F24823E2
:103438009D4232D041F2A8139D423FD142F0400252
:1034480036E041F238339D422DD006D841F2E823C8
:103458009D4233D142F060022AE041F288339D4216
:1034680024D041F2D8339D4228D142F078021FE09F
:1034780042F008021CE042F0100219E042F0180283
:1034880016E042F0280213E042F0300210E042F069
:1034980038020DE042F048020AE042F0500207E02C
:1034A80042F0580204E042F0680201E042F0700283
:1034B80020460021FFF75CFF012400E0002401A85A
:1034C800FFF725FF204603B030BD37B504460D464B
:1034D8000190FFF7FEFE00212046FFF71FFFB5F51C
:1034E800617F00F0F80223D007D8962D1AD0B5F5E1
:1034F800FA7F1AD0642D29D122E040F2DC539D4294
:1035080019D005D8B5F5966F20D142F0040217E01E
:10351800B5F5FA6F12D040F6B8339D4216D142F095
:1035280007020DE042F001020AE042F0020207E061
:1035380042F0030204E042F0050201E042F0060214
:1035480020460021FFF714FF012400E0002401A811
:10355800FFF7DDFE204603B030BDF7B50C46174631
:1035680005461E460190FFF7B4FE002C0CBF002450
:10357800802417B144F04004E4B20EB144F02004B2
:103588009DF820300BB144F010049DF824300BB1A5
:1035980044F008049DF828300BB144F004040221DB
:1035A8002846FFF7BBFE00F001022243022128460D
:1035B800FFF7DEFE01A8FFF7AAFE012003B0F0BD69
:1035C80037B504460D460190FFF783FE04212046D7
:1035D800FFF7A4FE41F210039D4200F0030206D05B
:1035E80041F270039D420AD142F0B00201E042F07C
:1035F800980220460421FFF7BBFE012400E00024C6
:1036080001A8FFF784FE204603B030BD37B5054654
:1036180002AC44F8040DFFF75CFE05212846FFF7CD
:103628007DFE052100F0CE022846FFF7A1FE2046C8
:10363800FFF76DFE012003B030BDF8B506460D4614
:103648008F180024BD420CD0336815F8011B9B6805
:1036580030469847002801DB0444F3E7002C08BFF4
:1036680004462046F8BD70B505460C46084649B1E3
:1036780003F027FB2B68024621462846BDE8704028
:10368800DB68184770BD03689B681847012A98BF14
:103698000A2230B50B468BB000218DF824100DF1AD
:1036A8002304B3FBF2F505FB1233DBB2092B94BFFD
:1036B80030333733DBB2214604F801392B46002D6D
:1036C800EFD1FFF7D0FF0BB030BD10B422B90368BB
:1036D800C9B29B6810BC1847D2B210BCFFF7D6BF5E
:1036E800FFF7F3BF2DE9F04107460E4615462AB904
:1036F800BDE8F0410368C9B29B6818470A2A02D19D
:10370800002901DA04E0D2B2BDE8F041FFF7BEBFFC
:103718002D21FFF7B8FF2A46044671423846FFF7C5
:10372800B5FF2044BDE8F081FFF7DCBF10B50446C3
:10373800FFF7B2F9204610BD034800238360034A0F
:10374800034900F007BD00BF10070020F80400205F
:1037580035370808704710B50446FCF79CFC20462E
:1037680010BD000070B504460E46074B00250360E7
:1037780040F80C5FFEF7BEFD30462671FEF7F2FEFC
:10378800A560204670BD00BF187B08084FF6FF7182
:103798000079FEF7BFBE0079FEF7C4BE0079FEF7D8
:1037A800C9BEC068FEF7AEBD054A0023995C8142D8
:1037B80002D00133082BF9D1581CC0B2704700BFA2
:1037C800207B0808400830B5186000241868E5B266
:1037D800884206D90134082C02D040081860F5E761
:1037E8000725024B5B5D137030BD00BF207B0808C6
:1037F80070B5044602FB01F588B006791422002151
:1038080003A803F000FA0B2303A930460022ADF801
:103818000C30FEF7B7FE02AB0DF1070229460498FB
:10382800FFF7D0FF20799DF80710FEF78BFE02986E
:1038380008B070BD38B50446A56808464DB1FFF715
:10384800B3FF012225FA00F12046BDE83840FFF712
:10385800CFBF2079BDE83840FEF774BE08B50079BF
:10386800FEF778FEC0B208BD0079FEF783BE10B53A
:1038780004460068FEF7D2FF204610BD10B5044686
:10388800006808B1FEF7CAFF00232360A3606360E5
:1038980010BD38B504460D4600680131FEF7C6FF75
:1038A80010B184E82100012038BD10B50368044632
:1038B80013B143688B4207D22046FFF7EAFF20B1D5
:1038C800A3680BB922681370012010BD70B50E46AD
:1038D800114604461546FFF7E8FF18B92046FFF7DA
:1038E800CDFF09E02A463146A560206803F080F93B
:1038F8002268A3680021D154204670BD38B5002342
:10390800044603604360836003730D4639B108467B
:1039180003F0D7F9294602462046FFF7D7FF20468D
:1039280038BD884210B50B46044607D0096819B15E
:103938009A68FFF7CBFF01E0FFF7A0FF204610BD14
:1039480010B5044600230360436083600373FFF7E8
:10395800E8FF204610BD08B582680B4612B919B9B0
:10396800012008BD11B90368187802E0006803F067
:103978007BF9B0FA80F0400908BD70B50E469AB1DF
:1039880091B185689D4202D800230B7070BD541E0A
:10399800ED1AAC4228BF2C4601682246194430462D
:1039A80003F0ACF90023335570BD014600228C208A
:1039B800FEF7B8BC0020FFF7F8BF000010B50446BA
:1039C800084611461A460023FEF76CFE074B0022F4
:1039D8001A704FF69C725A804FF6FF729A801A68D6
:1039E8009B882260A380204610BD00BF20070020CE
:1039F8004FF69C7337B50D4C002563804FF6FF7367
:103A08002846A3802570FEF73DFE02A840F8045D15
:103A18002A462946FEF78EFC019B1E2B04D1032360
:103A2800237011236580A38003B030BD20070020D8
:103A3800F0B5144B144F1E68144B064418683B68C5
:103A480006449E428BB01BD00AA840F8286D02F0AD
:103A5800D7FF0446436901AD03F26C7343610FCC91
:103A68000FC50FCC0FC5D4F800E0094CC5F800E02D
:103A780001AD0FCD0FC40FCD0FC43E60C4F800E0F8
:103A88000BB0F0BD58070020540700205007002055
:103A98002807002008B50020FEF790FE28B1FEF7A1
:103AA80065FE80F00100C0B208BD012008BD00001D
:103AB80010B50949044602F039FD60B907492046A6
:103AC80002F052FD38B90649204602F091FB02F097
:103AD80055FD044B186010BD000040C10000604156
:103AE800000061455807002037B50E4B04461B6897
:103AF80002A819440C4B1B68194440F8041D02F035
:103B08007FFF02F029FF054603F0DBF80023284475
:103B180000F8013C29462046FFF7F0FE204603B096
:103B280030BD00BF580700205007002010B5002006
:103B3800FEF740FC044668B9FEF79CFD01280BD14E
:103B48002046FEF7CFFD38B9FFF7A4FF30B9FEF7DE
:103B5800F5FDF9E7012010BD002010BDFFF79AFF21
:103B68000020FEF727FC003018BF012010BD08B563
:103B7800FFF7DCFFBDE80840FEF7F4BB08B5FFF728
:103B8800F6FFFFF755FF014B986808BD280700208E
:103B980008B5FFF7ECFFFFF74BFF014B586808BD6E
:103BA8002807002008B5FFF7E2FFFFF741FF014BA8
:103BB800D86808BD28070020024B1A68024B1A6013
:103BC800704700BF380400204C070020704741743C
:103BD8007047007CFEF716BD007CFEF7EBBC007C4E
:103BE800FEF7F8BC007CFEF7EDBC007CFEF7FABCE3
:103BF80010B50446FCF74FFA204610BD70B5457C59
:103C080004460E4625B9007CFEF7FCFC002805DDBD
:103C18003146207CBDE87040FEF7C4BC284670BD24
:103C280010B5044608461146002262604FF47A72C5
:103C3800A260054A20742260012262741A46FEF7C7
:103C4800A9FC204610BD00BF587B0808007CFEF781
:103C5800D1BC000038B50C4D296811F0010411D110
:103C68002846FCF71AFA68B1084A2146084B094861
:103C7800FFF7D6FF2846FCF715FA074A0749054813
:103C880000F068FA034838BDF4070020F807002060
:103C9800700700205C070020F8040020D53B0808C6
:103CA8004174704770470021007CFEF7CBBC0121AE
:103CB800007CFEF7C7BC007CFEF7BCBC007CFEF7AE
:103CC800B1BC38B50446007C0D46FEF7B3FC0028AD
:103CD80001DC607C20B12946207CFEF7BBFC01207A
:103CE80038BD007CFEF7BEBC10B50446FCF7D3F91E
:103CF800204610BD10B50446002363604FF47A7364
:103D0800A360054B084623600123217463741146A0
:103D1800FEF780FC204610BD887B080810B50446D5
:103D28001422002102F06FFF054B20466360054B0B
:103D3800E36040F2011323818123238210BD00BF79
:103D4800010900208008002030B50E4D87B001A879
:103D5800FFF7E4FF296811F0010410D12846FCF7A9
:103D68009CF960B101AA21460748FFF7C3FF28461E
:103D7800FCF798F9054A0649034800F0EBF90248B0
:103D880007B030BD7C080020040A0020F804002099
:103D9800AD3C080810B504461422002102F033FF98
:103DA800054B20466360054BE36040F20113238115
:103DB8008123238210BD00BFB40A00201C0A002002
:103DC80010B50E4C86B001A8FFF7E4FF2368DB07A7
:103DD80010D42046FCF761F960B101AA0121084816
:103DE800FFF788FF2046FCF75DF9064A06490448B4
:103DF80000F0B0F9024806B010BD00BF180A002054
:103E0800A00A0020F8040020AD3C080808B5184BAB
:103E180033B1FFF799FF03681B69984700281EDC38
:103E2800144B33B1FFF716FF03681B699847002846
:103E380018DC114B0BB1AFF30080104B0BB1AFF393
:103E480000800F4B0BB1AFF300800E4B7BB1FFF737
:103E5800B7FF03681B699847002806DC08BDAFF365
:103E68000080DDE7AFF30080E3E7AFF3008008BD33
:103E7800000000000000000000000000000000003A
:103E8800000000000000000008B5FFF7BFFFFEF7C4
:103E980061FA014B186008BDC00B00200248034AB4
:103EA8000349121A02F0A4BE004002400440024036
:103EB800687E080807B5002300931A466FF077015B
:103EC800FEF722FC03B05DF804FB000007B5438849
:103ED8000A2B08D0502B09D1094B1B683BB103B002
:103EE8005DF804EB1847FFF7E5FF06E000230093B1
:103EF8001A466FF07701FEF707FC03B05DF804FB84
:103F0800B80B002038B5104C104D2368AB42104B4D
:103F18000CBF012200221A7002D0FFF7BFFF2560F4
:103F2800FEF710FA02F078FE0A4B1BB1FEF70AFA08
:103F3800AFF3008000210748FEF748FCBDE8384091
:103F480000210548FEF7D6BB004002401E1C279AF8
:103F5800BC0B002000000000D53E080810B5044640
:103F68000F48FFF781FC28B1A4F10D03022B01D8FB
:103F7800002010BD00F068F8FFF723F908B1012C04
:103F8800F6D9FFF767FEFFF761FE18B1A4F1120337
:103F9800012BEDD92E2C8CBF0020012010BD00BFB5
:103FA800040C00202E2838B504460D460AD8FF29EF
:103FB80008D0FFF7D3FF28B129462046BDE838408E
:103FC800FEF710BA38BD38B504460D46FEF712FAAA
:103FD800FF2810D0062804D84D2323FA00F0C30781
:103FE80009D42046FFF7BAFF28B129462046BDE884
:103FF8003840FEF707BA38BD10B50446FEF7FAF99F
:104008000438C0B2012808D92046FFF7A7FF20B11D
:104018002046BDE81040FEF7FDB9002010BD0000A5
:1040280010B5074C2368DB0708D42046FCF735F8A1
:1040380020B1FEF79FF92046FCF734F8014810BD7F
:10404800C40B0020C80B002038B50B4D296811F0AF
:1040580001040FD12846FCF720F858B1214607483B
:10406800FFF778F82846FCF71DF8054A0549034884
:1040780000F070F8014838BDCC0B0020E40B00209C
:10408800F80400200531080810B50B4C2368DB073D
:104098000FD42046FCF701F858B102210748FFF772
:1040A80059F82046FBF7FEFF054A0649034800F089
:1040B80051F8024810BD00BFF80B0020D00B0020BB
:1040C800F80400200531080813B5084C00231A46E7
:1040D800194600932046FFF7E1F82046044A0549AF
:1040E80002B0BDE8104000F035B800BFFC0B00205E
:1040F800F80400204D32080870B5114E114D124CCD
:1041080000213046FFF72EFB3046104E2A46214646
:1041180000F020F801213046FFF724FB30460C4E12
:104128002A46214600F016F802213046FFF71AFB0E
:104138002A4621463046BDE8704000F00BB800BF63
:10414800040C0020F80400205D370808140C002037
:10415800240C00200B460146184602F03DBC08B569
:10416800FEF784FB244B1A68D0075CBF01221A6053
:10417800224B1A68D1075CBF01221A60204B1A68CB
:10418800D2075CBF01221A601E4B1A68D0075CBFB9
:1041980001221A601C4B1A68D1075CBF01221A6001
:1041A8001A4B1A68D2075CBF01221A60184B1A68AA
:1041B800D0075CBF01221A60164B1A68D1075CBF92
:1041C80001221A60144B1A68D2075CBF01221A60D8
:1041D800124B1A68D0075CBF01221A60104B1A688C
:1041E800D1075CBF01221A600E4B1A68D2075CBF68
:1041F80001221A60704700BF600C00205C0C002090
:10420800580C0020540C0020500C00204C0C0020AE
:10421800480C0020440C0020400C00203C0C0020DE
:10422800380C0020340C0020184B1A68D1075CBFEA
:1042380001221A60164B1A68D2075CBF01221A6065
:10424800144B1A68D0075CBF01221A60124B1A6817
:10425800D1075CBF01221A60104B1A68D2075CBFF5
:1042680001221A600E4B1A68D0075CBF01221A603F
:104278000C4B1A68D1075CBF01221A600A4B1A68F6
:10428800D2075CBF01221A60704700BF800C002073
:104298007C0C0020780C0020740C0020700C00208E
:1042A8006C0C0020680C0020640C0020184B1A6865
:1042B800D1075CBF01221A60164B1A68D2075CBF8F
:1042C80001221A60144B1A68D0075CBF01221A60D9
:1042D800124B1A68D1075CBF01221A60104B1A688A
:1042E800D2075CBF01221A600E4B1A68D0075CBF68
:1042F80001221A600C4B1A68D1075CBF01221A60B0
:104308000A4B1A68D2075CBF01221A60704700BFC7
:10431800A00C00209C0C0020980C0020940C00207D
:10432800900C00208C0C0020880C0020840C0020AD
:10433800244B1A68D0075CBF01221A60224B1A6806
:10434800D1075CBF01221A60204B1A68D2075CBFF4
:1043580001221A601E4B1A68D0075CBF01221A603E
:104368001C4B1A68D1075CBF01221A601A4B1A68E5
:10437800D2075CBF01221A60184B1A68D0075CBFCD
:1043880001221A60164B1A68D1075CBF01221A6015
:10439800144B1A68D2075CBF01221A60124B1A68C4
:1043A800D0075CBF01221A60104B1A68D1075CBFA6
:1043B80001221A600E4B1A68D2075CBF01221A60EC
:1043C800704700BFD00C0020CC0C0020C80C002087
:1043D800C40C0020C00C0020BC0C0020B80C00202D
:1043E800B40C0020B00C0020AC0C0020A80C00205D
:1043F800A40C00202DE9F04F8DB006460F46144658
:104408001D4600F0EDF9DFF81093CDE9000199F9A8
:104418000080B8F1FF3F46D022462B462046294669
:1044280001F072FD834600283DD132463B463046B6
:10443800394601F069FD8246002874D13046394674
:104448000022002301F02EFD002833D00022002393
:104458002046294601F026FD8346B8B1A94A012322
:1044680000200021CDF828A0CDE90467CDE9064554
:10447800CDE9080103920293B8F1000F6CD0A24B6A
:104488000022104619460DB0BDE8F08F2046294697
:1044980000F0D0FF38B1002200232046294601F061
:1044A8000BFD00286AD1DDE90023104619460DB03E
:1044B800BDE8F08FDDE9000100F0BCFF8046002870
:1044C8007DD0DDE900014FF0000A4FF0000B5246A5
:1044D8005B4601F0E7FC0028E5D03046394600F09D
:1044E800A9FF0028DFD02046294600F0A3FF0028B6
:1044F800D9D099F90030834804210022022BCDE954
:104508000467CDE90645CDE908AB039002910A920C
:1045180004D002A800F094FF002847D102F06AFAFC
:104528002223036042E0002200232046294601F0AE
:10453800B9FC0028B7D0744B724800220121B8F1A9
:10454800020FCDF828B0CDE90467CDE90645CDE9DD
:10455800082303900291A8D002A800F071FF002858
:104568007ED00A9B43B302F045FADDE908230A9995
:104578000160104619460DB0BDE8F08F614999F900
:1045880000300122CDF828B0CDE90467CDE9064511
:1045980003910292002B68D05C490020022BCDE9E0
:1045A800080166D102F026FA212303600A9B1BB199
:1045B80002F020FA0A9B0360DDE9082375E730461C
:1045C800394600F037FF00283FF47BAF20462946E4
:1045D80000F030FF00283FF474AFDDE900231046F7
:1045E800194601F091FC00286FD1464B99F90080DB
:1045F800039303230A90CDE90467CDE906450293A6
:10460800B8F1000F3BD1DFF814B14FF0604A002237
:10461800002330463946CDE908AB01F04DFC0028AF
:104628003FF477AF00223A4B2046294601F0D2F9F1
:1046380004460D4600F00CFF02460B46204629466C
:1046480001F030FC00283DD1324B4FF06042CDE9FB
:10465800082399F90080B8F1020F7FF45AAF5DE79B
:1046680002F0C8F9212303607BE700230024CDE989
:10467800083402A800F0E4FE002897D192E7DFF89A
:10468800A0B04FF0000A0022002330463946CDE999
:1046980008AB01F011FC0028DDD000221C4B20469D
:1046A800294601F097F904460D4600F0D1FE02466E
:1046B8000B462046294601F0F5FB18B9134B00229A
:1046C800CDE9082399F90080C5E70E4A99F90090C9
:1046D8000123CDF82880CDE90467CDE9064503928A
:1046E8000293B9F1000FC0D00022002310461946EA
:1046F80001F09AFAB9F1020FCDE908013FF452AF7F
:10470800B7E700BFB07B08080000F03F0000F0FFEB
:104718000000E03FFFFFEFC73C040020FFFFEF472A
:104728000000F07F2DE9F04F8BB004460D4600F0F5
:10473800B9FD284B064693F900A00F46BAF1FF3F92
:1047480012D022462B462046294601F0DDFB83463F
:1047580050B94FF000084FF000092046294642465C
:104768004B4601F0A9FB20B9304639460BB0BDE8ED
:10477800F08F194A0123CDF820B0CDE90445CDE9E1
:10478800024501920093BAF1000F15D042464B46FC
:104798004046494601F048FABAF1020FCDE9060150
:1047A8000CD102F027F921230360089B63B9DDE9E6
:1047B80006010BB0BDE8F08FCDE90689684600F028
:1047C8003FFE0028F1D1ECE702F014F9089B0360E2
:1047D800EDE700BF3C040020B47B0808000000009F
:1047E8002DE9F04F23F0004858EA020993B03CD075
:1047F800714C21F00046A64283460D460CDD06F1B9
:10480800404606F5801656EA0B0038D183466B49B8
:10481800584613B0BDE8F08F9A4696462BD0A0456F
:10482800EDDC654CA04578D0002D0F468146CDE9DA
:10483800002376DB0024BEF1000F27D15E4B98459C
:1048480000F08B805D4B984552D0BAF1804F00F054
:10485800C9835B4B9A4519D1002D17DB4846394669
:1048680013B0BDE8F04F00F01DBDCB465846534984
:1048780013B0BDE8F08F0028C1D1B045D1DD514853
:1048880013B0BDE8F04F00F0DDBD002448463946BE
:1048980000F0CCFDBBF1000F1CD0ED0F013D54EA38
:1048A800050370D0484B984540F3948003F1047396
:1048B800984540F30D84454B9E4270DDBAF1000FD8
:1048C80070DD3BA3D3E900231046194601F082F8B6
:1048D80083469DE726B1394B25F040429A42DCD108
:1048E800BAF1000FC0F2B783002D08DB83468FE7CB
:1048F800BAF1000FC0F25E84CB46394688E706F16C
:10490800404606F5801656EA040300F08384012C1D
:10491800ECD101F1004183467AE7BEF1000F83D064
:104928006DE72B4B98452CDCA3F15473984581DD3A
:104938004FEA2853A3F2FF33142B40F35384C3F1F7
:1049480034032EFA03F202FA03F39E457FF472AFA2
:1049580002F00102C2F102046DE706F1404303F5DB
:10496800801353EA0B0300F03A83184B9E4240F33E
:104978006783BAF1000F15DBDDE900349B46214659
:1049880046E7022457E74A4648463B46394600F080
:104998006DFE02460B4601F047F9834638E7BAF147
:1049A800000F8EDB4FF0000B594631E7AFF3008064
:1049B8009C7500883CE4377E0000F07F0000F03FE3
:1049C8000000E03FB87B08080000E041FFFFEF3F30
:1049D800FFFF3F43B6F5801F4FF0000205DAD04BCA
:1049E80000F0F8FF0E466FF03402DFF844E33315A9
:1049F800C6F31306A3F2FF3346F07F57764503EB61
:104A0800020A47F4401740F3C983C64B00229E426E
:104A180040F304840023CDE90823CDE90C23C24BDD
:104A28000022CDE906230AF1010AA7F5801700261E
:104A38003946DDE90623CDE90A0100F017FEDDE974
:104A4800062380468946DDE90A0100F011FE024688
:104A58000B460020B44901F0E7F80A460146134620
:104A6800CDE90E1202464946404600F0B3FF8C4697
:104A780083467B1043F0005303F500239919002067
:104A8800CDE904BC06460F464FF0000B6146584678
:104A980032463B46CDE910BCCDE9020100F09AFF51
:104AA80002460B464046494600F0E0FDDDE9062394
:104AB800804689463046394600F0D8FD02460B4606
:104AC800DDE90A0100F0D2FDDDE9022300F082FFF2
:104AD80002460B464046494600F0C8FDDDE90E2374
:104AE80000F078FFDDE90478CDE906013A4643464F
:104AF8003846414600F06EFF77A3D3E90023064607
:104B08000F4600F067FF76A3D3E9002300F0B0FD5D
:104B180032463B4600F05EFF73A3D3E9002300F062
:104B2800A7FD32463B4600F055FF71A3D3E90023A9
:104B380000F09EFD32463B4600F04CFF6EA3D3E9E1
:104B4800002300F095FD32463B4600F043FF6CA37E
:104B5800D3E9002300F08CFD3246804689463B4667
:104B68003046394600F036FF02460B464046494675
:104B780000F030FFDDE9022306460F46DDE90401B7
:104B880000F076FDDDE9062300F024FF32463B46BF
:104B980000F06EFDDDE902678046894632463B46F5
:104BA8003046394600F016FF0022604BCDE90A0175
:104BB80000F05EFD42464B4600F05AFDDDE910BCB0
:104BC8000F46DDE902015A463B46CDE90EBC5E467A
:104BD80000F000FF0022CDE90201544B304639466F
:104BE80000F044FDDDE90A2300F040FD02460B46D3
:104BF8004046494600F03AFDDDE9042300F0EAFEAC
:104C0800324680468946DDE906013B4600F0E2FE71
:104C180002460B464046494600F02AFD8046894632
:104C280002460B46DDE9020100F022FDDDE90EBC7B
:104C380035A3D3E900235846CDE906BC5E460F46A6
:104C480000F0C8FEDDE90223CDE90401304639460B
:104C580000F00CFD02460B464046494600F006FDB2
:104C68002BA3D3E9002300F0B5FE2BA3D3E900233F
:104C7800804689463046394600F0ACFE02460B466F
:104C88004046494600F0F4FCDDE90C2300F0F0FC56
:104C980080465046894600F037FE06460F46DDE955
:104CA800040142464B4600F0E3FCDDE9082300F02E
:104CB800DFFC32463B4600F0DBFCDDE906BC324651
:104CC80058463B46DA468B4600F0D0FCDDE908231F
:104CD80030E000BFAFF30080EF4E454A287ECA3F60
:104CE80065DBC9934A86CD3F01411DA96074D13F58
:104CF8004D268F515555D53FFFAB6FDBB66DDB3F6A
:104D0800033333333333E33F000000E009C7EE3F9A
:104D1800FD033ADC09C7EE3FF5015B14E02F3EBE08
:104D28000000404379B60B000000F03F0000084047
:104D38008E98030000F09AFCDDE9042300F096FC4D
:104D480002460B464046494600F090FC804689469C
:104D5800DDE90012013C54EA050314BFD64CD74CD8
:104D68000023CDE904340B461446CDE90234002370
:104D78000293DDE9024508462B461146224600F01B
:104D880075FC52465B4600F025FEDDE90023064629
:104D98000F464046494600F01DFE02460B46304687
:104DA800394600F065FC06460F4622462B4650461B
:104DB8005946CDE9006700F00DFE0B4602468046D5
:104DC80089463046394600F053FCBD4B06469942A9
:104DD8000D460C4640F30E8101F13F4303F5E00315
:104DE800034340F0F081A0A3D3E90023DDE90001EB
:104DF80000F03EFC424682468B464B4630462946EA
:104E080000F034FC02460B465046594601F072F851
:104E1800002840F0D8812F463B154FF48012A3F2AA
:104E2800FE3342FA03F32344C3F30A52A54EA2F217
:104E3800FF321641C3F3130B0020C2F1140523EA15
:104E480006014BF4801B02460B46002C4BFA05FB6F
:104E580040464946B8BFCBF1000B00F007FC0246BC
:104E68000B4680468946DDE9000100F001FC4FEA67
:104E78000B5A00247EA3D3E9002320460D4600F0F8
:104E8800A9FD424606460F464B462046294600F0F5
:104E9800EDFB02460B46DDE9000100F0E7FB76A3D7
:104EA800D3E9002300F096FD75A3D3E900238046DB
:104EB80089462046294600F08DFD02460B464046AD
:104EC800494600F0D5FB8046894602460B463046E7
:104ED800394600F0CDFB32463B4604460D4600F00D
:104EE800C5FB02460B464046494600F0BFFB22463A
:104EF800804689462B462046294600F06BFD62A372
:104F0800D3E9002306460F4600F064FD60A3D3E909
:104F1800002300F0ABFB32463B4600F05BFD5EA38E
:104F2800D3E9002300F0A4FB32463B4600F052FDD3
:104F38005BA3D3E9002300F099FB32463B4600F01F
:104F480049FD59A3D3E9002300F092FB32463B46C2
:104F580000F040FD02460B462046294600F086FB3D
:104F680006460F4602460B462046294600F032FD0B
:104F78000022CDE900014FF080433046394600F069
:104F880075FB02460B46DDE9000100F04DFE424686
:104F980006460F464B462046294600F01BFD424672
:104FA8004B4600F065FB02460B463046394600F09A
:104FB8005DFB22462B4600F059FB02460B460020BB
:104FC8003D4900F053FB8A44BAF5801FC0F237818F
:104FD8005146DDE9042300F0FDFC834618E4F3465E
:104FE800354915E44A4648463B46394600F0F2FC46
:104FF80083460DE4344B21F000479F4240F3018182
:10500800324B0B4403430CD142464B4600F02EFB77
:1050180002460B46DDE9000100F058FF00283FF486
:10502800FBAE23A3D3E90023DDE9040100F0D2FCA1
:105038001FA3D3E9002300F0CDFC8346FFF7E8BBAC
:10504800BAF1000FBFF6AEACDDE900349B4604F1BF
:105058000041FFF7DDBB02460B460020164900F071
:10506800E3FD41E4AFF30080FE822B654715973CD2
:1050780000000000432EE63FEF39FAFE422EE63FDD
:10508800396CA80C615C20BED0A4BE726937663E3C
:10509800F16BD2C541BDBB3E2CDE25AF6A56113F30
:1050A80093BDBE166CC1663F3E5555555555C53F17
:1050B80059F3F8C21F6EA5010000F03F0000F0BFD1
:1050C800FFFF8F40FFFF0F00FFCB904000346F3F82
:1050D8006F4B9E427FF763AC6E4B9E423FF7EEAB41
:1050E80000226C4B00F0C2FA5BA3D3E9002306460A
:1050F8000F4600F06FFC5AA3D3E900238046894687
:105108003046394600F066FC002282468B46624BE8
:105118003046394600F05EFC02460B4652A1D1E902
:10512800000100F0A3FA32463B4600F053FC024669
:105138000B460020594900F099FA3246CDE90201A0
:105148003B463046394600F045FC02460B46DDE951
:10515800020100F03FFC46A3D3E9002300F03AFC2B
:1051680002460B465046594600F080FA02460B4666
:1051780006460F464046494600F07AFA42464B46F4
:10518800002082468B4600F071FA02460B463046F4
:10519800394600F06BFA80468946D9E5002200239B
:1051A800CDE90823CDE90C233A4B00220026CDE9AE
:1051B80006233DE44A463B460020364900F034FDCC
:1051C8008346FFF725BB2CA3D3E90023DDE90401BF
:1051D80000F000FC28A3D3E9002300F0FBFB834682
:1051E800FFF716BBBEF1000F7FF44FABC3F11403FA
:1051F80048FA03F202FA03F3984524D07446FFF7FD
:1052080021BB264B9F423FF707AEDDE902349A46A1
:105218009B462EE602460B46FFF7B9BB204B4FF4E0
:105228008026CDE9062316A3D3E90023CDE9082378
:1052380015A3D3E90023CDE90C23FFF7F9BB5A46A0
:1052480000F096F9C5E602F00102C2F10204FFF788
:10525800F9BA00BFAFF30080000000604715F73FC0
:1052680044DF5DF80BAE543E555555555555D53F61
:10527800FE822B654715F73F9C7500883CE4377E16
:105288000000004003B8E23F06D0CF43EBFD4C3EA0
:10529800FEFFEF3F0000F03F0000D03F0000E03F7E
:1052A8000000F83F2DE9F0415F4E0C46B6460E402F
:1052B8007645054600F0988000290B46024674DDC5
:1052C8005FEA215E7FD0AEF2FF3EC3F313031EF008
:1052D800010F43F4801363D100273E4603EBD271DC
:1052E8000B444FEA6E0E520016204FF4001174184A
:1052F8009C424FEAD2754FEA420202DC1B1B661839
:105308000F44013805EB43034FEA5101EFD18446BE
:1053180020244FF0004109E020D003EBD275013C76
:105328004FEA51012B444FEA420220D09E4201EB42
:105338000C05F1DA002D05EB010C09DBB0469542AE
:10534800A3EB060300D9013B4646521B0844E4E799
:10535800BCF1000FF2DB06F10108F0E7954217D81F
:10536800002D05EB010C49DB98460023ECE71343BD
:1053780010D140087B1003F17F5303F50013FA079F
:1053880003EB0E57394648BF40F00040BDE8F081B6
:105398003346C2E7411C35D000F001031844E8E762
:1053A8005B0003EBD273520096E721F000460643F8
:1053B800ECD079BB8E46D30AAEF1150E5205002B00
:1053C800F9D0DD0221D4002100E001465B00DC02B7
:1053D80001F10100F9D5C0F1200422FA04F42343B5
:1053E800C1EB0E0E82406EE702460B4600F0F2FA61
:1053F8002A46234600F03CF9BDE8F081BCF1000FD5
:10540800A9DAB1E701372046B4E720244FF0FF318D
:105418000020E2E702460B4600F028F902460B4658
:1054280000F002FCB2E700BF0000F07F21F000416D
:10543800704700BF41F0004101F58010C00F704770
:105448000020704700200149704700BF0000F87F26
:10545800F0B5C1F30A5EAEF2FF36132E83B00246F2
:105468000B460C464FEAD17507462EDC002E49DB69
:105478003D49314103EA010010432BD049080B4054
:1054880053EA02070CD04FF48023132E24EA0101BB
:1054980043FA06F444EA01040CBF4FF00047002722
:1054A800324B214603EBC505D5E90045384622466F
:1054B8002B4600F0DDF8CDE90001DDE900012246C8
:1054C8002B4600F0D3F803B0F0BD332E06DDB6F559
:1054D800806F45D01046194603B0F0BDAEF2134EAA
:1054E8004FF0FF3121FA0EF10842F3D04908084283
:1054F800D6D04FF0804320EA010143FA0EFE4EEA6F
:105508000107CDE721F0004101431946E4D0C3F378
:10551800130343EA000CCCF1000343EA0C0C134BD1
:10552800640C4FEA1C3C0CF4002C03EBC503640428
:10553800D3E900674CEA040132463B4600F098F88C
:10554800CDE90001DDE9000132463B4600F08EF866
:10555800024621F0004141EAC57310461946BBE7EF
:1055680000F086F8B8E700BFFFFF0F00C07B08080F
:10557800F8B5C1F30A5604460D460B46174606BB56
:1055880021F00043034325D000222F4B00F022FADC
:105598002E4A044697420D460B462ADBC1F30A56AB
:1055A800363E40F2FE723E44964228DC002E12DD62
:1055B80023F0FF4323F4E00343EA06552046294637
:1055C800F8BD40F2FF729642EBD102460B4600F05E
:1055D8004FF8F8BDF8BD16F1350F1DDA4CF250330F
:1055E8009F420CDC14A1D1E9000122462B4600F0B1
:1055F80031F811A3D3E9002300F0ECF9F8BD2246F5
:105608000FA1D1E900012B4600F024F80CA3D3E93F
:10561800002300F0DFF9F8BD23F0FF4323F4E00393
:10562800363643EA0655204629460022084B00F044
:10563800D1F9F8BDAFF3008059F3F8C21F6EA50188
:105648009C7500883CE4377E00005043B03CFFFF67
:105658000000903C03F0004321F0004242EA0301BD
:10566800704700BF81F0004102E000BF83F00043B3
:1056780030B54FEA41044FEA430594EA050F08BFE5
:1056880090EA020F1FBF54EA000C55EA020C7FEAA9
:10569800645C7FEA655C00F0E2804FEA5454D4EB26
:1056A8005555B8BF6D420CDD2C4480EA020281EAF0
:1056B800030382EA000083EA010180EA020281EA28
:1056C8000303362D88BF30BD11F0004F4FEA01317A
:1056D8004FF4801C4CEA113102D0404261EB410189
:1056E80013F0004F4FEA03334CEA133302D052420F
:1056F80063EB430394EA050F00F0A780A4F10104CB
:10570800D5F1200E0DDB02FA0EFC22FA05F2801804
:1057180041F1000103FA0EF2801843FA05F35941EA
:105728000EE0A5F120050EF1200E012A03FA0EFC69
:1057380028BF4CF0020C43FA05F3C01851EBE37193
:1057480001F0004507D54FF0000EDCF1000C7EEBB0
:1057580000006EEB0101B1F5801F1BD3B1F5001FEE
:105768000CD349085FEA30004FEA3C0C04F101040D
:105778004FEA445212F5800F80F09A80BCF1004F36
:1057880008BF5FEA500C50F1000041EB045141EAB8
:10579800050130BD5FEA4C0C404141EB010111F4B9
:1057A800801FA4F10104E9D191F0000F04BF014664
:1057B8000020B1FA81F308BF2033A3F10B03B3F142
:1057C80020020CDA0C3208DD02F1140CC2F10C02D2
:1057D80001FA0CF021FA02F10CE002F11402D8BF30
:1057E800C2F1200C01FA02F120FA0CFCDCBF41EAFC
:1057F8000C019040E41AA2BF01EB0451294330BDCB
:105808006FEA04041F3C1CDA0C340EDC04F11404A7
:10581800C4F1200220FA04F001FA02F340EA03007E
:1058280021FA04F345EA030130BDC4F10C04C4F1C4
:10583800200220FA02F001FA04F340EA03002946A4
:1058480030BD21FA04F0294630BD94F0000F83F4EE
:10585800801306BF81F480110134013D4EE77FEAD1
:10586800645C18BF7FEA655C29D094EA050F08BF1D
:1058780090EA020F05D054EA000C04BF19461046FE
:1058880030BD91EA030F1EBF0021002030BD5FEA42
:10589800545C05D14000494128BF41F0004130BD6A
:1058A80014F580043CBF01F5801130BD01F00045BE
:1058B80045F0FE4141F470014FF0000030BD7FEA31
:1058C800645C1ABF194610467FEA655C1CBF0B462C
:1058D800024650EA013406BF52EA033591EA030F43
:1058E80041F4002130BD00BF90F0000F04BF00213B
:1058F800704730B54FF4806404F132044FF000056E
:105908004FF0000150E700BF90F0000F04BF0021E6
:10591800704730B54FF4806404F1320410F000454C
:1059280048BF40424FF000013EE700BF42004FEA47
:10593800E2014FEA31014FEA02701FBF12F07F43C4
:1059480093F07F4F81F06051704792F0000F14BFC1
:1059580093F07F4F704730B54FF4607401F0004505
:1059680021F0004120E700BF50EA010208BF70475C
:1059780030B54FF000050AE050EA010208BF704751
:1059880030B511F0004502D5404261EB41014FF4BA
:10599800806404F132045FEA915C3FF4DCAE4FF0BE
:1059A80003025FEADC0C18BF03325FEADC0C18BFA5
:1059B800033202EBDC02C2F1200300FA03FC20FAF6
:1059C80002F001FA03FE40EA0E0021FA02F1144443
:1059D800C1E600BF70B54FF0FF0C4CF4E06C1CEA58
:1059E80011541DBF1CEA135594EA0C0F95EA0C0FCD
:1059F80000F0DEF82C4481EA030621EA4C5123EA40
:105A08004C5350EA013518BF52EA033541F480116E
:105A180043F4801338D0A0FB02CE4FF00005E1FB21
:105A280002E506F00042E0FB03E54FF00006E1FB6B
:105A380003569CF0000F18BF4EF0010EA4F1FF04AE
:105A4800B6F5007F64F5407404D25FEA4E0E6D41EE
:105A580046EB060642EAC62141EA55514FEAC520FF
:105A680040EA5E504FEACE2EB4F1FD0C88BFBCF57B
:105A7800E06F1ED8BEF1004F08BF5FEA500E50F12C
:105A8800000041EB045170BD06F0004646EA0101F2
:105A980040EA020081EA0301B4EB5C04C2BFD4EB24
:105AA8000C0541EA045170BD41F480114FF0000E1D
:105AB800013C00F3AB8014F1360FDEBF002001F08B
:105AC800004170BDC4F10004203C35DA0C341BDC05
