:020000040808EA
:10000000000008082C590808000006000A00050135
:0800100004024E040000000090
:10001800A84F080809480A4908B5884205D0094A7E
:10002800824202D0121A04F0F9FA0748074A00215E
:10003800121A04F0FEFA064808BD00BF00040020AA
:1000480014580808F0040020F0040020580C002080
:10005800580C002070B502F0EDFF074B074C1E4608
:10006800E41AA4080025A54204D056F8253098477C
:100078000135F8E770BD00BFD05708080C580808CC
:1000880000F0A4BD08B500F05BFABDE8084002F036
:1000980093BF01F003BC01F009BC0078B0FA80F00E
:1000A800400970470123037070470000014B01228B
:1000B8001A707047C905002008B5044902F0F9FC18
:1000C80018B1034B03221A70012008BD20540808F8
:1000D8003105002001F09EB901F0A4B937B50546F5
:1000E8009DF8184023438DF800303C2301F0CCFEE6
:1000F800284603B030BD000030B58FB0104904A8C1
:1001080001F078FC04A801F0D0FC044604A801F032
:100118002BFD054604A801F00FFD03F089FBCDE98E
:100128000201284603F084FBCDE90001054B064A8D
:1001380053F824304021054801F0D8FB0FB030BDFA
:100148000406002018040020FC4F0808440500207D
:1001580007B5334800F0EAFF324B186003F068FB3C
:10016800314ACDE900011021304801F0BFFB2C488D
:1001780000F0EEFF2E4B186003F05AFB2D4ACDE934
:10018800000110212C4801F0B1FB2C4801F0B4F813
:10019800642001F0C3FB294801F0B2F8284B18602D
:1001A80003F046FB274ACDE900011021264801F05B
:1001B8009DFB224801F0B4F8244B186003F038FB8B
:1001C800194ACDE900011021214801F08FFB1B4895
:1001D80001F0B6F81F4B186003F02AFB154ACDE969
:1001E800000110211C4801F081FB1C4B0022114624
:1001F800586801F01BFB08B1FFF77EFF184801F0B3
:10020800F3FF04F09FF8174A034610601021164ABE
:10021800164801F06BFB012003B05DF804FB00BF3A
:1002280010050020BC05002015500808F404002023
:100238001C0500201D500808D0050020CC05002012
:100248008C05002026500808AC0500203805002041
:10025800F3050020200500209C050020040600204E
:10026800280500204005002031500808E10500203D
:100278002DE9D0431A4800231A461946406801F070
:10028800DDFA40F2E73601F079FA4FF49674002768
:10029800002001F0DFF880464FF00009002001F04F
:1002A800D9F8B0EB080061EB09018F4208BF86421C
:1002B80005D301F073FA10B901F058FAEEE701F02E
:1002C8006DFA18B1BDE8D04301F068BA01F08AF8B8
:1002D800044B186001F04AFA013CF3D0D8E700BF9C
:1002E800040600201C0B002008B501F04FFA064850
:1002F80000231A461946406801F0A8FA4FF47A70AC
:1003080001F00CFB012008BD040600201FB51F48A2
:1003180002F0EAF81D4802F094FA1D4B1C781D4BB8
:10032800BCB1142241F2E82118481A6002F05EF9C3
:100338004FF46171154802F0E3F900221146029268
:10034800019200920123114802F022FA41F2700151
:1003580016E01E2241F270010C481A6002F046F9BC
:1003680040F2DC51094802F0CBF9012321460294FE
:10037800019400941A46054802F00AFA41F2100165
:10038800024804B0BDE8104002F035BA320500203A
:10039800E00500200405002008B501F023F8054B0E
:1003A8001B68C01A044B1B68984234BF0020012008
:1003B80008BD00BF340500201004002008B5FFF771
:1003C800EBFF18B1BDE80840FFF7E6BF01F0CEF932
:1003D800F5E7000037B501F0D9F901F003F843F665
:1003E8009725044601F0DAF940B100F0FBFF001B45
:1003F800A84203D8642001F091FAF3E70021094BE1
:1004080047F23052084600F0BDFF4FF47A7001F011
:1004180085FA054B0A221B680121684602F07CFB1D
:1004280003B030BD375008089005002008B50121F9
:10043800062002F060FE0021062002F05CFE024B5E
:1004480000221A7008BD00BFC905002038B504682D
:1004580005467CB16368013B63605BB9236820464D
:100468009B689847A368013BA3601BB92368204693
:10047800DB689847284638BD10B5234BD0B01B68B9
:1004880000240C93214B1B680B93214B1B680A9388
:10049800204B186803F0CCF9CDE908011E4B186809
:1004A80003F0C6F9CDE906011C4B186803F0C0F942
:1004B800CDE904011A4B186803F0BAF9CDE9020135
:1004C800184B186803F0B4F9174ACDE900014FF446
:1004D800807110A801F00AFA144B10AA1B7814496D
:1004E8000EA88DF80040FFF7F9FD0FA8FFF7AEFF43
:1004F80002F0DCFB0F4B187002F0ECFB0E4B18708F
:100508000E4B1C7050B010BD3C0500208405002027
:100518004005002020050020380500208C0500201B
:100528001C050020BC050020445008080C050020CC
:10053800D650080888050020330500200004002054
:100548007FB5A14C2378013B052B00F28381DFE8BE
:1005580013F0190106002C0042007D00AF009B4BF0
:100568001B780BB1FFF762FF994B1B7863B9994B66
:100578001B784BB100F036FF974B1A68974B1B68F6
:1005880013448342C0F0638102F090FB944B1B78C4
:1005980098421CBF03232370924B1A68924B1B6826
:1005A8009A4200F35781052313E0FFF7D1FD054672
:1005B80070B9012323708D4B1B78002B00F04A8102
:1005C800FFF7FCFE8A4B8B4A1B788DF80050CEE073
:1005D800062323703EE1884B1C781D4664BB01F05E
:1005E800DDF8D0B1814B1B788BB1FFF7E7FE804B6C
:1005F800824A1B78824902A88DF80040FFF76EFDF9
:1006080003A8FFF723FF00F0EDFE7E4B18604FF4C0
:100618007A7001F083F9FFF767FE02F0BBFD7A4BB1
:1006280002201978FFF758FD784B00210720197030
:1006380002F061FD01232B7002F042FB744BC0F104
:100648003C003C221B68424302212DE001F0A6F841
:10065800D8B1664B1B7893B1FFF7B0FE644B00220C
:100668001B7867498DF8002002A86A4AFFF736FD13
:1006780003A8FFF7EBFE00F0B5FE624B18604FF4DD
:100688007A7001F04BF9FFF72FFE604B002107202D
:10069800197002F030FD02F013FB3C22C0F13C005F
:1006A8005B4B42431B68012102A802F035FAD1E0F6
:1006B80001F074F810B9FFF7DBFDCBE0444D2B785F
:1006C800EBB94A4B1B788BB1FFF778FE484B524A7F
:1006D8001B784B498DF8003002A8FFF7FFFC03A8F0
:1006E800FFF7B4FE00F07EFE464B186000F07AFE7D
:1006F8004A4B186001232B70FFF7BEFEAAE0484B57
:100708001E78F6B1394B1B7893B1FFF757FE384B7B
:1007180000221B783A498DF8002002A8414AFFF7C9
:10072800DDFC03A8FFF792FE00F05CFE354B186075
:100738000223237000232B7000F054FE264B186010
:1007480088E000F04FFE354B1A68374B1B6813449E
:1007580098427FD301232370244B1B78002B79D038
:10076800FFF72CFE224B314A1B788DF80060244994
:1007780002A8FFF7B3FC03A8FFF768FE00F032FEFB
:10078800204BDCE700F02EFE294B1A68294B1B682A
:10079800134498425ED9164B00241B78264A184900
:1007A80002A88DF80040FFF799FC03A8FFF74EFE5A
:1007B8004FF4FA6001F0B2F8134B1B68032B3DDCD1
:1007C80002F0A6F946E000BF31050020C905002067
:1007D800C80500209A050020C00500200C04002050
:1007E8008805002040050020040500209B05002006
:1007F8000C050020E9500808F205002009510808F6
:100808000351080834050020840500203005002025
:1008180090050020185108082F51080808050020E5
:100828000004002039510808140400203E5108082B
:10083800C4050020040400205A51080802F0AAFC4C
:1008480021460220FFF748FCFFF7C4FD02E004231D
:10085800237099E604B070BDF0B585B0084602AFC4
:100868000D4603F044FF00F1080323F007036E462A
:10087800ADEB030D02AC421C2946204603F054FFA1
:100888009DF80820144D22B92B788DF80020134AC2
:1008980016E0204603F0B8FDC838002201282B785E
:1008A8008DF800200BD80E4A0E493846FFF716FC83
:1008B800381DFFF7CBFD0C4B01221A7007E02246CA
:1008C80038460A49FFF70AFC381DFFF7BFFDB54651
:1008D8000C37BD46F0BD00BF0C050020725108085A
:1008E8008751080803510808000400207A510808B5
:1008F80030B5244985B0054602F0DBF80446D0B18E
:10090800214B01241C7002F045FC0420FFF7E2FB98
:100918001E4D40F00400287002F03CFC29780420A9
:10092800FFF7DAFBFFF7F2FC194B00221B788DF872
:100938000020184A1CE01849284602F0BAF8F8B115
:10094800114B124D1C7002F025FC0420FFF7C2FB6E
:1009580020F00400287002F01DFC29780420FFF71D
:10096800BBFBFFF7D3FC0A4B0C4A1B788DF8004001
:100978000B4902A8FFF7B2FB03A8FFF767FD0120A8
:1009880005B030BD20540808E0050020F10500201E
:100998000C05002099510808B0510808B251080800
:1009A800C851080830B5224985B0054602F081F8DB
:1009B8000446C0B11F4B01241C7002F0EBFB04205D
:1009C800FFF788FB1C4D40F00800287002F0E2FB9E
:1009D80029780420FFF780FB184B00221B788DF83C
:1009E8000020174A1AE01749284602F062F8E8B1D1
:1009F800104B114D1C7002F0CDFB0420FFF76AFB71
:100A080020F00800287002F0C5FB29780420FFF7C1
:100A180063FB0A4B0C4A1B788DF800400B4902A86F
:100A2800FFF75CFB03A8FFF711FD012005B030BDFF
:100A3800205408089B050020F10500200C05002023
:100A4800CD510808B0510808DE510808C8510808F7
:100A580070B5CCB00A2205A9006803F0FFFEC5B244
:100A680005F10C03DBB2182B3DD844B2204603F045
:100A78004FFA02F0B5F802F08DFB29460320FFF784
:100A88002BFB02F00CF9194E194D23463060194A18
:100A98004FF4807100240CA800F028FF2B780CAAD2
:100AA800154908A88DF80040FFF718FB09A8FFF7BB
:100AB800CDFC4FF47A7000F031FF316808A802F0DD
:100AC800ABF8089B0C490393039A2B7806A88DF87A
:100AD8000040FFF703FB07A8FFF7B8FC08A801F0E0
:100AE80074FF012000E000204CB070BD24050020F8
:100AF8000C050020F3510808075208087FB526495D
:100B0800054601F0D6FF28B92449284601F0D1FF4F
:100B180000283FD002F03EFB0420FFF7DBFA204C10
:100B28001D492070284601F0C4FF0646A0B11D4BA0
:100B380000221B781C498DF8002002A81B4AFFF7E9
:100B4800CDFA03A8FFF782FC2378012243F00103C2
:100B58002370174B1A7016E01049284601F0A9FFB8
:100B680088B1104B134A1B780F4902A88DF8006012
:100B7800FFF7B4FA03A8FFF769FC237803F07E03B4
:100B880023700B4B1E7002F005FB04202178FFF741
:100B9800A3FA012004B070BD20540808B051080819
:100BA800F10500200C050020C85108080C5208085F
:100BB8009A050020165208080023042200F0C6BD3A
:100BC8000246014801F040B8251C0808F0B5B9B044
:100BD80008AA1646904B03F1100514461868596880
:100BE800083303C4AB422246F7D119889B782D22DB
:100BF8002180A37000210DF1330003F01AFD874B0B
:100C08000225012107201D7002F064FA0021052049
:100C180002F060FA0121062002F05CFA04A8002420
:100C280000F0C4FD00237D2218A904A801F053FF99
:100C3800234622467A490194009418A800F0C6FD7C
:100C480078497948FFF7B8FF23462A467749784814
:100C580000F07CFD7749234604220968764800F0B5
:100C680075FD76497648FFF7A7FF234601227549A7
:100C7800754800F06BFD75497548FFF79DFF75498C
:100C88007548FFF799FF75497548FFF795FF75494E
:100C98007548FFF791FF75497548FFF78DFF75494E
:100CA8007548FFF78DFF75497548FFF789FF754946
:100CB8007548FFF785FF75497548FFF781FF754946
:100CC8007548FFF77DFF02F065FA2046FFF702FA44
:100CD800012819D102F05EFA0220FFF7FBF9534C04
:100CE80000222060114602A8029200F06BFB029BD2
:100CF800142B1ED123680133236002F04BFA2178AC
:100D08000220FFF7E9F914E002F044FA0125042271
:100D180002A92046029500F08DFB02F03BFA284616
:100D2800042202A90135029400F084FB0A2DF4D1B3
:100D3800D0E72368052B07DD02F02CFA04210220F6
:100D4800FFF7CAF9FFF746FB02F024FA0320FFF782
:100D5800C1F900F10C03DBB2182B03D840B203F041
:100D6800D7F800E0002001F03BFF02F013FA04205E
:100D7800FFF7B0F9494F334C00F00103484DC0F379
:100D8800800238702370C0F3C000464B632128707E
:100D980045481A7000F043FAFFF7B8FAFFF7D8F998
:100DA800052002F0C1F950B93B78207023F0010307
:100DB8003B7002F0EFF904213878FFF78DF92378BA
:100DC8003BB93A4B1A683A4B1B689A4201DBFFF76A
:100DD8004FFA0024FFF74CFA4FF0FF33009401223A
:100DE8003449112001F09CFA2B785BB1324B02A8F0
:100DF8001B7832468DF800403049FFF76FF903A899
:100E0800FFF724FB00F0EEFA2D4B186004A801F060
:100E1800DCFD39B0F0BD00BFBC4F0808310500202B
:100E280061080808440500202852080884050020A5
:100E38002F520808080400203A520808E10500204B
:100E4800425208089A0500204D520808F404002070
:100E58005A520808D005002066520808AC05002040
:100E68006F520808F30500207C5208089C050020F2
:100E780085520808C100080893520808050B08089D
:100E88009F520808F9080808AC520808AD09080874
:100E9800B7520808590A0808C4520808F105002082
:100EA8009B050020E0050020CC050020400500201F
:100EB80004050020B50008080C050020D0520808D9
:100EC800340500201C4B70B500241C601B4B012509
:100ED8001D7000F0C7FA22212322194800F040F8BB
:100EE800184800F099F94FF6FF72174B02201C7052
:100EF8005C809A8000F0DEFB2146284600F0F2FB79
:100F08002946124D042000F04DFA114E214628467C
:100F180001F02AF928460F4D32460F4902F0D4F95C
:100F28002146284601F0F7FA32462846BDE87040C7
:100F38000A4902F0C9B900BF900500200C0500203D
:100F480010050020CC05002094050020280500206D
:100F5800F0040020320500208F2108083D250808EC
:100F680080E8060070472DE9F04100250F469846B5
:100F78002C4696B2454511DA0121304602F0BBF8FD
:100F88000A2000F0CBFCB8B202F0CEF864000444AA
:100F98000021304602F0AFF80135EBE72046BDE806
:100FA800F0812DE9F0411F461646884694B2BDB23D
:100FB8002046012102F08EF82846012102F08AF825
:100FC8002046012102F097F82846012102F093F803
:100FD8002046002102F08FF82846002102F08BF805
:100FE8002846012102F087F82046012102F083F803
:100FF8002846002102F07FF85FFA88F30122F9B24F
:10100800F0B202F0A4F82846012102F074F8002199
:10101800204602F05FF8204602F086F828460021B4
:1010280002F069F82046BDE8F04102F07DB838B515
:101038008DB22846002102F04DF864240A2000F001
:101048006DFC284602F070F808B1013CF6D138BDB5
:101058002DE9F843164680460D468CB2B7B22046B5
:10106800002102F037F83846012102F033F8324601
:10107800082329464046FFF776FF01214FEA002959
:10108800204602F027F82046012102F034F82046D5
:10109800002102F030F83846012102F02CF83846D9
:1010A800002102F028F82046002102F013F8082356
:1010B800324629464046FFF756FF49EA0000BDE898
:1010C800F88338B514468DB2A4B22846012102F03F
:1010D80001F82046012101F0FDFF2846012102F018
:1010E8000AF82046012102F006F82046BDE83840FB
:1010F800002102F000B838B5044690E80C0003213E
:10110800FFF74FFF21682046FFF791FF94E806009C
:101118002046FFF79DFF94E8060005462046FFF7A6
:10112800D0FF284602F0F4FE38BD000008B5FFF7EE
:10113800E2FF03F007F902F0EBFE034902F03CFF7F
:10114800024902F02FFE08BD0AD7233C00002042C6
:10115800F8B5044690E80C000521FFF722FF216846
:101168002046FFF764FF94E806002046FFF770FF6B
:1011780094E8060005462046FFF7A3FF284602F03C
:10118800C7FE1F49054602F017FF4FF0814102F0E4
:1011980009FE1C490646284602F00EFF294602F0C1
:1011A8000BFF0146304602F0FFFD06462046FFF7DA
:1011B800BDFF15490746284602F0FEFE134902F016
:1011C800F3FD02F035FB044638460D4602F030FBCD
:1011D80000220F4B02F0CCF902460B462046294666
:1011E80002F07AFB044630460D4602F021FB024627
:1011F8000B462046294602F0BDF902F07FFDF8BDF6
:1012080054E3253DA2E73BB6ACC5A7380AD7233C33
:101218000000394000F026B963230360704708B521
:10122800016001F0CBFF01F041F808BD10B504469C
:1012380001F0C4FF00230122216801F046F801F003
:10124800BDFF03681B699847002806DD01F0B6FF5B
:10125800BDE8104003685B6918474FF0FF3010BDC8
:1012680037B504460D4601F0A9FF216801F036F8AC
:1012780001F0A4FF036829469B68984701F09EFF88
:1012880001F033F801F09AFF02222168002301F0EF
:101298001CF80023ADF8063001F090FF03681B69C5
:1012A800984701280DDD01F089FF03685B699847BD
:1012B8008DF8060001F082FF03685B6998478DF896
:1012C8000700BDF9060003B030BD38B504460D4629
:1012D80001F074FF216801F001F801F06FFF036865
:1012E80029469B68984701F069FF00F0FEFF2046F9
:1012F800BDE83840FFF79ABF0121FFF7E6BF0000BD
:1013080008B50321FFF7ACFF02F080FA0022034B77
:1013180002F00CFC02F0F2FC08BD00BF0000244003
:1013280008B50421FFF79CFF02F070FA0022034B76
:1013380002F0FCFB02F0E2FC08BD00BF00005940CF
:1013480008B50521FFF78CFF02F060FA0022034B75
:1013580002F0ECFB02F0D2FC08BD00BF0000244004
:1013680000F080B808B5024B1B68DB6B019308BD21
:101378002000060808B5024B1B685B6C019308BD8A
:101388002000060808B5024B1B689B6C019308BD3A
:101398002000060808B5024B1B681B6B019308BDAB
:1013A800D001040808B5024B1B685B6E019308BDA9
:1013B800B801040808B5024B1B689B6E019308BD71
:1013C800B801040808B5024B1B68DB6E019308BD21
:1013D800B801040808B5024B1B685B68019308BD97
:1013E8009C01040808B5024B1B685B69019308BDA2
:1013F8009C01040808B5024B1B68DB69019308BD12
:101408009C01040808B5024B1B689B6A019308BD40
:101418009C01040808B5024B1B68DB6A019308BDF0
:101428009C01040808B5024B1B681B6B019308BD9F
:101438009C01040808B5024B1B689B6C019308BD0E
:101448009C01040808B5024B1B689B6D019308BDFD
:101458009C01040808B5024B1B68DB6D019308BDAD
:101468009C01040808B5024B1B681B68019308BD62
:10147800B001040808B5024B1B689B68019308BDBE
:10148800B001040808B5024B1B68DB68019308BD6E
:10149800B001040808B5024B1B681B69019308BD1D
:1014A800B001040808B5024B1B685B69019308BDCD
:1014B800B001040808B5024B1B689B69019308BD7D
:1014C800B001040808B5024B1B68DB69019308BD2D
:1014D800B001040808B5024B1B68DB68019308BD1E
:1014E800AC01040808B5024B1B685B69019308BD91
:1014F800AC01040808B5024B1B689B69019308BD41
:10150800AC01040808B5024B1B68DB69019308BDF0
:10151800AC01040808B5024B1B681B6A019308BD9F
:10152800AC01040808B5024B1B685B6A019308BD4F
:10153800AC01040808B5024B1B689B6A019308BDFF
:10154800AC01040808B5024B1B68DB6A019308BDAF
:10155800AC01040808B5024B1B681B6B019308BD5E
:10156800AC01040808B5024B1B685B6B019308BD0E
:10157800AC01040808B5024B1B681B6C019308BD3D
:10158800AC01040808B5024B1B689B6C019308BDAD
:10159800AC01040808B5024B1B68DB6C019308BD5D
:1015A800AC01040808B5024B1B68DB69019308BD50
:1015B800B401040808B5024B1B681B6A019308BDF7
:1015C800B401040808B5024B1B689B69019308BD68
:1015D800C401040808B5024B1B685B6A019308BD87
:1015E800C401040808B5024B1B689B6A019308BD37
:1015F800C401040808B5024B1B68DB6A019308BDE7
:10160800C401040808B5024B1B681B6B019308BD95
:10161800C401040808B5024B1B685B6B019308BD45
:10162800C401040808B5024B1B689B6B019308BDF5
:10163800C401040808B5024B1B681B6C019308BD64
:10164800C401040808B5024B1B681B68019308BD58
:101658001C00060808B5024B1B681B69019308BDEE
:101668001C00060808B5024B1B685B69019308BD9E
:101678001C00060808B5024B1B689B69019308BD4E
:101688001C00060808B5024B1B68DB69019308BDFE
:101698001C00060808B5024B1B681B6A019308BDAD
:1016A8001C00060808B5024B1B681B68019308BD9F
:1016B800A401040808B5024B1B685B68019308BDC8
:1016C800A401040808B5024B1B685B69019308BDB7
:1016D800A401040808B5024B1B689B69019308BD67
:1016E800A401040808B5024B1B68DB6A019308BD16
:1016F800A401040808B5024B1B68DB6C019308BD04
:10170800A401040808B5024B1B685B6D019308BD72
:10171800A401040808B5024B1B689B6D019308BD22
:10172800A401040808B5034B1B68D3F89030019353
:1017380008BD0000A401040808B5034B1B68D3F8D2
:101748009C30019308BD0000A401040808B5024BB1
:101758001B681B68019308BDCC01040808B5024B3F
:101768001B685B68019308BDCC01040808B5024BEF
:101778001B689B68019308BDCC01040808B5024B9F
:101788001B68DB68019308BDCC01040808B5024B4F
:101798001B681B69019308BDCC01040808B5024BFE
:1017A8001B685B69019308BDCC01040808B5024BAE
:1017B8001B68DB69019308BDCC01040808B5024B1E
:1017C8001B681B6A019308BDCC01040808B5024BCD
:1017D8001B685B6A019308BDCC01040808B5024B7D
:1017E8001B681B6B019308BDCC01040808B5024BAC
:1017F8001B68DB6B019308BDCC01040808B5024BDC
:101808001B685B68019308BDC801040808B5024B52
:101818001B689B68019308BDC801040808B5024B02
:101828001B68DB68019308BDC801040808B5024BB2
:101838001B681B69019308BDC801040808B5024B61
:101848001B685B69019308BDC801040808B5024B11
:101858001B689B69019308BDC801040808B5024BC1
:101868001B68DB69019308BDC801040808B5024B71
:101878001B681B6A019308BDC801040808B5024B20
:101888001B681B6B019308BDC801040808B5024B0F
:101898001B685B6B019308BDC801040808B5024BBF
:1018A8001B681B68019308BDA001040808B5024B1A
:1018B8001B685B68019308BDA001040808B5024BCA
:1018C8001B689B68019308BDA001040808B5024B7A
:1018D8001B681B69019308BDA001040808B5024BE9
:1018E8001B689B69019308BDA001040808B5024B59
:1018F8001B68DB69019308BDA001040808B5024B09
:101908001B68DB6A019308BDA001040808B5024BF7
:101918001B681B6B019308BDA00104080021FFF799
:10192800D1BE10B5836804460BB901F0D2FCC36878
:101938009847A3681BB103222146204698472046B2
:10194800BDE81040FEF7A7BB002211464068FFF72C
:101958006DBF2DE9FF41002604AC054610468846B8
:10196800174644F8046D02F0C2FE009681B2D8F81A
:10197800043022463846FFF7F5FC20B131462846A8
:1019880000F028FD03E02146284600F01BFD28460C
:1019980004B0BDE8F081002211464068FFF766BF39
:1019A800002211464068FFF771BF00224068FFF728
:1019B80065BF002281F001014068FFF74FBF002397
:1019C8001A4619464068FFF741BF00231A461946D0
:1019D8004068FFF733BF002211464068FFF716BF83
:1019E800002202214068FFF719BF00231A46406809
:1019F800FFF704BFF0B50F461A4B00250360182601
:101A0800283389B043608560C5603246294604465C
:101A1800103002F00EFE2A4629467868FFF706FFC6
:101A280008B9A0601BE02946324602A80095019536
:101A380002F0FFFD02A96846ADF80860FFF79AFCBE
:101A480010B10123A3600AE0009B019AA360E26041
:101A58000BB90223A36002A9204600F09DF8204696
:101A680009B0F0BD4853080838B50C4C28252A465B
:101A78000021204602F0DDFD4FF0FF336360258032
:101A8800074C042320466360064B2C2540F8083B8E
:101A98002A46002102F0CDFD258138BD38060020F8
:101AA80004060020145308087047007D70470000A2
:101AB80008B5037D1BB18069B0F1004F01D100204A
:101AC80008BD02F025FA024902F02AFB08BD00BF52
:101AD8000000C84208B5037D1BB1006AB0F1004F91
:101AE80001D1002008BD02F013FA024902F018FBE8
:101AF80008BD00BF0000C84270B50D4606460A2260
:101B08008168284600F02BFF2C210446284600F067
:101B1800D5FE0A220444F168284600F020FF20443C
:101B280070BDA0F10400FFF7E7BF10B50446FEF74B
:101B3800B2FA204610BD000008B5037D5BB1406ACB
:101B4800002808DB02F0E4F9044902F0E9FA044944
:101B580002F032FA08BD034808BD00BF00FF7F4706
:101B68000000C842000080BF08B5037D5BB1C069B2
:101B7800002808DB02F0CCF9044902F0D1FA044944
:101B880002F01AFA08BD034808BD00BF00FF7F47EE
:101B98000000C842000080BF30B50D4600F11004B7
:101BA8000FCD0FC495E8030084E80300012030BD81
:101BB80070470020704710B50446FEF76CFA2046BF
:101BC80010BD08B508B1FFF7F6FF08BD10B583686A
:101BD800044613B1032201469847204610BD38B584
:101BE800C468D4B12378022B02D1E068FFF75EFE07
:101BF80065682DB12846FFF7E9FF2846FEF74BFA3E
:101C0800A5682DB12846FFF7E1FF2846FEF743FAFD
:101C18002046BDE83840FEF73EBA38BD10B588B05A
:101C28000446684600F018FF694604A800F036FF2D
:101C380004A8A047044604A800F0C7FE684600F0C0
:101C4800C4FE204608B010BDF0B507460E4615463E
:101C580085B0102422460021684602F0EAFC0022E2
:101C680069461046ADF80040029703960195FFF7C4
:101C780075FD05B0F0BD13B5044691E805000023D5
:101C88004B600B602060626001A801930093FEF72F
:101C9800DDFB204602B010BD0B68036013B15A6823
:101CA80001325A607047F7B50C4606460F4654F89D
:101CB800043B02AD45F8083D214601A8FFF7ECFFBB
:101CC80029463046FFF7D7FF01A8FEF7BFFB20469D
:101CD800FEF7BCFB3846FEF7DEF9304603B0F0BD30
:101CE80013B50B46044603C88DE8030093E80300C8
:101CF80084E803009DE8030083E8030002B010BDF8
:101D0800826810B50AB901F0E4FAC368BDE810406A
:101D1800184708B5006800F11001FFF7F1FF08BD8A
:101D2800826810B50AB901F0D4FAC368BDE810405A
:101D3800184708B5006800F11001FFF7F1FF08BD6A
:101D480038B5002383608B6804460D462BB1022208
:101D58009847EB68E360AB68A360204638BD000095
:101D68002DE9F0414FF69C7304684FF0020086B0ED
:101D7800B1F904208B8000230F688DF800300B60C8
:101D8800D4E84F1F994203D1C4E8450F002DF7D17D
:101D980002D08DF800106BE014F10C051CBFE76051
:101DA8002282BFF35F8F18BF1F4601236370BFF302
:101DB8005F8F04F10803002053E8006F43E8000236
:101DC800002AF9D1BFF35F8F002E51D0FFF792FCA4
:101DD80020B129463046FFF793FF43E03146684675
:101DE800FFF7AEFFE068B4F9105008B102F064FCE8
:101DF80004901020ADF81450FEF74BF9054630B3A7
:101E08004FF00008C0F808801820FEF742F9044691
:101E1800C0B1C0F8088001466846FFF761FF029B21
:101E2800A268A360039B0292E268E360BDF81430E5
:101E38000392A3824FF69C73ADF81430049BCDF83F
:101E4800108023610D4B2C60EB600D4BAB60049848
:101E5800FFF72CFD6846FFF7B9FE0022294609481E
:101E6800FFF750FC3046FFF7B1FE3046FEF713F996
:101E78003846FFF71BFD06B0BDE8F0811B1D0808BA
:101E8800791F08082B1908082DE9F04F8BB007AD0A
:101E98004FF0000B0646994614200C230F46904637
:101EA8009DF850A0C5F804B0C5F808B00793FEF730
:101EB800F0F8044638B180F800B080F801B0C0F8F6
:101EC80004B0C0F808B00023102003940493FEF770
:101ED800E0F828B1012343608360234BC4600360AA
:101EE800224B049008200893FEF7D3F8044628B143
:101EF800039B04A940F8043BFFF7CEFE00955FFA68
:101F08008AF34A46414638460994FFF757FCB8B960
:101F1800039B5B7803F0FF0293B94FF69C7305A906
:101F280003A80592ADF81830FFF71AFF0598FFF7D8
:101F3800BDFC05A80999FFF7B6FE06A8FEF786FAC4
:101F4800039B04A906A80593FFF7A6FE05A930463A
:101F5800FFF791FE06A8FEF779FA04A8FEF776FACD
:101F680030460BB0BDE8F08F7C530808E120080824
:101F7800022AF8B5044606D0032A17D0012A20D130
:101F88000B6803601DE018200E68FEF782F805460E
:101F980050B13146FFF7D4FE3069B6F9147008B174
:101FA80002F08AFB2861AF8225600AE0046844B128
:101FB8002069FFF77BFC2046FFF708FE2046FEF766
:101FC8006AF80020F8BD38B5002383608B680446A2
:101FD8000D462BB102229847EB68E360AB68A3601B
:101FE800204638BD022A70B5044606D0032A11D00F
:101FF800012A17D10B68036014E014200E68FEF75D
:1020080048F8054620B13146FFF7DDFF337C2B74D5
:10201800256007E004682CB12046FFF7D7FD20466D
:10202800FEF739F8002070BDF0B50C46BFF35F8F9E
:1020380087B0002350E8006F40E80032002AF9D149
:10204800BFF35F8F002E3ED01846FFF753FB0746BD
:1020580020B121463046FFF763FE2EE0314601A845
:10206800FFF7B1FF237810208DF81430FEF711F830
:102078000546D0B187601420FEF70BF8044678B106
:102088008760014601A8FFF72BFE039BA268A360A7
:10209800049B0392E268E3609DF814300492237471
:1020A8000A4B2C60EB600A4BAB6001A8FFF78EFD72
:1020B800002229460748FFF725FB3046FFF786FD33
:1020C8003046FDF7E8FF07B0F0BD00BF3B1D08082C
:1020D800ED1F08082B19080830B5044685B00D46D1
:1020E80068461146FFF7DFFD7CB124B228460DB1E2
:1020F80002F0E2FA029002A96846ADF80C40FFF738
:102108002FFE0298FFF7D2FB1DE04FF00102009866
:102118008DF80840D0E84F3FA34203D1C0E8412FD3
:102128000029F7D102D08DF808300CE010F10C012D
:102138004FF0010318BF0373BFF35F8F043000F83B
:10214800033CFFF771FF01A8FEF780F905B030BD29
:10215800006800F0D1B810B50446016002710AB1F8
:10216800FFF7F6FF204610BD38B504460D4601F0CE
:1021780045F82A4601462046FFF7EDFF204638BDC0
:10218800006800F0C2B810B5037904460BB1FFF738
:10219800F7FF204610BDF8B504460F4616461D4603
:1021A800FFF7D6FF2068362100F098F820683946F6
:1021B80003689B6898470121206800F092F8022282
:1021C80036210123206800F080F8206803685B69E5
:1021D80098473070206803685B69984728702046E4
:1021E800BDE8F840FFF7CCBF13B5002202AB03F8F7
:1021F800012D8DF8062004210DF10602FFF7CBFF13
:102208009DF8070001F002FB0022084B01F064FB77
:1022180001F074FD04469DF8060001F079FE0146C0
:10222800204601F0C1FD02B010BD00BF0000703FA4
:102238007047F8B5064615460C468F18BC4206D0BE
:10224800336814F8011B9B6830469847F6E7284620
:10225800F8BD0022007CFFF75DB90021007CFFF784
:1022680061B90021007CFFF765B90021007CFFF708
:1022780069B90021007CFFF76DB910B50446FDF778
:102288000AFF204610BD000010B5044608464FF46A
:102298007A73A360044B0021207461602360FFF708
:1022A80069F9204610BD00BF9853080800231A4654
:1022B8001946007CFFF70EB913B50024007C009482
:1022C800FFF710F9C0B202B010BDDBB2D2B2C9B28A
:1022D800FFF7F2BF0022007CFFF70CB9C9B2FFF785
:1022E800F9BF0022007CFFF70DB90121FFF7F9BF04
:1022F8000021007CFFF736B908B50021007CFFF704
:1023080041F9B0FA80F0400908BD08B50021007C09
:10231800FFF740F9B0FA80F0400908BD0047000017
:1023280007282DE9FF4105460F4690461E464FF007
:10233800000419D0FFF7C6F8A6424FF0040303942F
:102348008DF80C30A2BF9DF8283003AC8DF80E3004
:102358002846009443463A460549A8BF8DF80D60C3
:10236800FFF7A8F8012000E0204604B0BDE8F0819E
:1023780025230808704710B50446FDF78CFE204653
:1023880010BDF8B50F4600F10806051D002416F823
:10239800011D0A22384600F0BEFAAE42044407D0B6
:1023A800002CF4D02E21384600F088FA0444EEE7D9
:1023B8002046F8BD024A026000224260704700BF12
:1023C800C0530808024A02600A684260704700BFAA
:1023D800C0530808014A416002607047C0530808AA
:1023E80010B59DF8084044EA032343EA024242EA52
:1023F8000161416010BD000037B5044D05609DF8CE
:1024080018500095FFF7ECFF03B030BDC053080823
:10241800014A024B1A607047815408086006002080
:1024280000231A464068FFF7E9B9002202214068F4
:10243800FFF7F4B9002211464068FFF7E7B9002218
:1024480011464068FFF7F2B900231A46194640685A
:10245800FFF7F4B900231A4619464068FFF7F6B9A2
:10246800002281F001014068FFF7F8B900224068B6
:10247800FFF704BA002211464068FFF707BA0022A6
:1024880011464068FFF7F2B9F0B5174687B0054620
:1024980004A8FFF78FFF002606AC384644F80C6DF9
:1024A80002F025F90A4B009681B25B68224638464D
:1024B800FEF758FF20B131462846FFF78BFF03E0AF
:1024C80021462846FFF77EFF284607B0F0BD00BF2B
:1024D80004060020024B034A1A6000225A60704723
:1024E80064060020B454080808B500F087FEFFF71A
:1024F800FFFE18B900F082FEFFF7D8FE00F07EFE5E
:10250800BDE80840FFF7F4BE08B500F077FEBDE867
:102518000840FFF7F1BE10B50446017009B1FFF796
:10252800F3FF204610BD08B500F068FEBDE808407E
:10253800FFF7EBBE10B5037804460BB1FFF7F3FFC6
:10254800204610BD10B504460068FFF7ECFF204692
:1025580010BD37B502AC0D4644F8040DFFF7D4FFA3
:1025680000F04CFE6B21FFF7B9FE00F047FE036850
:1025780029469B68984700F041FE0121FFF7B1FE0C
:1025880000F03CFE01231A466B21FFF79EFE00F087
:1025980035FE03685B69984705462046FFF7D2FF7A
:1025A800E8B203B030BD73B502AC15460E4644F828
:1025B800040DFFF7A9FF00F021FE6B21FFF78EFE47
:1025C80000F01CFE036831469B68984700F016FE31
:1025D800036829469B68984700F010FE0121FFF721
:1025E80080FE2046FFF7AEFF02B070BD37B5044647
:1025F8000D460190FFF788FF00212046FFF7A9FF4D
:1026080041F258139D4200F087025BD020D841F276
:1026180018039D424DD00CD840F678739D4242D0A5
:1026280040F6C8739D4241D040F628739D4260D160
:1026380059E041F2B8039D423ED041F208139D4251
:102648003DD041F268039D4253D142F020024AE056
:1026580041F298239D423ED00ED841F2F8139D4294
:1026680033D041F248239D4232D041F2A8139D4213
:102678003FD142F0400236E041F238339D422DD03E
:1026880006D841F2E8239D4233D142F060022AE0A5
:1026980041F288339D4224D041F2D8339D4228D15B
:1026A80042F078021FE042F008021CE042F01002FB
:1026B80019E042F0180216E042F0280213E042F056
:1026C800300210E042F038020DE042F048020AE021
:1026D80042F0500207E042F0580204E042F068027B
:1026E80001E042F0700220460021FFF75CFF012460
:1026F80000E0002401A8FFF725FF204603B030BD05
:1027080037B504460D460190FFF7FEFE002120462E
:10271800FFF71FFFB5F5617F00F0F80223D007D857
:10272800962D1AD0B5F5FA7F1AD0642D29D122E05A
:1027380040F2DC539D4219D005D8B5F5966F20D1EB
:1027480042F0040217E0B5F5FA6F12D040F6B8333C
:102758009D4216D142F007020DE042F001020AE064
:1027680042F0020207E042F0030204E042F00502F0
:1027780001E042F0060220460021FFF714FF012481
:1027880000E0002401A8FFF7DDFE204603B030BDBD
:10279800F7B50C46174605461E460190FFF7B4FEEE
:1027A800002C0CBF0024802417B144F04004E4B28C
:1027B8000EB144F020049DF820300BB144F0100411
:1027C8009DF824300BB144F008049DF828300BB173
:1027D80044F0040402212846FFF7BBFE00F0010282
:1027E800224302212846FFF7DEFE01A8FFF7AAFED2
:1027F800012003B0F0BD37B504460D460190FFF740
:1028080083FE04212046FFF7A4FE41F210039D42F7
:1028180000F0030206D041F270039D420AD142F053
:10282800B00201E042F0980220460421FFF7BBFE07
:10283800012400E0002401A8FFF784FE204603B02D
:1028480030BD37B5054602AC44F8040DFFF75CFE11
:1028580005212846FFF77DFE052100F0CE02284617
:10286800FFF7A1FE2046FFF76DFE012003B030BD43
:10287800F8B506460D468F180024BD420CD03368C3
:1028880015F8011B9B6830469847002801DB044473
:10289800F3E7002C08BF04462046F8BD70B505468E
:1028A8000C46084649B101F022FF2B680246214632
:1028B8002846BDE87040DB68184770BD03689B6810
:1028C8001847012A98BF0A2230B50B468BB0002161
:1028D8008DF824100DF12304B3FBF2F505FB123338
:1028E800DBB2092B94BF30333733DBB2214604F80F
:1028F80001392B46002DEFD1FFF7D0FF0BB030BDCB
:1029080010B422B90368C9B29B6810BC1847D2B288
:1029180010BCFFF7D6BFFFF7F3BF2DE9F04107461C
:102928000E4615462AB9BDE8F0410368C9B29B684E
:1029380018470A2A02D1002901DA04E0D2B2BDE818
:10294800F041FFF7BEBF2D21FFF7B8FF2A46044626
:1029580071423846FFF7B5FF2044BDE8F081FFF724
:10296800DCBF10B50446FFF731F9204610BD000062
:10297800034800238360034A034900F0A5BC00BF55
:102988006C060020F00400206B290808704710B579
:102998000446FDF780FB204610BD000070B50446D4
:1029A8000E46074B0025036040F80C5FFEF7F2FC6B
:1029B80030462671FEF7F6FDA560204670BD00BFC3
:1029C800E85408080079FEF7F5BD10B5044600681C
:1029D800FEF76CFF204610BD10B50446006808B12C
:1029E800FEF764FF00232360A360636010BD38B561
:1029F80004460D4600680131FEF760FF10B184E817
:102A08002100012038BD10B50368044613B143689E
:102A18008B4207D22046FFF7EAFF20B1A3680BB923
:102A280022681370012010BD70B50E461146044689
:102A38001546FFF7E8FF18B92046FFF7CDFF09E074
:102A48002A463146A560206801F0E8FD2268A3689F
:102A58000021D154204670BD38B5002304460360D8
:102A68004360836003730D4639B1084601F03FFEA9
:102A7800294602462046FFF7D7FF204638BD884240
:102A880010B50B46044607D0096819B19A68FFF7D4
:102A9800CBFF01E0FFF7A0FF204610BD10B50446AC
:102AA80000230360436083600373FFF7E8FF204659
:102AB80010BD08B582680B4612B919B9012008BDC6
:102AC80011B90368187802E0006801F0E3FDB0FA74
:102AD80080F0400908BD70B50E469AB191B185687D
:102AE8009D4202D800230B7070BD541EED1AAC42F3
:102AF80028BF2C46016822461944304601F014FECE
:102B08000023335570BD014600228C20FEF752BCCD
:102B18000020FFF7F8BF000010B50446084611462C
:102B28001A460023FEF7D6FD064B00221A704FF610
:102B3800FF7258809A801A689B882260A38020467A
:102B480010BD00BF7C0600204FF6FF72034B00202B
:102B5800187058809A80FEF7ADBD00BF7C06002033
:102B6800F0B5144B144F1E68144B064418683B68A4
:102B780006449E428BB01BD00AA840F8286D01F08D
:102B880055FC0446436901AD03F26C7343610FCCF5
:102B98000FC50FCC0FC5D4F800E0094CC5F800E00C
:102BA80001AD0FCD0FC40FCD0FC43E60C4F800E0D7
:102BB8000BB0F0BDB4060020B0060020AC06002023
:102BC8008406002008B50020FEF708FE28B1FEF7AD
:102BD800E5FD80F00100C0B208BD012008BD00007D
:102BE80010B50949044601F085FB60B9074920463C
:102BF80001F09EFB38B90649204601F0DDF901F0E5
:102C0800A1FB044B186010BD000040C100006041EA
:102C180000006145B406002037B50E4B04461B681A
:102C280002A819440C4B1B68194440F8041D01F014
:102C3800FDFB01F0ADFB054601F059FD00232844DA
:102C480000F8013C29462046FFF706FF204603B05E
:102C580030BD00BFB4060020AC06002010B500202F
:102C6800FEF7F0FB044668B9FEF71CFD01280BD1FE
:102C78002046FEF74FFD38B9FFF7A4FF30B9FEF73D
:102C880075FDF9E7012010BD002010BDFFF79AFF80
:102C98000020FEF7D7FB003018BF012010BD08B593
:102CA800FFF7DCFFBDE80840FEF7A4BB08B5FFF757
:102CB800F6FFFFF755FF014B986808BD8406002012
:102CC80008B5FFF7ECFFFFF74BFF014B586808BD4D
:102CD8008406002008B5FFF7E2FFFFF741FF014B2C
:102CE800D86808BD84060020024B1A68024B1A6097
:102CF800704700BF38040020A806002070474174C0
:102D08007047007CFEF796BC007CFEF76BBC007C2D
:102D1800FEF778BC007CFEF76DBC007CFEF77ABC41
:102D280010B50446FDF7B7F9204610BD70B5457CCF
:102D380004460E4625B9007CFEF77CFC002805DD1C
:102D48003146207CBDE87040FEF744BC284670BD83
:102D580010B5044608461146002262604FF47A72A4
:102D6800A260054A20742260012262741A46FEF7A6
:102D780029FC204610BD00BF20550808007CFEF73E
:102D880051BC000038B50C4D296811F0010411D16F
:102D98002846FDF782F968B1084A2146084B0948D8
:102DA800FFF7D6FF2846FDF77DF9074A074905488A
:102DB80000F08AFA034838BD500700205407002065
:102DC800CC060020B8060020F0040020052D0808D5
:102DD8004174704770470021007CFEF74BBC01210D
:102DE800007CFEF747BC007CFEF73CBC007CFEF78D
:102DF80031BC38B50446007C0D46FEF733FC00288C
:102E080001DC607C20B12946207CFEF73BFC0120D8
:102E180038BD007CFEF73EBC10B50446FDF73BF913
:102E2800204610BD10B50446002363604FF47A7342
:102E3800A360054B0846236001232174637411467F
:102E4800FEF700FC204610BD5055080810B5044692
:102E58001422002101F0EDFB054B20466360054B71
:102E6800E36040F2011323818123238210BD00BF58
:102E78005D080020DC07002030B50E4D87B001A8A2
:102E8800FFF7E4FF296811F0010410D12846FDF787
:102E980004F960B101AA21460748FFF7C3FF284695
:102EA800FDF700F9054A0649034800F00DFA024803
:102EB80007B030BDD807002060090020F0040020CA
:102EC800DD2D080810B504461422002101F0B1FBDD
:102ED800054B20466360054BE36040F201132381F4
:102EE8008123238210BD00BF100A0020780900202A
:102EF80010B50E4C86B001A8FFF7E4FF2368DB0786
:102F080010D42046FDF7C9F860B101AA012108488C
:102F1800FFF788FF2046FDF7C5F8064A064904482A
:102F280000F0D2F9024806B010BD00BF74090020B5
:102F3800FC090020F0040020DD2D080808B5184B16
:102F480033B1FFF799FF03681B69984700281EDC17
:102F5800144B33B1FFF716FF03681B699847002825
:102F680018DC114B0BB1AFF30080104B0BB1AFF372
:102F780000800F4B0BB1AFF300800E4B7BB1FFF716
:102F8800B7FF03681B699847002806DC08BDAFF344
:102F98000080DDE7AFF30080E3E7AFF3008008BD12
:102FA8000000000000000000000000000000000019
:102FB800000000000000000008B5FFF7BFFFFEF7A3
:102FC80011FA014B186008BD1C0B00200248034A87
:102FD8000349121A01F022BB00400240044002409B
:102FE8001058080807B5002300931A466FF07701B8
:102FF800FEF7A2FB03B05DF804FB000007B54388A9
:103008000A2B08D0502B09D1094B1B683BB103B0E0
:103018005DF804EB1847FFF7E5FF06E0002300938F
:103028001A466FF07701FEF787FB03B05DF804FBE3
:10303800140B002038B5104C104D2368AB42104BD0
:103048000CBF012200221A7002D0FFF7BFFF2560D3
:10305800FEF7C0F9044601F0F5FA0A4B13B1204611
:10306800AFF3008000210748FEF7C0FBBDE83840F9
:1030780000210548FEF756BB004002401E1C279A57
:10308800180B0020000000000530080810B50446A1
:103098000F48FFF797FC28B1A4F10D03022B01D8C4
:1030A800002010BD00F08AF8FFF722F908B1012CC2
:1030B800F6D9FFF767FEFFF761FE18B1A4F1120316
:1030C800012BEDD92E2C8CBF0020012010BD00BF94
:1030D800600B00202E2838B504460D460AD8FF2973
:1030E80008D0FFF7D3FF28B129462046BDE838406D
:1030F800FEF7C0B938BD38B504460D46FEF7C2F92B
:10310800FF2810D0062804D84D2323FA00F0C3075F
:1031180009D42046FFF7BAFF28B129462046BDE862
:103128003840FEF7B7B938BD10B50446FEF7AAF91E
:103138000438C0B2012808D92046FFF7A7FF20B1FC
:103148002046BDE81040FEF7ADB9002010BD2DE9BE
:10315800F04190461E4607460D460724B8F1000F79
:1031680004D1C4F1070146FA01F101E046FA04F17D
:1031780001F001013846FFF7BEFF01212846FFF79D
:10318800BAFF00212846FFF7B6FF14F1FF34E5D255
:10319800BDE8F08110B5074C2368DB0708D420464A
:1031A800FCF77BFF20B1FEF72DF92046FCF77AFFEC
:1031B800014810BD200B0020240B002038B50B4D12
:1031C800296811F001040FD12846FCF766FF58B1B1
:1031D80021460748FFF758F82846FCF763FF054AD9
:1031E8000549034800F070F8014838BD280B002055
:1031F800400B0020F00400203922080810B50B4CC1
:103208002368DB070FD42046FCF747FF58B102219B
:103218000748FFF739F82046FCF744FF054A0649F6
:10322800034800F051F8024810BD00BF540B0020BD
:103238002C0B0020F00400203922080813B5084C94
:1032480000231A46194600932046FFF7D5F8204672
:10325800044A054902B0BDE8104000F035B800BF87
:10326800580B0020F00400207D23080870B5114E8B
:10327800114D124C00213046FFF790FB3046104E9E
:103288002A46214600F020F801213046FFF786FB48
:1032980030460C4E2A46214600F016F802213046E8
:1032A800FFF77CFB2A4621463046BDE8704000F017
:1032B8000BB800BF600B0020F00400209529080817
:1032C800700B0020800B00200B460146184601F0C9
:1032D8009FB808B5FEF712FB244B1A68D0075CBFED
:1032E80001221A60224B1A68D1075CBF01221A60BA
:1032F800204B1A68D2075CBF01221A601E4B1A685D
:10330800D0075CBF01221A601C4B1A68D1075CBF4A
:1033180001221A601A4B1A68D2075CBF01221A6090
:10332800184B1A68D0075CBF01221A60164B1A683E
:10333800D1075CBF01221A60144B1A68D2075CBF20
:1033480001221A60124B1A68D0075CBF01221A606A
:10335800104B1A68D1075CBF01221A600E4B1A681D
:10336800D2075CBF01221A60704700BFBC0B002067
:10337800B80B0020B40B0020B00B0020AC0B0020D1
:10338800A80B0020A40B0020A00B00209C0B002001
:10339800980B0020940B0020900B0020184B1A6803
:1033A800D1075CBF01221A60164B1A68D2075CBFAE
:1033B80001221A60144B1A68D0075CBF01221A60F8
:1033C800124B1A68D1075CBF01221A60104B1A68A9
:1033D800D2075CBF01221A600E4B1A68D0075CBF87
:1033E80001221A600C4B1A68D1075CBF01221A60CF
:1033F8000A4B1A68D2075CBF01221A60704700BFE7
:10340800DC0B0020D80B0020D40B0020D00B0020B0
:10341800CC0B0020C80B0020C40B0020C00B0020E0
:10342800184B1A68D1075CBF01221A60164B1A683C
:10343800D2075CBF01221A60144B1A68D0075CBF20
:1034480001221A60124B1A68D1075CBF01221A6068
:10345800104B1A68D2075CBF01221A600E4B1A681B
:10346800D0075CBF01221A600C4B1A68D1075CBFF9
:1034780001221A600A4B1A68D2075CBF01221A603F
:10348800704700BFFC0B0020F80B0020F40B002055
:10349800F00B0020EC0B0020E80B0020E40B0020D0
:1034A800E00B0020244B1A68D0075CBF01221A6089
:1034B800224B1A68D1075CBF01221A60204B1A6898
:1034C800D2075CBF01221A601E4B1A68D0075CBF86
:1034D80001221A601C4B1A68D1075CBF01221A60CE
:1034E8001A4B1A68D2075CBF01221A60184B1A6877
:1034F800D0075CBF01221A60164B1A68D1075CBF5F
:1035080001221A60144B1A68D2075CBF01221A60A4
:10351800124B1A68D0075CBF01221A60104B1A6858
:10352800D1075CBF01221A600E4B1A68D2075CBF34
:1035380001221A60704700BF2C0C0020280C0020C4
:10354800240C0020200C00201C0C0020180C00204B
:10355800140C0020100C00200C0C0020080C00207B
:10356800040C0020000C002081F0004102E000BFA4
:1035780083F0004330B54FEA41044FEA430594EA2B
:10358800050F08BF90EA020F1FBF54EA000C55EA66
:10359800020C7FEA645C7FEA655C00F0E2804FEA37
:1035A8005454D4EB5555B8BF6D420CDD2C4480EA19
:1035B800020281EA030382EA000083EA010180EA49
:1035C800020281EA0303362D88BF30BD11F0004F97
:1035D8004FEA01314FF4801C4CEA113102D04042CD
:1035E80061EB410113F0004F4FEA03334CEA133308
:1035F80002D0524263EB430394EA050F00F0A78020
:10360800A4F10104D5F1200E0DDB02FA0EFC22FA1A
:1036180005F2801841F1000103FA0EF2801843FA0E
:1036280005F359410EE0A5F120050EF1200E012AFF
:1036380003FA0EFC28BF4CF0020C43FA05F3C0183D
:1036480051EBE37101F0004507D54FF0000EDCF1B6
:10365800000C7EEB00006EEB0101B1F5801F1BD35F
:10366800B1F5001F0CD349085FEA30004FEA3C0C63
:1036780004F101044FEA445212F5800F80F09A8059
:10368800BCF1004F08BF5FEA500C50F1000041EB5D
:10369800045141EA050130BD5FEA4C0C404141EB61
:1036A800010111F4801FA4F10104E9D191F0000F88
:1036B80004BF01460020B1FA81F308BF2033A3F10B
:1036C8000B03B3F120020CDA0C3208DD02F1140C02
:1036D800C2F10C0201FA0CF021FA02F10CE002F13D
:1036E8001402D8BFC2F1200C01FA02F120FA0CFC36
:1036F800DCBF41EA0C019040E41AA2BF01EB04517F
:10370800294330BD6FEA04041F3C1CDA0C340EDC7C
:1037180004F11404C4F1200220FA04F001FA02F3BF
:1037280040EA030021FA04F345EA030130BDC4F17D
:103738000C04C4F1200220FA02F001FA04F340EA72
:103748000300294630BD21FA04F0294630BD94F023
:10375800000F83F4801306BF81F480110134013D0A
:103768004EE77FEA645C18BF7FEA655C29D094EA7B
:10377800050F08BF90EA020F05D054EA000C04BFF9
:103788001946104630BD91EA030F1EBF00210020E4
:1037980030BD5FEA545C05D14000494128BF41F083
:1037A800004130BD14F580043CBF01F5801130BDE7
:1037B80001F0004545F0FE4141F470014FF0000072
:1037C80030BD7FEA645C1ABF194610467FEA655C23
:1037D8001CBF0B46024650EA013406BF52EA0335C5
:1037E80091EA030F41F4002130BD00BF90F0000FB3
:1037F80004BF0021704730B54FF4806404F13204EF
:103808004FF000054FF0000150E700BF90F0000FA7
:1038180004BF0021704730B54FF4806404F13204CE
:1038280010F0004548BF40424FF000013EE700BF9E
:1038380042004FEAE2014FEA31014FEA02701FBF2E
:1038480012F07F4393F07F4F81F06051704792F000
:10385800000F14BF93F07F4F704730B54FF460747A
:1038680001F0004521F0004120E700BF50EA0102C5
:1038780008BF704730B54FF000050AE050EA010272
:1038880008BF704730B511F0004502D5404261EBE2
:1038980041014FF4806404F132045FEA915C3FF423
:1038A800DCAE4FF003025FEADC0C18BF03325FEABC
:1038B800DC0C18BF033202EBDC02C2F1200300FA71
:1038C80003FC20FA02F001FA03FE40EA0E0021FA96
:1038D80002F11444C1E600BF70B54FF0FF0C4CF480
:1038E800E06C1CEA11541DBF1CEA135594EA0C0F36
:1038F80095EA0C0F00F0DEF82C4481EA030621EA71
:103908004C5123EA4C5350EA013518BF52EA0335AB
:1039180041F4801143F4801338D0A0FB02CE4FF05D
:103928000005E1FB02E506F00042E0FB03E54FF08D
:103938000006E1FB03569CF0000F18BF4EF0010E85
:10394800A4F1FF04B6F5007F64F5407404D25FEA81
:103958004E0E6D4146EB060642EAC62141EA555134
:103968004FEAC52040EA5E504FEACE2EB4F1FD0C76
:1039780088BFBCF5E06F1ED8BEF1004F08BF5FEAF4
:10398800500E50F1000041EB045170BD06F00046A6
:1039980046EA010140EA020081EA0301B4EB5C0453
:1039A800C2BFD4EB0C0541EA045170BD41F480114B
:1039B8004FF0000E013C00F3AB8014F1360FDEBF70
:1039C800002001F0004170BDC4F10004203C35DA4C
:1039D8000C341BDC04F11404C4F1200500FA05F3CF
:1039E80020FA04F001FA05F240EA020001F0004270
:1039F80021F0004110EBD37021FA04F642EB0601E6
:103A08005EEA430E08BF20EAD37070BDC4F10C040F
:103A1800C4F1200500FA04F320FA05F001FA04F2D3
:103A280040EA020001F0004110EBD37041F10001BF
:103A38005EEA430E08BF20EAD37070BDC4F12005CA
:103A480000FA05F24EEA020E20FA04F301FA05F232
:103A580043EA020321FA04F001F0004121FA04F2DA
:103A680020EA020000EBD3705EEA430E08BF20EAAA
:103A7800D37070BD94F0000F0FD101F000464000E4
:103A880041EB010111F4801F08BF013CF7D041EA66
:103A9800060195F0000F18BF704703F0004652006A
:103AA80043EB030313F4801F08BF013DF7D043EA3B
:103AB8000603704794EA0C0F0CEA135518BF95EAF1
:103AC8000C0F0CD050EA410618BF52EA4306D1D178
:103AD80081EA030101F000414FF0000070BD50EA97
:103AE800410606BF1046194652EA430619D094EA21
:103AF8000C0F02D150EA013613D195EA0C0F05D10B
:103B080052EA03361CBF104619460AD181EA03015E
:103B180001F0004141F0FE4141F470014FF0000016
:103B280070BD41F0FE4141F4780170BD70B54FF0B1
:103B3800FF0C4CF4E06C1CEA11541DBF1CEA135531
:103B480094EA0C0F95EA0C0F00F0A7F8A4EB050413
:103B580081EA030E52EA03354FEA013100F088800A
:103B68004FEA03334FF0805545EA131343EA1263D3
:103B78004FEA022245EA111545EA10654FEA002688
:103B88000EF000419D4208BF964244F1FD0404F541
:103B9800407402D25B084FEA3202B61A65EB03059D
:103BA8005B084FEA32024FF480104FF4002CB6EB5A
:103BB800020E75EB030E22BFB61A754640EA0C00DA
:103BC8005B084FEA3202B6EB020E75EB030E22BF1A
:103BD800B61A754640EA5C005B084FEA3202B6EB5B
:103BE800020E75EB030E22BFB61A754640EA9C001A
:103BF8005B084FEA3202B6EB020E75EB030E22BFEA
:103C0800B61A754640EADC0055EA060E18D04FEAA7
:103C1800051545EA16754FEA06164FEAC30343EA47
:103C280052734FEAC2025FEA1C1CC0D111F4801F14
:103C38000BD141EA00014FF000004FF0004CB6E70D
:103C480011F4801F04BF01430020B4F1FD0C88BFAC
:103C5800BCF5E06F3FF6AFAEB5EB030C04BFB6EBB7
:103C6800020C5FEA500C50F1000041EB045170BDAA
:103C78000EF0004E4EEA113114EB5C04C2BFD4EBD7
:103C88000C0541EA045170BD41F480114FF0000E5B
:103C9800013C90E645EA060E8DE60CEA135594EAD7
:103CA8000C0F08BF95EA0C0F3FF43BAF94EA0C0FDA
:103CB8000AD150EA01347FF434AF95EA0C0F7FF44F
:103CC80025AF104619462CE795EA0C0F06D152EAA3
:103CD80003353FF4FDAE1046194622E750EA410687
:103CE80018BF52EA43067FF4C5AE50EA41047FF498
:103CF8000DAF52EA43057FF4EBAE12E74FEA4102FB
:103D0800B2F1E04324BFB3F5001CDCF1FE5C0DD931
:103D180001F0004C4FEAC0024CEA5070B2F1004F7B
:103D280040EB830008BF20F00100704711F0804F7E
:103D380021D113F13872BCBF01F00040704741F443
:103D480080114FEA5252C2F11802C2F1200C10FA47
:103D58000CF320FA02F018BF40F001004FEAC1232B
:103D68004FEAD32303FA0CFC40EA0C0023FA02F3CF
:103D78004FEA4303CCE77FEA625307D150EA0133A5
:103D88001EBF4FF0FE4040F44000704701F0004075
:103D980040F0FE4040F40000704700BF80F0004053
:103DA80002E000BF81F0004142001FBF5FEA41030B
:103DB80092EA030F7FEA226C7FEA236C6AD04FEA0B
:103DC8001262D2EB1363C1BFD21841404840414050
:103DD800B8BF5B42192B88BF704710F0004F40F402
:103DE800000020F07F4018BF404211F0004F41F41E
:103DF800000121F07F4118BF494292EA030F3FD0EA
:103E0800A2F1010241FA03FC10EB0C00C3F12003FC
:103E180001FA03F100F0004302D5494260EB40008B
:103E2800B0F5000F13D3B0F1807F06D340084FEAF6
:103E3800310102F10102FE2A51D2B1F1004F40EBEB
:103E4800C25008BF20F0010040EA03007047490053
:103E580040EB000010F4000FA2F10102EDD1B0FA1E
:103E680080FCACF1080CB2EB0C0200FA0CF0AABF13
:103E780000EBC25052421843BCBFD04018437047B1
:103E880092F0000F81F4000106BF80F400000132B7
:103E9800013BB5E74FEA41037FEA226C18BF7FEA8E
:103EA800236C21D092EA030F04D092F0000F08BFD0
:103EB8000846704790EA010F1CBF0020704712F0B7
:103EC8007F4F04D1400028BF40F00040704712F1F6
:103ED80000723CBF00F50000704700F0004343F05B
:103EE800FE4040F4000070477FEA226216BF084691
:103EF8007FEA23630146420206BF5FEA412390EA54
:103F0800010F40F4800070474FF0000304E000BF49
:103F180010F0004348BF40425FEA000C08BF7047FA
:103F280043F0964301464FF000001CE050EA0102BE
:103F380008BF70474FF000030AE000BF50EA0102D3
:103F480008BF704711F0004302D5404261EB4101C0
:103F58005FEA010C02BF84460146002043F0B643E5
:103F680008BFA3F18053A3F50003BCFA8CF2083A0A
:103F7800A3EBC25310DB01FA02FC634400FA02FC13
:103F8800C2F12002BCF1004F20FA02F243EB02001A
:103F980008BF20F00100704702F1200201FA02FC7C
:103FA800C2F1200250EA4C0021FA02F243EB02006F
:103FB80008BF20EADC7070474FF0FF0C1CEAD052B3
:103FC8001EBF1CEAD15392EA0C0F93EA0C0F6FD074
:103FD8001A4480EA010C400218BF5FEA41211ED052
:103FE8004FF0006343EA501043EA5111A0FB01313E
:103FF8000CF00040B1F5000F3EBF490041EAD37113
:104008005B0040EA010062F17F02FD2A1DD8B3F18E
:10401800004F40EBC25008BF20F00100704790F0FD
:10402800000F0CF0004C08BF49024CEA502040EA4F
:1040380051207F3AC2BFD2F1FF0340EAC250704715
:1040480040F400004FF00003013A5DDC12F1190F53
:10405800DCBF00F000407047C2F10002410021FAC5
:1040680002F1C2F1200200FA02FC5FEA310040F1DD
:10407800000053EA4C0308BF20EADC70704792F056
:10408800000F00F0004C02BF400010F4000F013A8E
:10409800F9D040EA0C0093F0000F01F0004C02BF89
:1040A800490011F4000F013BF9D041EA0C018FE7F8
:1040B8000CEAD15392EA0C0F18BF93EA0C0F0AD0FE
:1040C80030F0004C18BF31F0004CD8D180EA010024
:1040D80000F00040704790F0000F17BF90F0004FBD
:1040E800084691F0000F91F0004F14D092EA0C0F9F
:1040F80001D142020FD193EA0C0F03D14B0218BF32
:10410800084608D180EA010000F0004040F0FE4077
:1041180040F40000704740F0FE4040F44000704713
:104128004FF0FF0C1CEAD0521EBF1CEAD15392EA92
:104138000C0F93EA0C0F69D0A2EB030280EA010C82
:1041480049024FEA402037D04FF0805343EA11111B
:1041580043EA10130CF000408B4238BF5B0042F179
:104168007D024FF4000C8B4224BF5B1A40EA0C001E
:10417800B3EB510F24BFA3EB510340EA5C00B3EB50
:10418800910F24BFA3EB910340EA9C00B3EBD10F3E
:1041980024BFA3EBD10340EADC001B0118BF5FEA90
:1041A8001C1CE0D1FD2A3FF650AF8B4240EBC250B9
:1041B80008BF20F0010070470CF0004C4CEA50207A
:1041C8007F32C2BFD2F1FF0340EAC250704740F4C9
:1041D80000004FF00003013A37E792F0000F00F0BB
:1041E800004C02BF400010F4000F013AF9D040EA39
:1041F8000C0093F0000F01F0004C02BF490011F4CD
:10420800000F013BF9D041EA0C0195E70CEAD153C4
:1042180092EA0C0F08D142027FF47DAF93EA0C0FAB
:104228007FF470AF084676E793EA0C0F04D14B028F
:104238003FF44CAF08466EE730F0004C18BF31F041
:10424800004CCAD130F000427FF45CAF31F000433B
:104258007FF43CAF5FE700BF4FF0FF3C06E000BFD4
:104268004FF0010C02E000BF4FF0010C4DF804CDF7
:104278004FEA40024FEA41037FEA226C18BF7FEA07
:10428800236C11D001B052EA530C18BF90EA010F09
:1042980058BFB2EB030088BFC81738BF6FEAE17098
:1042A80018BF40F0010070477FEA226C02D15FEA34
:1042B800402C05D17FEA236CE4D15FEA412CE1D0A0
:1042C8005DF8040B704700BF844608466146FFE767
:1042D8000FB5FFF7C9FF002848BF10F1000F0FBD49
:1042E8004DF808EDFFF7F4FF0CBF012000205DF842
:1042F80008FB00BF4DF808EDFFF7EAFF34BF0120C7
:1043080000205DF808FB00BF4DF808EDFFF7E0FF5F
:1043180094BF012000205DF808FB00BF4DF808EDB0
:10432800FFF7D2FF94BF012000205DF808FB00BF13
:104338004DF808EDFFF7C8FF34BF012000205DF8F5
:1043480008FB00BF4FEA4002B2F1FE4F0FD34FF017
:104358009E03B3EB12620DD94FEA002343F00043EA
:1043680010F0004F23FA02F018BF404270474FF098
:104378000000704712F1610F01D1420205D110F01F
:10438800004008BF6FF0004070474FF000007047D2
:10439800094B70B51C680646256C3DB91A20FDF717
:1043A8007DFA1A222064294600F043F9216C304630
:1043B800BDE8704000F002B8A004002010B50C461B
:1043C800416986B001F26C710369826904910168E0
:1043D80003EB43030391416802EB420202918168B7
:1043E8000191C1682046009104490B4404490A44DC
:1043F8000449FDF76BFA204606B010BD8D55080834
:1044080078550808B15508080A22002100F026BA94
:1044180010B5054C13462CB10A4601460220AFF3ED
:10442800008010BD204610BD0000000038B5074BC5
:1044380005461C68E36B1BB92420FDF72FFAE063DF
:10444800E16B2846BDE8384000F002B8A00400201F
:104458002DE9F0410C46804600F006FD214607464E
:10446800404600F005FD4669044606F26C76B3073F
:1044780005D1642296FBF2F302FB13634BB94FF4A8
:10448800C87596FBF5F305FB1365B5FA85F35B096B
:1044980000E001235F4A302505FB032500F018FBE7
:1044A80000F018FB5C4B1B68F3B17B689E4205D19A
:1044B8003968D8F80030FA6941B90AE0304600F0A6
:1044C8005FFA0028F4D14FF0FF330DE0934208DB88
:1044D80001E0934207DABA6B9342ACBF0023012391
:1044E80002E0002300E001232362236A3C20012B21
:1044F8000CBFF96B396A4FF4616391FBF3F603FB68
:10450800161393FBF0F200FB123061682368891AD6
:10451800A2681B1A921B3B2B23606160A26003DD1B
:10452800013161603C3B04E0002B03DA0139616032
:104538003C33236063683B2B03DD0132A2603C3BC4
:1045480004E0002B03DA013AA2603C336360A368FD
:10455800172B22DDE269183B0132E261A269A360F0
:104568000132062AC8BF0022A261E268236901322B
:10457800E26055F823108A4246DD01330C2B08BF50
:104588006369A2EB0102E26005BF013300222361E7
:10459800226104BF6361E26136E0002B34DAE2692C
:1045A8001833013AE261A269A360013A48BF0622C2
:1045B800A261E268013AE26032BB2369013B01D49F
:1045C80023611DE00B23236163695A1E12F0030F58
:1045D800626103F26B7305D1642193FBF1F201FB75
:1045E80012324AB94FF4C87193FBF1F201FB12334E
:1045F800B3FA83F35B0900E0012303F5B673E361C3
:10460800236955F82330E36000F063FA2046BDE8DB
:10461800F08100BF345708084C0C002010B5431E29
:104628000A44914204D011F8014B03F8014FF8E70E
:1046380010BD03460244934202D003F8011BFAE777
:104648007047000038B5124B05461C68A36BD3B9F8
:104658001820FDF723F943F20E33A06303804AF6CE
:10466800CD33438041F2342383804EF26D63C3809F
:104678004DF6EC630381052343810B2383810122DB
:104688000023C0E90423A36B00221D615A6138BDD1
:10469800A004002010F8012B11F8013B012A28BFC3
:1046A8009A42F7D0D01A7047034611F8012B03F845
:1046B800012B002AF9D17047024B0146186800F017
:1046C80003B800BFA004002070B5064608460C4693
:1046D80000F00DF8451C29463046FDF717F9064647
:1046E80018B12A462146FFF799FF304670BD0346A8
:1046F80013F8012B002AFBD1181A0138704730B57E
:1047080082B1451E013915F8013F11F8014FA34246
:1047180006D1EC431444E04201D0002BF3D11C46EF
:10472800181B30BD104630BD034610B542B111F814
:10473800014B013A03F8014B002CF7D11A4400E071
:1047480010BD934202D003F8014BFAE710BD0000F8
:104758002DE9F0470F4680463F48D0F800903D4687
:1047680015F8014B09EB0400407800F0080000F050
:10477800FF0608B12F46F2E72D2C03D1BD1C7C782B
:10478800012603E02B2C04BF7C78BD1C13B1102B31
:104798000AD15BE0302C57D1287800F0DF00582888
:1047A8004DD16C7810230235002E14BF4FF0004C09
:1047B8006FF0004CBCFBF3FA0027384603FB1ACC19
:1047C80009EB040E9EF801E01EF0040F01D0303C06
:1047D8000BE01EF0030E1BD0BEF1010F0CBF4FF013
:1047E800370E4FF0570ECEEB0404A34210DDB7F19D
:1047F800FF3F0AD0504506D801D1644503DC03FBCE
:104808000040012701E04FF0FF3715F8014BD7E7CB
:104818007B1C0CD1002E4FF0220314BF4FF0004038
:104828006FF00040C8F800302AB9BDE8F08706B13B
:10483800404272B107B1691E1160BDE8F0873024AB
:10484800002BB1D10823AFE70A23ADE7302CA3D062
:10485800AAE7BDE8F08700BF3C04002013460A46DB
:10486800014602480068FFF773BF00BFA00400209C
:104878002DE9F0470E4680463B48D0F80090354673
:1048880015F8014B09EB0400407800F0080000F02F
:10489800FF0708B12E46F2E72D2C03D1B51C74781A
:1048A800012703E02B2C04BF7478B51C13B1102B1F
:1048B8000AD153E0302C4FD1287800F0DF00582877
:1048C80045D16C78102302354FF0FF3CBCFBF3FC5C
:1048D80003FB0CFA00266FEA0A0A304609EB040EBD
:1048E8009EF801E01EF0040F01D0303C0BE01EF0F2
:1048F800030E1AD0BEF1010F0CBF4FF0370E4FF068
:10490800570ECEEB0404A3420FDD002E08DB6045F2
:1049180006D801D1544503DC03FB0040012601E021
:104928004FF0FF3615F8014BD8E7002E07DA22239F
:10493800C8F800304FF0FF302AB9BDE8F08707B15A
:10494800404272B106B1691E1160BDE8F08730249B
:10495800002BB9D10823B7E70A23B5E7302CABD031
:10496800B2E7BDE8F08700BF3C04002013460A46C2
:10497800014602480068FFF77BBF00BFA004002083
:104988002DE9F74F044600F06FFA40F2B1739C42EC
:1049980040F3968040F26D156FF4F663E318A4F2C5
:1049A800B2729B1005FB0235A4F26D726FF06303BF
:1049B80092FBF3F36FF4C8622B44A5184FF4C87246
:1049C80094FBF2F795FBF2F502FB17471D446423AD
:1049D80094FBF3F6B7FA87FE014603FB164600F18F
:1049E8003803019304F0030344604FEA5E1E00930A
:1049F8004FF0070C0B7A4A2B0ED14B69009AEC1832
:104A080002B906B927B93B2BD4BF0023012300E024
:104A180000232344013B3FE0442B02D14B692B4444
:104A28003AE0009B2BB9002E0CBFF0464FF001086E
:104A380000E0F046A946244B302202FB0838CC6837
:104A4800A8F1040A0123A34204DA5AF804BF013387
:104A5800D944F8E709F1040393FBFCFBCBEBCB0A41
:104A6800CAEB030A4B69012CB8BF0124B3EB0A0A4D
:104A78000B6904F1804403F1FF3304F1FF3448BFAC
:104A88000AF1070AC3EBC30358F824405344A3426E
:104A980001DB073BFBE74B448C690C4A02FB0343F1
:104AA8000C6A234441F81C3F019B9942A2D1C36977
:104AB800826B9342ACBF002301230360012000E016
:104AC800002003B0BDE8F08F34570808805101007A
:104AD80070477047014B186800F002B8A004002026
:104AE8002DE9F04F8DB0074600F0BEF9B0490446F5
:104AF800384600F0B1F9AF4E054660B9AE4BAF4A43
:104B08001860AF4B1860AF4B30681A605A60FCF7FA
:104B1800CDFE356048E1316879B93068FCF7C6FEEA
:104B28002846FFF7E4FD411C3846FCF7EFFE3060ED
:104B380048B12946FFF7B8FD05E0FFF7ABFD0028AF
:104B480000F03281E9E72B780AAE3A2B08BF01352D
:104B580033469D4A9D492846FCF7C0FE002840F38D
:104B680023810A9BEF18EB5C2D2B03D101374FF003
:104B7800FF3503E02B2B08BF013701250DF1200A73
:104B88000DF11E0B4FF000080396CDF808A0019612
:104B9800CDF800B0334607AA8D493846ADF81E80D7
:104BA800ADF82080FCF79AFE404540F3FD80BDF843
:104BB8001E20BDF820303C2101FB0233BDF81C202B
:104BC8004FF4616101FB02335D437F4B25627D4DEC
:104BD800DFF808922B600A9B4A461F447B493346FC
:104BE8003846FCF77BFE404508DC2B68226A6B6080
:104BF800714B1A60724BC3F80080D5E00A9BC5F868
:104C08000490FD18FB5C2D2B03D101354FF0FF37C5
:104C180003E02B2B08BF013501270023ADF81C301A
:104C2800ADF81E30ADF820300A930396CDF808A0F1
:104C38000196CDF800B0334607AA65492846FCF727
:104C48004DFE002804DC236AA3F56163E3630EE0EC
:104C5800BDF81E20BDF820303C2101FB0233BDF811
:104C68001C204FF4616101FB02335F43E763274671
:104C78000A9B4FF000091D442B782C2B08BF0135E7
:104C880095F80080B8F14D0F26D10DF12603029357
:104C980009AB00930396019633460DF122024D4964
:104CA8002846FCF71BFE03287ED1BDF822104B1EB8
:104CB8000B2B79D8BDF82420531E042B74D8BDF8CB
:104CC8002630062B70D887F80880F9603A617B6136
:104CD8000A9B05EB03082AE0B8F14A0F06BF4346D2
:104CE800013544230A220BA928460593FFF73EFE07
:104CF800DDF82C80ADF826004545059B14D14D23E1
:104D0800B9F1000F07D123720323E3600223236163
:104D1800C4F814900BE084F824300B23A362012319
:104D2800E3620023236302E080B23B7278610223CE
:104D3800ADF81C300023ADF81E30ADF820300A93D2
:104D480098F800302F2B0BD10396CDF808A00196C8
:104D5800CDF800B0334607AA1F494046FCF7BEFD10
:104D6800BDF81E20BDF820303C2101FB0233BDF800
:104D78001C204FF4616101FB0233BB610A9D09F1FC
:104D88000109B9F1020F454407F11C077FF474AF1C
:104D98006068FFF7F5FD226A074B1A60E36B9B1A00
:104DA800074A18BF012313600DB0BDE8F08F00BF9C
:104DB80094570808480C0020500C00209757080802
:104DC8004C0C0020A40400203B0C00209B57080832
:104DD800BE570808AA570808BD570808300C002015
:104DE8002DE9F84F07468B46904600F0D7F8194B47
:104DF8001D689A463DB15C46234613F8012B42B123
:104E08003D2A1C46F8D1384600F0C9F80020BDE814
:104E1800F88FCBEB0404A94659F8040B0028F2D00C
:104E280022465946FFF76BFC88B959F8043C1E190D
:104E38001B5D3D2B0BD1DAF800303846ED1AAD106A
:104E4800C8F8005000F0ABF8701CBDE8F88F4D466C
:104E5800E1E700BFEC04002007B501AAFFF7C0FF97
:104E680003B05DF804FB000000487047AC04002064
:104E78000268464BF0B592FBF3F403FB1422002AB8
:104E8800BCBF02F5A83202F5C0724FF4616092FB14
:104E9800F0F300FB13224FF03C008B6092FBF0F321
:104EA80000FB132204F52F24ACBF04F66C2404F68F
:104EB8006B244B600A600723E21C92FBF3F3344D2A
:104EC800C3EBC30394FBF5F5D31A48F6AC6240F282
:104ED800B4578B612F4B304803FB0544B4FBF2F207
:104EE800B4FBF7F3B4FBF0F02244D21A48F6946608
:104EF800131A40F26D12B3FBF6F6B3FBF2F0B3FBF4
:104F0800F7F33444E31A02FB103303EB83029924CA
:104F18000232B2FBF4F25443A61C0524B6FBF4F4A7
:104F28000A2A34BF02266FF0090616444FF4C872E5
:104F380002FB05055F1C012E98BF0135B3F5997F6B
:104F4800A7EB040702D3A3F5997214E0820705D1F1
:104F58006424B0FBF4F204FB12024AB94FF4C8729D
:104F6800B0FBF2F402FB1400B0FA80F2520900E040
:104F780001223B331A44A5F26C750023CA614D61C6
:104F88000E61CF600B620846F0BD00BF8051010082
:104F9800B13A02004FC5FDFFB03A020070477047B2
:104FA8001D0008085D000808890008088D00080829
:104FB8000000000053746172747570205375636348
:104FC80065737366756C0000000000000000000047
:104FD80000000000000000000000000000000000C9
:104FE80000000000000000000000000000000000B9
:104FF80000000000257320533A25322E30662525FF
:105008002C20513A25322E30662525200025342EB5
:10501800316620430025342E3166202525002534AD
:105028002E3166206D532F6D0025692025250041FE
:10503800542B4346554E3D31360D0A007B225465AC
:105048006D7065726174757265223A25342E316609
:105058002C202248756D6964697479223A25342EAA
:1050680031662C2022536F696C636F6E64756374AC
:105078006976697479223A25342E31662C202253B8
:105088006F696C74656D70223A25342E31662C2058
:1050980022536F696C6D6F697374757265223A2556
:1050A800342E31662C202242617474657279223A5A
:1050B80025692C2022526573657473223A25692C60
:1050C8002022416C65727473223A25697D0043651C
:1050D8006C6C756C61725F536F696C5F486F6F6B56
:1050E800004572726F722074616B696E67204D653E
:1050F80061737572656D656E747300537461746560
:1051080000476F696E6720746F20536C6565700087
:105118004C6F772042617474657279202D20536C2E
:10512800656570696E67005265706F7274696E6745
:105138000049646C65004572726F72202D205265BB
:10514800706F7274696E672054696D6564204F755D
:1051580074004552524F525F5354415445202D20FC
:10516800526573657474696E67004E6F204461748C
:105178006100556269646F747320486F6F6B0052E9
:105188006573706F6E7365205265636569766564D3
:105198000053657420536F6C617220506F7765728D
:1051A8006564204D6F6465003000436C656172650D
:1051B8006420536F6C617220506F7765726564204C
:1051C8004D6F64650053657420566572626F736530
:1051D800204D6F646500436C656172656420566597
:1051E80072626F7365204D6F64650054696D652048
:1051F8007A6F6E65206F6666736574202569005442
:10520800696D65004C6F7720506F776572004E6F3F
:10521800726D616C204F7065726174696F6E730096
:105228005369676E616C005265736574436F756E80
:10523800740052656C656173650073746174654FC1
:1052480066436867006C6F77506F7765724D6F645F
:10525800650074656D706572617475726500687556
:105268006D696469747900436F6E647563746976F7
:1052780069747900536F696C54656D7000566F6C72
:10528800756D657472696348324F004D6561737559
:1052980072652D4E6F77004C6F77506F7765724D42
:1052A8006F646500536F6C61722D4D6F64650056B5
:1052B8006572626F73652D4D6F6465005365745434
:1052C800696D655A6F6E650053746172747570000C
:1052D800556E6B6E6F776E004E6F6E650057694640
:1052E800690047534D00554D54530043444D410008
:1052F8004C54450049454545383032313534003144
:105308002E3033000000000000000000F3190808E8
:10531800E9190808DF19080851190808D3190808F5
:10532800C7190808BB190808B3190808A9190808F3
:105338009F1908085B190808000000000000000019
:10534800B11A0808331B0808B31A0808711B0808A3
:10535800B91A0808411B0808DD1A0808011B0808C3
:10536800FCFFFFFF000000002B1B080800000000E6
:1053780000000000B91B0808BF1B0808E71B080845
:10538800CB1B0808BB1B0808000000000000000039
:1053980039220808832208085B2208083B220808EB
:1053A800632208086B220808732208087B22080871
:1053B80000000000000000008B2308087D23080877
:1053C8007F23080866006C6E00666E00636F646574
:1053D8000064657461696C00253031307520005DAA
:1053E80020002564002C200028293A2000205B009A
:1053F800636F6465203D200064657461696C732087
:105408003D2000626175640053657269616C0055E6
:10541800534253657269616C31007479706500702C
:105428006172616D00636D6400696400686E640098
:105438007374726D0066696C74006C766C006164DC
:105448006448616E646C65720072656D6F7665485C
:10545800616E646C657200656E756D48616E646C32
:10546800657273004A534F4E53747265616D4C6F89
:105478006748616E646C657200617070006E6F6E73
:105488006500747261636500696E666F00776172AA
:105498006E006572726F720070616E696300616C94
:1054A8006C0000000000000000000000292408082B
:1054B800332408083D24080847240808512408080C
:1054C8005D24080869240808752408087D2408084C
:1054D8008724080891240808000000000000000044
:1054E8009529080897290808252B3033643A253070
:1054F80032750025592D256D2D25645425483A25EA
:105508004D3A2553257A0061736374696D6500000F
:105518000000000000000000052D0808292D0808DB
:10552800352D080879280808112D08081D2D0808A8
:10553800172D0808232D0808072D08080B2D080823
:105548000000000000000000DD2D0808212E0808DA
:10555800FB2D080879280808F52D0808DF2D08080C
:10556800E72D08081B2E0808EF2D0808D92D080874
:1055780053756E4D6F6E54756557656454687546FE
:1055880072695361744A616E4665624D6172417019
:10559800724D61794A756E4A756C417567536570CD
:1055A8004F63744E6F76446563252E337320252E22
:1055B800337325336420252E32643A252E32643A1B
:1055C800252E32642025640A000020202020202077
:1055D800202020282828282820202020202020209B
:1055E800202020202020202020208810101010109B
:1055F80010101010101010101010040404040404EB
:1056080004040404101010101010104141414141CD
:105618004101010101010101010101010101010132
:1056280001010101011010101010104242424242C3
:105638004202020202020202020202020202020202
:1056480002020202021010101020000000000000E8
:105658000000000000000000000000000000000042
:105668000000000000000000000000000000000032
:105678000000000000000000000000000000000022
:105688000000000000000000000000000000000012
:105698000000000000000000000000000000000002
:1056A80000000000000000000000000000000000F2
:1056B80000000000000000000000000000000000E2
:1056C80000000000000000000000000000000000D2
:1056D80000000000000000000000000000000000C2
:1056E80000000000000000000000000000000000B2
:1056F80000000000000000000000000000000000A2
:105708000000000000000000000000000000000091
:105718000000000000000000000000000000000081
:105728000000000000000000000000001F00000052
:105738001C0000001F0000001E0000001F000000E9
:105748001E0000001F0000001F0000001E000000D7
:105758001F0000001E0000001F0000001F000000C6
:105768001D0000001F0000001E0000001F000000B8
:105778001E0000001F0000001F0000001E000000A7
:105788001F0000001E0000001F000000545A0047C0
:105798004D54002531305B5E302D392C2B2D5D2585
:1057A8006E004D256875256E2E256875256E2E258B
:1057B8006875256E002F256875256E3A256875254C
:1057C8006E3A256875256E00CD0E08081D1208086A
:1057D80069130808711A080819240808DD2408083C
:1057E80079290808512B0808F12C080845320808BF
:1057F80075320808E1320808A53308082934080872
:08580800AD34080800000000A7
:045810000000000094
:10581400010000003075000007530808905F010084
:10582400E8030000C8AF0000D8520808E052080896
:10583400E5520808EA520808EE520808F35208082C
:10584400F8520808FC5208080F550808D1550808F2
:1058540000000000D4560808F45608081457080835
:105864000000000000000000000000000000000034
:105874001B500808000000000000000000000000A9
:105884000000000000000000000000000000000014
:105894000000000000000000000000000000000004
:1058A40000000000000000000000000000000000F4
:1058B4004004002097570808975708080100000083
:1058C400000000004A00000000000000000000008A
:1058D40000000000000000000000000000000000C4
:1058E4004A0000000000000000000000000000006A
:1058F400000000000000000000000000540C002024
:10590400FFFFFFFF00000102030405060708090A60
:105914000B0C0D0E0F101112131415161718191A5B
:085924001B1C1D1E1F202800A2
:04592C007856341263
:0400000508080018CF
:00000001FF
