:020000040808EA
:1000000000000808BC530808000005000A000501AC
:080010000402EA0300000000F5
:10001800184B080809480A4908B5884205D0094A12
:10002800824202D0121A04F0B1F80748074A0021A8
:10003800121A04F0B6F8064808BD00BF00040020F4
:10004800A4520808F0040020F00400200C0C002042
:100058000C0C002070B502F0A5FD074B074C1E469E
:10006800E41AA4080025A54204D056F8253098477C
:100078000135F8E770BD00BF6052080894520808BF
:1000880000F01CBD08B500F0D3F9BDE8084002F047
:100098004BBD01F07FBA01F085BA0078B0FA80F064
:1000A800400970470123037070470000014B01228B
:1000B8001A7070479D05002008B5044902F09BFAA4
:1000C80018B1034B03221A70012008BDE04E08083E
:1000D8002D05002001F052B801F058B837B5054693
:1000E8009DF8184023438DF800303C2301F0F6FCBE
:1000F800284603B030BD000030B58FB0104904A8C1
:1001080001F0A4FA04A801F0FAFA044604A801F0E0
:1001180055FB054604A801F039FB03F041F9CDE988
:100128000201284603F03CF9CDE90001054B064AD7
:1001380053F824304021054801F054FA0FB030BD7F
:10014800C4050020180400206C4B08083C0500205A
:1001580008B50D4800F04CFF0C4B18600A4800F039
:1001680059FF0B4B002218601146104601F0FAF9AE
:1001780008B1FFF7C1FF074801F060FE03F09AFEDF
:10018800054B1860012008BD1005002090050020CF
:100198001C050020240500203805002000232DE937
:1001A800D0431A461946184601F0E4F940F2E736FA
:1001B80001F098F94FF496740027002000F0FEFF34
:1001C80080464FF00009002000F0F8FFB0EB08006F
:1001D80061EB09018F4208BF864205D301F092F90D
:1001E80010B901F077F9EEE701F08CF918B1BDE824
:1001F800D04301F087B900F0A9FF034B186001F064
:1002080069F9013CF3D0D8E7D00A002008B501F01D
:1002180071F9002318461A46194601F0B3F94FF44C
:100228007A7001F0F7F9012008BD00001FB51F48DA
:1002380001F006FF1D4802F0A7F81D4B1C781D4B66
:10024800BCB1142241F2E82118481A6001F071FF8C
:100258004FF46171154801F0F6FF00221146029231
:10026800019200920123114802F035F841F2700121
:1002780016E01E2241F270010C481A6001F059FF85
:1002880040F2DC51094801F0DEFF012321460294C7
:10029800019400941A46054802F01DF841F2100135
:1002A800024804B0BDE8104002F048B82E0500200E
:1002B800AE0500200405002008B500F047FF054BF7
:1002C8001B68C01A044B1B68984234BF00200120E9
:1002D80008BD00BF300500200C04002008B5FFF75A
:1002E800EBFF18B1BDE80840FFF7E6BF01F0F2F8F0
:1002F800F5E7000037B501F0FDF800F027FF43F6F9
:100308009725044601F0FEF840B100F01FFF001BDE
:10031800A84203D8642001F07DF9F3E70021094BD6
:1003280047F23052084600F0E1FE4FF47A7001F0CF
:1003380071F9054B0A221B680121684602F08EF903
:1003480003B030BD854B08088405002008B501219D
:10035800062002F088FC0021062002F084FC024BF3
:1003680000221A7008BD00BF9D05002038B504683A
:1003780005467CB16368013B63605BB9236820462E
:100388009B689847A368013BA3601BB92368204674
:10039800DB689847284638BD10B51A4BCAB01B68A9
:1003A80000240693184B1B680593184B1B6804938D
:1003B800174B186802F0F4FFCDE90201154B1868D5
:1003C80002F0EEFF144ACDE900014FF480710AA84B
:1003D80001F008F9114B0AAA1B78114908A88DF8F1
:1003E8000040FFF77BFE09A8FFF7C0FF02F016FAEE
:1003F8000C4B187002F026FA0B4B18700B4B1C7044
:100408004AB010BD340500207C05002038050020C6
:100418001C05002090050020924B08080C050020C0
:10042800E24B0808800500202F0500201404002056
:100438007FB5A14C2378013B052B00F28381DFE8CF
:1004480013F0190106002C0042007D00AF009B4B01
:100458001B780BB1FFF77AFF994B1B7863B9994B5F
:100468001B784BB100F072FE974B1A68974B1B68CC
:1004780013448342C0F0638102F0D0F9944B1B7897
:1004880098421CBF03232370924B1A68924B1B6837
:100498009A4200F35781052313E0FFF759FE0546FA
:1004A80070B9012323708D4B1B78002B00F04A8113
:1004B800FFF714FF8A4B8B4A1B788DF80050CEE06B
:1004C800062323703EE1884B1C781D4664BB01F06F
:1004D80019F8D0B1814B1B788BB1FFF7FFFE804B29
:1004E800824A1B78824902A88DF80040FFF7F6FD82
:1004F80003A8FFF73BFF00F029FE7E4B18604FF47E
:100508007A7001F087F8FFF781FE02F0FBFB7A4B67
:1005180002201978FFF7E0FD784B002107201970B9
:1005280002F0A1FB01232B7002F082F9744BC0F199
:100538003C003C221B68424302212DE000F0E2FF10
:10054800D8B1664B1B7893B1FFF7C8FE644B002205
:100558001B7867498DF8002002A86A4AFFF7BEFD9C
:1005680003A8FFF703FF00F0F1FD624B18604FF49A
:100578007A7001F04FF8FFF749FE604B0021072021
:10058800197002F070FB02F053F93C22C0F13C00F4
:100598005B4B42431B68012102A802F05FF8D1E0DF
:1005A80000F0B0FF10B9FFF7F9FDCBE0444D2B7810
:1005B800EBB94A4B1B788BB1FFF790FE484B524A78
:1005C8001B784B498DF8003002A8FFF787FD03A878
:1005D800FFF7CCFE00F0BAFD464B186000F0B6FD00
:1005E8004A4B186001232B70FFF7D6FEAAE0484B50
:1005F8001E78F6B1394B1B7893B1FFF76FFE384B75
:1006080000221B783A498DF8002002A8414AFFF7DA
:1006180065FD03A8FFF7AAFE00F098FD354B1860AA
:100628000223237000232B7000F090FD264B1860E6
:1006380088E000F08BFD354B1A68374B1B68134474
:1006480098427FD301232370244B1B78002B79D049
:10065800FFF744FE224B314A1B788DF8006024498D
:1006680002A8FFF73BFD03A8FFF780FE00F06EFD30
:10067800204BDCE700F06AFD294B1A68294B1B6800
:10068800134498425ED9164B00241B78264A184911
:1006980002A88DF80040FFF721FD03A8FFF766FECA
:1006A8004FF4FA6000F0B6FF134B1B68032B3DDCD8
:1006B80001F0D0FF46E000BF2D0500209D05002079
:1006C8009C0500208E0500209405002008040020C9
:1006D8008005002038050020040500208F05002033
:1006E8000C050020F54B0808C0050020154C08082B
:1006F8000F4C0808300500207C0500202C05002040
:1007080084050020244C08083B4C080808050020F4
:1007180014040020454C0808100400204A4C08081E
:100728009805002000040020664C080802F0EAFA48
:1007380021460220FFF7D0FCFFF7DCFD02E004238E
:10074800237099E604B070BDF0B585B0084602AFD5
:100758000D4603F084FD00F1080323F007036E46FD
:10076800ADEB030D02AC421C2946204603F094FD74
:100778009DF80820144D22B92B788DF80020134AD3
:1007880016E0204603F0F8FBC838002201282B7831
:100798008DF800200BD80E4A0E493846FFF79EFC0C
:1007A800381DFFF7E3FD0C4B01221A7007E02246C3
:1007B80038460A49FFF792FC381DFFF7D7FDB546C2
:1007C8000C37BD46F0BD00BF0C0500207E4C080864
:1007D800934C08080F4C080814040020864C08089D
:1007E80030B5244985B0054601F005FF0446D0B16F
:1007F800214B01241C7002F085FA0420FFF76AFCE3
:100808001E4D40F00400287002F07CFA297804207C
:10081800FFF762FCFFF70AFD194B00221B788DF8E1
:100828000020184A1CE01849284601F0E4FEF8B1F7
:10083800114B124D1C7002F065FA0420FFF74AFCB8
:1008480020F00400287002F05DFA29780420FFF7F0
:1008580043FCFFF7EBFC0A4B0C4A1B788DF8004071
:100868000B4902A8FFF73AFC03A8FFF77FFD012018
:1008780005B030BDE04E0808AE050020BF050020D9
:100888000C050020A54C0808F04D0808BC4C0808C9
:10089800D24C080830B5224985B0054601F0ABFEB8
:1008A8000446C0B11F4B01241C7002F02BFA04202F
:1008B800FFF710FC1C4D40F00800287002F022FAE7
:1008C80029780420FFF708FC184B00221B788DF8C4
:1008D8000020174A1AE01749284601F08CFEE8B1B3
:1008E800104B114D1C7002F00DFA0420FFF7F2FBBB
:1008F80020F00800287002F005FA29780420FFF794
:10090800EBFB0A4B0C4A1B788DF800400B4902A8F8
:10091800FFF7E4FB03A8FFF729FD012005B030BD70
:10092800E04E08088F050020BF0500200C050020B8
:10093800D74C0808F04D0808E84C0808D24C0808BD
:1009480070B5CCB00A2205A9006803F03FFDC5B216
:1009580005F10C03DBB2182B3DD844B2204603F056
:100968008FF801F0F5FE02F0CDF929460320FFF7D4
:10097800B3FB01F04CFF194E194D23463060194A5C
:100988004FF4807100240CA800F02CFE2B780CAAE0
:10099800154908A88DF80040FFF7A0FB09A8FFF744
:1009A800E5FC4FF47A7000F035FE316808A801F0D4
:1009B800EBFE089B0C490393039A2B7806A88DF845
:1009C8000040FFF78BFB07A8FFF7D0FC08A801F051
:1009D8009EFD012000E000204CB070BD20050020E5
:1009E8000C050020FD4C0808114D08087FB5264964
:1009F800054601F000FE28B92449284601F0FBFD10
:100A080000283FD002F07EF90420FFF763FB204C5A
:100A18001D492070284601F0EEFD0646A0B11D4B89
:100A280000221B781C498DF8002002A81B4AFFF7FA
:100A380055FB03A8FFF79AFC2378012243F0010332
:100A48002370174B1A7016E01049284601F0D3FDA1
:100A580088B1104B134A1B780F4902A88DF8006023
:100A6800FFF73CFB03A8FFF781FC237803F07E0324
:100A780023700B4B1E7002F045F904202178FFF714
:100A88002BFB012004B070BDE04E0808F04D0808AB
:100A9800BF0500200C050020D24C0808164D080898
:100AA8008E050020204D08080023042200F002BD16
:100AB8000246014800F0F2BE79180808F0B5B9B04E
:100AC80008AA1646884B03F1100514461868596899
:100AD800083303C4AB422246F7D119889B782D22EC
:100AE8002180A37000210DF1330003F05AFB7F4BE6
:100AF8000225012107201D7002F0A4F8002105201D
:100B080002F0A0F80121062002F09CF804A80024B5
:100B180000F000FD00237D2218A904A801F07DFD46
:100B28002346224672490194009418A800F002FD59
:100B380070497148FFF7B8FF23462A466F49704845
:100B480000F0B8FC6F492346042209686E4800F09B
:100B5800B1FC6E496E48FFF7A7FF234601226D4995
:100B68006D4800F0A7FC6D496D48FFF79DFF6D4982
:100B78006D48FFF799FF6D496D48FFF799FF6D497B
:100B88006D48FFF795FF6D496D48FFF791FF6D4977
:100B98006D48FFF78DFF6D496D48FFF789FF02F03B
:100BA800B1F82046FFF796FA012819D102F0AAF801
:100BB8000220FFF78FFA514C00222060114602A84C
:100BC800029200F0B3FA029B142B1ED12368013362
:100BD800236002F097F821780220FFF77DFA14E0ED
:100BE80002F090F80125042202A92046029500F09F
:100BF800D5FA02F087F82846042202A901350294A2
:100C080000F0CCFA0A2DF4D1D0E72368052B07DDD4
:100C180002F078F804210220FFF75EFAFFF76AFB7A
:100C280002F070F80320FFF755FA00F10C03DBB26D
:100C3800182B03D840B202F023FF00E0002001F097
:100C480087FD02F05FF80420FFF744FA314C00F00A
:100C58000103404F2370404D404BC0F38002387071
:100C6800C0F3C0001A702870FFF7E0FAFFF770FAB7
:100C7800052002F011F850B93B78207023F00103E9
:100C88003B7002F03FF804213878FFF725FA237803
:100C98003BB9334B1A68334B1B689A4201DBFFF7A9
:100CA8007DFA0024FFF77AFA4FF0FF33009401220F
:100CB8002D49062001F05AF92B785BB12B4B02A87D
:100CC8001B7832468DF800402949FFF707FA03A838
:100CD800FFF74CFB00F03AFA264B186004A801F025
:100CE80016FC39B0F0BD00BF2C4B08082D050020BC
:100CF800510708083C050020324D08087C050020F3
:100D0800394D080804040020444D0808AF050020A8
:100D18004C4D08088E050020574D0808F4040020A3
:100D2800644D08089E050020704D0808C100080899
:100D3800794D0808F5090808854D0808E9070808E5
:100D4800924D08089D0808089D4D0808490908089B
:100D5800AA4D0808BF0500208F050020AE05002019
:100D68003805002004050020B50008080C050020FF
:100D7800B64D080830050020214B37B500251D6009
:100D8800204B01221A7000F021FA232222211E484A
:100D980000F048F84FF69C731C4C022063804FF615
:100DA800FF732570A38000F039FB02A840F8045DAA
:100DB8002A46294600F0BAF9019B1E2B04D10323C9
:100DC800237011236580A3800021012000F03EFBE1
:100DD8000121042000F09AF900210D4800F0EEFFEF
:100DE8000C4A0D490A4802F027F800210B4801F087
:100DF80035F9084A0A49094802F01EF803B030BD1F
:100E0800840500200C05002010050020880500201E
:100E180024050020F0040020E31D08082E0500200A
:100E28008320080880E8060070472DE9F041002576
:100E38000F4698462C4696B2454511DA01213046B0
:100E480001F011FF0A2000F0E5FBB8B201F024FF21
:100E5800640004440021304601F005FF0135EBE74A
:100E68002046BDE8F0812DE9F0411F461646884628
:100E780094B2BDB22046012101F0E4FE28460121CA
:100E880001F0E0FE2046012101F0EDFE2846012197
:100E980001F0E9FE2046002101F0E5FE2846002188
:100EA80001F0E1FE2846012101F0DDFE2046012186
:100EB80001F0D9FE2846002101F0D5FE5FFA88F33B
:100EC8000122F9B2F0B201F0FAFE2846012101F040
:100ED800CAFE0021204601F0B5FE204601F0DCFEE6
:100EE8002846002101F0BFFE2046BDE8F04101F090
:100EF800D3BE38B58DB22846002101F0A3FE642484
:100F08000A2000F087FB284601F0C6FE08B1013C24
:100F1800F6D138BD2DE9F843164680460D468CB209
:100F2800B7B22046002101F08DFE3846012101F0BC
:100F380089FE3246082329464046FFF776FF0121FD
:100F48004FEA0029204601F07DFE2046012101F0EC
:100F58008AFE2046002101F086FE3846012101F074
:100F680082FE3846002101F07EFE2046002101F075
:100F780069FE0823324629464046FFF756FF49EAEC
:100F88000000BDE8F88338B514468DB2A4B22846EF
:100F9800012101F057FE2046012101F053FE2846A9
:100FA800012101F060FE2046012101F05CFE20468F
:100FB800BDE83840002101F056BE38B5044690E837
:100FC8000C000321FFF74FFF21682046FFF791FF30
:100FD80094E806002046FFF79DFF94E806000546C2
:100FE8002046FFF7D0FF284602F04AFD38BD000032
:100FF80008B5FFF7E2FF02F05DFF02F041FD03498B
:1010080002F092FD024902F085FC08BD0AD7233C94
:1010180000002042F8B5044690E80C000521FFF7CF
:1010280022FF21682046FFF764FF94E80600204667
:10103800FFF770FF94E8060005462046FFF7A3FF78
:10104800284602F01DFD1F49054602F06DFD4FF0D0
:10105800814102F05FFC1C490646284602F064FD07
:10106800294602F061FD0146304602F055FC06466D
:101078002046FFF7BDFF15490746284602F054FDF4
:10108800134902F049FC02F08BF9044638460D4634
:1010980002F086F900220F4B02F022F802460B46B6
:1010A8002046294602F0D0F9044630460D4602F0A3
:1010B80077F902460B462046294602F013F802F05B
:1010C800D5FBF8BD54E3253DA2E73BB6ACC5A73830
:1010D8000AD7233C0000394000F078B808B5024B25
:1010E8001B685B6C019308BD2000060808B5024B1D
:1010F8001B689B6C019308BD2000060808B5024BCD
:101108001B681B6B019308BDD001040808B5024B8E
:101118001B685B6E019308BDB801040808B5024B53
:101128001B689B6E019308BDB801040808B5024B03
:101138001B68DB6E019308BDB801040808B5024BB3
:101148001B685B68019308BD9C01040808B5024B45
:101158001B685B69019308BD9C01040808B5024B34
:101168001B68DB69019308BD9C01040808B5024BA4
:101178001B689B6A019308BD9C01040808B5024BD3
:101188001B68DB6A019308BD9C01040808B5024B83
:101198001B681B6B019308BD9C01040808B5024B32
:1011A8001B689B6C019308BD9C01040808B5024BA1
:1011B8001B689B6D019308BD9C01040808B5024B90
:1011C8001B68DB6D019308BD9C01040808B5024B40
:1011D8001B681B68019308BDB001040808B5024BE1
:1011E8001B689B68019308BDB001040808B5024B51
:1011F8001B68DB68019308BDB001040808B5024B01
:101208001B681B69019308BDB001040808B5024BAF
:101218001B685B69019308BDB001040808B5024B5F
:101228001B689B69019308BDB001040808B5024B0F
:101238001B68DB69019308BDB001040808B5024BBF
:101248001B68DB68019308BDAC01040808B5024BB4
:101258001B685B69019308BDAC01040808B5024B23
:101268001B689B69019308BDAC01040808B5024BD3
:101278001B68DB69019308BDAC01040808B5024B83
:101288001B681B6A019308BDAC01040808B5024B32
:101298001B685B6A019308BDAC01040808B5024BE2
:1012A8001B689B6A019308BDAC01040808B5024B92
:1012B8001B68DB6A019308BDAC01040808B5024B42
:1012C8001B681B6B019308BDAC01040808B5024BF1
:1012D8001B685B6B019308BDAC01040808B5024BA1
:1012E8001B681B6C019308BDAC01040808B5024BD0
:1012F8001B689B6C019308BDAC01040808B5024B40
:101308001B68DB6C019308BDAC01040808B5024BEF
:101318001B68DB69019308BDB401040808B5024BDA
:101328001B681B6A019308BDB401040808B5024B89
:101338001B689B69019308BDC401040808B5024BEA
:101348001B685B6A019308BDC401040808B5024B19
:101358001B689B6A019308BDC401040808B5024BC9
:101368001B68DB6A019308BDC401040808B5024B79
:101378001B681B6B019308BDC401040808B5024B28
:101388001B685B6B019308BDC401040808B5024BD8
:101398001B689B6B019308BDC401040808B5024B88
:1013A8001B681B6C019308BDC401040808B5024BF7
:1013B8001B681B68019308BD1C00060808B5024B92
:1013C8001B681B69019308BD1C00060808B5024B81
:1013D8001B685B69019308BD1C00060808B5024B31
:1013E8001B689B69019308BD1C00060808B5024BE1
:1013F8001B68DB69019308BD1C00060808B5024B91
:101408001B681B6A019308BD1C00060808B5024B3F
:101418001B681B68019308BDA401040808B5024BAA
:101428001B685B68019308BDA401040808B5024B5A
:101438001B685B69019308BDA401040808B5024B49
:101448001B689B69019308BDA401040808B5024BF9
:101458001B68DB6A019308BDA401040808B5024BA8
:101468001B68DB6C019308BDA401040808B5024B96
:101478001B685B6D019308BDA401040808B5024B05
:101488001B689B6D019308BDA401040808B5034BB4
:101498001B68D3F89030019308BD0000A40104082C
:1014A80008B5034B1B68D3F89C30019308BD0000B6
:1014B800A401040808B5024B1B681B68019308BD0A
:1014C800CC01040808B5024B1B685B68019308BD92
:1014D800CC01040808B5024B1B689B68019308BD42
:1014E800CC01040808B5024B1B68DB68019308BDF2
:1014F800CC01040808B5024B1B681B69019308BDA1
:10150800CC01040808B5024B1B685B69019308BD50
:10151800CC01040808B5024B1B68DB69019308BDC0
:10152800CC01040808B5024B1B681B6A019308BD6F
:10153800CC01040808B5024B1B685B6A019308BD1F
:10154800CC01040808B5024B1B681B6B019308BD4E
:10155800CC01040808B5024B1B68DB6B019308BD7E
:10156800CC01040808B5024B1B681B69019308BD30
:10157800C801040808B5024B1B685B69019308BDE4
:10158800C801040808B5024B1B689B69019308BD94
:10159800C801040808B5024B1B681B68019308BD05
:1015A800A001040808B5024B1B685B68019308BDDD
:1015B800A001040808B5024B1B689B68019308BD8D
:1015C800A001040808B5024B1B681B69019308BDFC
:1015D800A001040808B5024B1B689B69019308BD6C
:1015E800A001040808B5024B1B68DB69019308BD1C
:1015F800A001040808B5024B1B68DB6A019308BD0B
:10160800A001040808B5024B1B681B6B019308BDB9
:10161800A00104080021FFF709BF10B5836804463C
:101628000BB901F00EFCC3689847A3681BB10322ED
:101638002146204698472046BDE81040FEF72BBDBE
:10164800002211461046FFF78DBF000070B51B4BF6
:10165800002503601826283388B043608560C5607C
:10166800324629460446103002F09BFD2A46294698
:101678002846FFF777FF08B9A0601BE029463246E5
:1016880002A80095019502F08CFD02A96846ADF804
:101698000860FFF723FD10B10123A3600AE0009B57
:1016A800019AA360E2600BB90223A36002A9204655
:1016B80000F09CF8204608B070BD00BF084E08082E
:1016C80038B50B4C28252A460021204602F069FD32
:1016D8004FF0FF3363602580064C074B20462C25CE
:1016E80040F8043B2A46002102F05BFDA58038BD86
:1016F800F4050020C4050020FC4D08087047007D53
:101708007047000008B5037D1BB18069B0F1004F38
:1017180001D1002008BD02F0B3F9024902F0B8FA7D
:1017280008BD00BF0000C84208B5037D1BB1006AB0
:10173800B0F1004F01D1002008BD02F0A1F9024923
:1017480002F0A6FA08BD00BF0000C84270B50D46F9
:1017580006460A228168284600F0A4FE2C21044689
:10176800284600F04EFE0A220444F168284600F09C
:1017780099FE204470BDA0F10400FFF7E7BF10B543
:101788000446FEF788FC204610BD000008B5037D1E
:101798005BB1406A002808DB02F072F9044902F0E4
:1017A80077FA044902F0C0F908BD034808BD00BF34
:1017B80000FF7F470000C842000080BF08B5037DD6
:1017C8005BB1C069002808DB02F05AF9044902F04D
:1017D8005FFA044902F0A8F908BD034808BD00BF34
:1017E80000FF7F470000C842000080BF30B50D46AB
:1017F80000F110040FCD0FC495E8030084E803003E
:10180800012030BD70470020704710B50446FEF730
:1018180042FC204610BD08B508B1FFF7F6FF08BD29
:1018280010B58368044613B1032201469847204641
:1018380010BD38B5C468D4B12378022B02D1E06852
:10184800FFF7B0FE65682DB12846FFF7E9FF284687
:10185800FEF721FCA5682DB12846FFF7E1FF2846D1
:10186800FEF719FC2046BDE83840FEF714BC38BD29
:1018780010B588B00446684600F090FE694604A892
:1018880000F0AEFE04A8A047044604A800F03FFEFE
:10189800684600F03CFE204608B010BDF0B507468B
:1018A8000E46154685B0102422460021684602F0EF
:1018B80078FC002269461046ADF80040029703966E
:1018C8000195FFF7FFFD05B0F0BD13B5044691E89B
:1018D800050000234B600B602060626001A8019343
:1018E8000093FEF743FD204602B010BD0B6803606D
:1018F80013B15A6801325A607047F7B50C4606466C
:101908000F4654F8043B02AD45F8083D214601A8AE
:10191800FFF7ECFF29463046FFF7D7FF01A8FEF78F
:1019280025FD2046FEF722FD3846FEF7B4FB30467B
:1019380003B0F0BD13B50B46044603C88DE8030099
:1019480093E8030084E803009DE8030083E80300AC
:1019580002B010BD826810B50AB901F072FAC36806
:10196800BDE81040184708B5006800F11001FFF7FE
:10197800F1FF08BD826810B50AB901F062FAC368C0
:10198800BDE81040184708B5006800F11001FFF7DE
:10199800F1FF08BD38B5002383608B6804460D4607
:1019A8002BB102229847EB68E360AB68A36020463E
:1019B80038BD00002DE9F0414FF69C7304684FF0E4
:1019C800020086B0B1F904208B8000230F688DF8DF
:1019D80000300B60D4E84F1F994203D1C4E8450F8B
:1019E800002DF7D102D08DF800106BE014F10C0532
:1019F8001CBFE7602282BFF35F8F18BF1F46012319
:101A08006370BFF35F8F04F10803002053E8006F91
:101A180043E80002002AF9D1BFF35F8F002E51D0AE
:101A2800FFF71CFD20B129463046FFF793FF43E03E
:101A380031466846FFF7AEFFE068B4F9105008B1C8
:101A480002F0F2FB04901020ADF81450FEF721FBD1
:101A5800054630B34FF00008C0F808801820FEF79C
:101A680018FB0446C0B1C0F8088001466846FFF775
:101A780061FF029BA268A360039B0292E268E36095
:101A8800BDF814300392A3824FF69C73ADF814305E
:101A9800049BCDF8108023610D4B2C60EB600D4B3F
:101AA800AB600498FFF77EFD6846FFF7B9FE002299
:101AB80029460948FFF7DAFC3046FFF7B1FE304601
:101AC800FEF7E9FA3846FFF76DFD06B0BDE8F0818C
:101AD8006F190808CD1B0808231608082DE9F04FD0
:101AE8008BB007AD4FF0000B0646994614200C2327
:101AF8000F4690469DF850A0C5F804B0C5F808B048
:101B08000793FEF7C6FA044638B180F800B080F8AB
:101B180001B0C0F804B0C0F808B000231020039446
:101B28000493FEF7B6FA28B1012343608360234B80
:101B3800C4600360224B049008200893FEF7A9FABA
:101B4800044628B1039B04A940F8043BFFF7CEFEE6
:101B580000955FFA8AF34A46414638460994FFF7EA
:101B6800E1FCB8B9039B5B7803F0FF0293B94FF629
:101B78009C7305A903A80592ADF81830FFF71AFF62
:101B88000598FFF70FFD05A80999FFF7B6FE06A807
:101B9800FEF7ECFB039B04A906A80593FFF7A6FE36
:101BA80005A93046FFF791FE06A8FEF7DFFB04A85B
:101BB800FEF7DCFB30460BB0BDE8F08F3C4E080862
:101BC800351D0808022AF8B5044606D0032A17D09E
:101BD800012A20D10B6803601DE018200E68FEF76B
:101BE80058FA054650B13146FFF7D4FE3069B6F9C8
:101BF800147008B102F018FB2861AF8225600AE072
:101C0800046844B12069FFF7CDFC2046FFF708FEC1
:101C18002046FEF740FA0020F8BD38B5002383605F
:101C28008B6804460D462BB102229847EB68E360A7
:101C3800AB68A360204638BD022A70B5044606D0BA
:101C4800032A11D0012A17D10B68036014E014206D
:101C58000E68FEF71EFA054620B13146FFF7DDFF94
:101C6800337C2B74256007E004682CB12046FFF70D
:101C7800D7FD2046FEF70FFA002070BDF0B50C46E0
:101C8800BFF35F8F87B0002350E8006F40E8003251
:101C9800002AF9D1BFF35F8F002E3ED01846FFF718
:101CA800DDFB074620B121463046FFF763FE2EE0F4
:101CB800314601A8FFF7B1FF237810208DF81430C2
:101CC800FEF7E7F90546D0B187601420FEF7E1F981
:101CD800044678B18760014601A8FFF72BFE039BF5
:101CE800A268A360049B0392E268E3609DF8143045
:101CF800049223740A4B2C60EB600A4BAB6001A87A
:101D0800FFF78EFD002229460748FFF7AFFB304654
:101D1800FFF786FD3046FEF7BEF907B0F0BD00BFFD
:101D28008F190808411C08082316080830B504460E
:101D380085B00D4668461146FFF7DFFD7CB124B239
:101D480028460DB102F070FA029002A96846ADF873
:101D58000C40FFF72FFE0298FFF724FC1DE04FF020
:101D6800010200988DF80840D0E84F3FA34203D104
:101D7800C0E8412F0029F7D102D08DF808300CE0D7
:101D880010F10C014FF0010318BF0373BFF35F8F0D
:101D9800043000F8033CFFF771FF01A8FEF7E6FAEC
:101DA80005B030BD006800F0CEB810B5044601603B
:101DB80002710AB1FFF7F6FF204610BD38B5044698
:101DC8000D4600F0D3FF2A4601462046FFF7EDFFF7
:101DD800204638BD006800F0BFB810B50379044646
:101DE8000BB1FFF7F7FF204610BDF8B504460F46C4
:101DF80016461D46FFF7D6FF2068362100F098F8F2
:101E08002068394603689B6898470121206800F0DC
:101E180092F8022236210123206800F080F8206819
:101E280003685B6998473070206803685B69984766
:101E380028702046BDE8F840FFF7CCBF13B5002254
:101E480002AB03F8012D8DF8062004210DF10602DE
:101E5800FFF7CBFF9DF8070001F090FA0022084B2E
:101E680001F0F2FA01F002FD04469DF8060001F0C7
:101E780007FE0146204601F04FFD02B010BD00BF2D
:101E88000000703F7047F8B5064615460C468F1897
:101E9800BC4206D0336814F8011B9B68304698474B
:101EA800F6E72846F8BD0022007CFFF7E7B90021D5
:101EB800007CFFF7EBB90021007CFFF7EFB90021A8
:101EC800007CFFF7F3B90021007CFFF7F7B910B5E4
:101ED8000446FEF7E0F8204610BD000010B50446A1
:101EE80008464FF47A73A360044B002120746160A4
:101EF8002360FFF7F3F9204610BD00BF584E0808CD
:101F080000231A461946007CFFF798B913B5002438
:101F1800007C0094FFF79AF9C0B202B010BDDBB2A2
:101F2800D2B2C9B2FFF7F2BF0022007CFFF796B920
:101F3800C9B2FFF7F9BF0022007CFFF797B900216B
:101F4800007CFFF7C3B908B50021007CFFF7CEF984
:101F5800B0FA80F0400908BD08B50021007CFFF701
:101F6800CDF9B0FA80F0400908BD004707282DE9EF
:101F7800FF4105460F4690461E464FF0000419D013
:101F8800FFF754F9A6424FF0040303948DF80C3080
:101F9800A2BF9DF8283003AC8DF80E302846009477
:101FA80043463A460549A8BF8DF80D60FFF736F954
:101FB800012000E0204604B0BDE8F081731F080846
:101FC800704710B50446FEF766F8204610BDF8B510
:101FD8000F4600F10806051D002416F8011D0A2207
:101FE800384600F03BFAAE42044407D0002CF4D047
:101FF8002E21384600F005FA0444EEE72046F8BDE5
:1020080010B59DF8084044EA032343EA024242EA35
:102018000161416010BD000037B5044D05609DF8B1
:1020280018500095FFF7ECFF03B030BD804E08084C
:10203800014A024B1A607047414F08081C060020ED
:1020480008B500F093FEFFF75BFF012008BD08B557
:1020580000F08CFEBDE80840FFF775BF10B50446D8
:10206800017009B1FFF7F3FF204610BD08B500F075
:102078007DFEBDE80840FFF76FBF10B50378044642
:102088000BB1FFF7F3FF204610BD10B504460068FA
:10209800FFF7ECFF204610BD37B502AC0D4644F8FB
:1020A800040DFFF7D4FF00F061FE6B21FFF740FF3E
:1020B80000F05CFE036829469B68984700F056FECE
:1020C8000121FFF738FF00F051FE01231A466B216A
:1020D800FFF725FF00F04AFE03685B69984705464D
:1020E8002046FFF7D2FFE8B203B030BD73B502ACAB
:1020F80015460E4644F8040DFFF7A9FF00F036FE1A
:102108006B21FFF715FF00F031FE036831469B682D
:10211800984700F02BFE036829469B68984700F013
:1021280025FE0121FFF707FF2046FFF7AEFF02B0AB
:1021380070BD37B504460D460190FFF788FF0021B2
:102148002046FFF7A9FF41F258139D4200F087028D
:102158005BD020D841F218039D424DD00CD840F6F0
:1021680078739D4242D040F6C8739D4241D040F6F4
:1021780028739D4260D159E041F2B8039D423ED098
:1021880041F208139D423DD041F268039D4253D16C
:1021980042F020024AE041F298239D423ED00ED8F8
:1021A80041F2F8139D4233D041F248239D4232D088
:1021B80041F2A8139D423FD142F0400236E041F27D
:1021C80038339D422DD006D841F2E8239D4233D1C1
:1021D80042F060022AE041F288339D4224D041F265
:1021E800D8339D4228D142F078021FE042F008021D
:1021F8001CE042F0100219E042F0180216E042F02A
:10220800280213E042F0300210E042F038020DE0FC
:1022180042F048020AE042F0500207E042F0580259
:1022280004E042F0680201E042F07002204600211A
:10223800FFF75CFF012400E0002401A8FFF725FF59
:10224800204603B030BD37B504460D460190FFF770
:10225800FEFE00212046FFF71FFFB5F5617F00F065
:10226800F80223D007D8962D1AD0B5F5FA7F1AD0E0
:10227800642D29D122E040F2DC539D4219D005D8C3
:10228800B5F5966F20D142F0040217E0B5F5FA6F64
:1022980012D040F6B8339D4216D142F007020DE045
:1022A80042F001020AE042F0020207E042F00302B3
:1022B80004E042F0050201E042F006022046002157
:1022C800FFF714FF012400E0002401A8FFF7DDFE5A
:1022D800204603B030BDF7B50C46174605461E46E6
:1022E8000190FFF7B4FE002C0CBF0024802417B126
:1022F80044F04004E4B20EB144F020049DF82030CC
:102308000BB144F010049DF824300BB144F00804DC
:102318009DF828300BB144F0040402212846FFF749
:10232800BBFE00F00102224302212846FFF7DEFE31
:1023380001A8FFF7AAFE012003B0F0BD37B5044697
:102348000D460190FFF783FE04212046FFF7A4FE07
:1023580041F210039D4200F0030206D041F27003DF
:102368009D420AD142F0B00201E042F098022046B4
:102378000421FFF7BBFE012400E0002401A8FFF7B9
:1023880084FE204603B030BD37B5054602AC44F89C
:10239800040DFFF75CFE05212846FFF77DFE0521A9
:1023A80000F0CE022846FFF7A1FE2046FFF76DFE9B
:1023B800012003B030BDF8B506460D468F1800243D
:1023C800BD420CD0336815F8011B9B68304698470E
:1023D800002801DB0444F3E7002C08BF044620462C
:1023E800F8BD70B505460C46084649B101F037FFFF
:1023F8002B68024621462846BDE87040DB6818472E
:1024080070BD03689B681847012A98BF0A2230B537
:102418000B468BB000218DF824100DF12304B3FB7B
:10242800F2F505FB1233DBB2092B94BF3033373397
:10243800DBB2214604F801392B46002DEFD1FFF716
:10244800D0FF0BB030BD10B422B90368C9B29B6885
:1024580010BC1847D2B210BCFFF7D6BFFFF7F3BFC6
:102468002DE9F04107460E4615462AB9BDE8F04168
:102478000368C9B29B6818470A2A02D1002901DA01
:1024880004E0D2B2BDE8F041FFF7BEBF2D21FFF74F
:10249800B8FF2A46044671423846FFF7B5FF204484
:1024A800BDE8F081FFF7DCBF10B50446FFF7B8F9C7
:1024B800204610BD034800238360034A034900F007
:1024C800BBBC00BF20060020F0040020B12408088F
:1024D800704710B50446FDF7DEFD204610BD00002C
:1024E80070B504460E46074B0025036040F80C5FA4
:1024F800FEF704FE30462671FEF708FFA560204669
:1025080070BD00BF744F08080079FEF707BF10B50B
:1025180004460068FFF746F8204610BD10B504468B
:10252800006808B1FFF73EF800232360A3606360EA
:1025380010BD38B504460D4600680131FFF73AF87A
:1025480010B184E82100012038BD10B503680446A5
:1025580013B143688B4207D22046FFF7EAFF20B148
:10256800A3680BB922681370012010BD70B50E4620
:10257800114604461546FFF7E8FF18B92046FFF74D
:10258800CDFF09E02A463146A560206801F0FEFD2E
:102598002268A3680021D154204670BD38B50023B5
:1025A800044603604360836003730D4639B10846EF
:1025B80001F055FE294602462046FFF7D7FF204680
:1025C80038BD884210B50B46044607D0096819B1D2
:1025D8009A68FFF7CBFF01E0FFF7A0FF204610BD88
:1025E80010B5044600230360436083600373FFF75C
:1025F800E8FF204610BD08B582680B4612B919B924
:10260800012008BD11B90368187802E0006801F0DC
:10261800F9FDB0FA80F0400908BD70B50E469AB1D0
:1026280091B185689D4202D800230B7070BD541E7D
:10263800ED1AAC4228BF2C460168224619443046A0
:1026480001F02AFE0023335570BD014600228C207C
:10265800FEF764BD0020FFF7F8BF000010B5044680
:10266800084611461A460023FEF7E8FE074B0022EB
:102678001A704FF69C725A804FF6FF729A801A6849
:102688009B882260A380204610BD00BF3006002032
:102698004FF69C7337B50D4C002563804FF6FF73DA
:1026A8002846A3802570FEF7B9FE02A840F8045D0D
:1026B8002A462946FEF73AFD019B1E2B04D1032327
:1026C800237011236580A38003B030BD300600203D
:1026D800F0B5144B144F1E68144B064418683B6839
:1026E80006449E428BB01BD00AA840F8286D01F022
:1026F80055FC0446436901AD03F26C7343610FCC8A
:102708000FC50FCC0FC5D4F800E0094CC5F800E0A0
:1027180001AD0FCD0FC40FCD0FC43E60C4F800E06B
:102728000BB0F0BD6806002064060020600600209B
:102738003806002008B50020FEF704FF28B1FEF790
:10274800E1FE80F00100C0B208BD012008BD000014
:1027580010B50949044601F085FB60B907492046D0
:1027680001F09EFB38B90649204601F0DDF901F079
:10277800A1FB044B186010BD000040C1000060417F
:10278800000061456806002037B50E4B04461B68FB
:1027980002A819440C4B1B68194440F8041D01F0A9
:1027A800FDFB01F0ADFB054601F059FD002328446F
:1027B80000F8013C29462046FFF7F0FE204603B00A
:1027C80030BD00BF680600206006002010B500205C
:1027D800FEF7ECFC044668B9FEF718FE01280BD199
:1027E8002046FEF74BFE38B9FFF7A4FF30B9FEF7D5
:1027F80071FEF9E7012010BD002010BDFFF79AFF18
:102808000020FEF7D3FC003018BF012010BD08B52A
:10281800FFF7DCFFBDE80840FEF7A0BC08B5FFF7EE
:10282800F6FFFFF755FF014B986808BD38060020F2
:1028380008B5FFF7ECFFFFF74BFF014B586808BDE1
:102848003806002008B5FFF7E2FFFFF741FF014B0C
:10285800D86808BD38060020024B1A68024B1A6077
:10286800704700BF380400205C06002070474174A0
:102878007047007CFEF792BD007CFEF767BD007CC8
:10288800FEF774BD007CFEF769BD007CFEF776BDDF
:1028980010B50446FDF7FFFB204610BD70B5457C1A
:1028A80004460E4625B9007CFEF778FD002805DDB4
:1028B8003146207CBDE87040FEF740BD284670BD1B
:1028C80010B5044608461146002262604FF47A7239
:1028D800A260054A20742260012262741A46FEF73B
:1028E80025FD204610BD00BFAC4F0808007CFEF750
:1028F8004DBD000038B50C4D296811F0010411D107
:102908002846FDF7CAFB68B1084A2146084B094822
:10291800FFF7D6FF2846FDF7C5FB074A07490548D4
:1029280000F08AFA034838BD040700200807002091
:10293800800600206C060020F00400207528080896
:102948004174704770470021007CFEF747BD0121A4
:10295800007CFEF743BD007CFEF738BD007CFEF727
:102968002DBD38B50446007C0D46FEF72FFD002826
:1029780001DC607C20B12946207CFEF737FD012070
:1029880038BD007CFEF73ABD10B50446FDF783FB61
:10299800204610BD10B50446002363604FF47A73D7
:1029A800A360054B08462360012321746374114614
:1029B800FEF7FCFC204610BDDC4F080810B50446A5
:1029C8001422002101F0EDFB054B20466360054B06
:1029D800E36040F2011323818123238210BD00BFED
:1029E800110800209007002030B50E4D87B001A8CF
:1029F800FFF7E4FF296811F0010410D12846FDF71C
:102A08004CFB60B101AA21460748FFF7C3FF2846DF
:102A1800FDF748FB054A0649034800F00DFA02484D
:102A280007B030BD8C07002014090020F0040020F6
:102A38004D29080810B504461422002101F0B1FB05
:102A4800054B20466360054BE36040F20113238188
:102A58008123238210BD00BFC40900202C09002057
:102A680010B50E4C86B001A8FFF7E4FF2368DB071A
:102A780010D42046FDF711FB60B101AA01210848D6
:102A8800FFF788FF2046FDF70DFB064A0649044874
:102A980000F0D2F9024806B010BD00BF2809002096
:102AA800B0090020F00400204D29080808B5184B8B
:102AB80033B1FFF799FF03681B69984700281EDCAC
:102AC800144B33B1FFF716FF03681B6998470028BA
:102AD80018DC114B0BB1AFF30080104B0BB1AFF307
:102AE80000800F4B0BB1AFF300800E4B7BB1FFF7AB
:102AF800B7FF03681B699847002806DC08BDAFF3D9
:102B08000080DDE7AFF30080E3E7AFF3008008BDA6
:102B180000000000000000000000000000000000AD
:102B2800000000000000000008B5FFF7BFFFFEF737
:102B38000DFB014B186008BDD00A00200248034A6B
:102B48000349121A01F022BB00400240044002402F
:102B5800A052080807B5002300931A466FF07701C2
:102B6800FEF79EFC03B05DF804FB000007B5438840
:102B78000A2B08D0502B09D1094B1B683BB103B075
:102B88005DF804EB1847FFF7E5FF06E00023009324
:102B98001A466FF07701FEF783FC03B05DF804FB7B
:102BA800C80A002038B5104C104D2368AB42104BB2
:102BB8000CBF012200221A7002D0FFF7BFFF256068
:102BC800FEF7BCFA01F0F6FA0A4B1BB1FEF7B6FAAB
:102BD800AFF3008000210748FEF7BCFCBDE8384091
:102BE80000210548FEF752BC004002401E1C279AEF
:102BF800CC0A002000000000752B080810B5044618
:102C08000F48FFF781FC28B1A4F10D03022B01D86E
:102C1800002010BD00F08AF8FFF791F908B1012CE7
:102C2800F6D9FFF767FEFFF761FE18B1A4F11203AA
:102C3800012BEDD92E2C8CBF0020012010BD00BF28
:102C4800140B00202E2838B504460D460AD8FF2953
:102C580008D0FFF7D3FF28B129462046BDE8384001
:102C6800FEF7BCBA38BD38B504460D46FEF7BEFAC5
:102C7800FF2810D0062804D84D2323FA00F0C307F4
:102C880009D42046FFF7BAFF28B129462046BDE8F7
:102C98003840FEF7B3BA38BD10B50446FEF7A6FAB9
:102CA8000438C0B2012808D92046FFF7A7FF20B191
:102CB8002046BDE81040FEF7A9BA002010BD2DE956
:102CC800F04190461E4607460D460724B8F1000F0E
:102CD80004D1C4F1070146FA01F101E046FA04F112
:102CE80001F001013846FFF7BEFF01212846FFF732
:102CF800BAFF00212846FFF7B6FF14F1FF34E5D2EA
:102D0800BDE8F08110B5074C2368DB0708D42046DE
:102D1800FDF7C3F920B1FEF729FA2046FDF7C2F9FD
:102D2800014810BDD40A0020D80A002038B50B4D40
:102D3800296811F001040FD12846FDF7AEF958B102
:102D480021460748FFF7CAF82846FDF7ABF9054AB8
:102D58000549034800F070F8014838BDDC0A002036
:102D6800F40A0020F00400208D1E080810B50B4C52
:102D78002368DB070FD42046FDF78FF958B10221ED
:102D88000748FFF7ABF82046FDF78CF9054A0649D6
:102D9800034800F051F8024810BD00BF080B00209E
:102DA800E00A0020F00400208D1E080813B5084C26
:102DB80000231A46194600932046FFF72DF92046AE
:102DC800044A054902B0BDE8104000F035B800BF1C
:102DD8000C0B0020F0040020C91F080870B5114E24
:102DE800114D124C00213046FFF77AFB3046104E49
:102DF8002A46214600F020F801213046FFF770FBF3
:102E080030460C4E2A46214600F016F8022130467C
:102E1800FFF766FB2A4621463046BDE8704000F0C1
:102E28000BB800BF140B0020F0040020D9240808B8
:102E3800240B0020340B00200B460146184601F0F5
:102E48009FB808B5FEF7D6FB244B1A68D0075CBFBD
:102E580001221A60224B1A68D1075CBF01221A604E
:102E6800204B1A68D2075CBF01221A601E4B1A68F1
:102E7800D0075CBF01221A601C4B1A68D1075CBFDF
:102E880001221A601A4B1A68D2075CBF01221A6025
:102E9800184B1A68D0075CBF01221A60164B1A68D3
:102EA800D1075CBF01221A60144B1A68D2075CBFB5
:102EB80001221A60124B1A68D0075CBF01221A60FF
:102EC800104B1A68D1075CBF01221A600E4B1A68B2
:102ED800D2075CBF01221A60704700BF700B002048
:102EE8006C0B0020680B0020640B0020600B002096
:102EF8005C0B0020580B0020540B0020500B0020C6
:102F08004C0B0020480B0020440B0020184B1A687B
:102F1800D1075CBF01221A60164B1A68D2075CBF42
:102F280001221A60144B1A68D0075CBF01221A608C
:102F3800124B1A68D1075CBF01221A60104B1A683D
:102F4800D2075CBF01221A600E4B1A68D0075CBF1B
:102F580001221A600C4B1A68D1075CBF01221A6063
:102F68000A4B1A68D2075CBF01221A60704700BF7B
:102F7800900B00208C0B0020880B0020840B002075
:102F8800800B00207C0B0020780B0020740B0020A5
:102F9800184B1A68D1075CBF01221A60164B1A68D1
:102FA800D2075CBF01221A60144B1A68D0075CBFB5
:102FB80001221A60124B1A68D1075CBF01221A60FD
:102FC800104B1A68D2075CBF01221A600E4B1A68B0
:102FD800D0075CBF01221A600C4B1A68D1075CBF8E
:102FE80001221A600A4B1A68D2075CBF01221A60D4
:102FF800704700BFB00B0020AC0B0020A80B0020CE
:10300800A40B0020A00B00209C0B0020980B002094
:10301800940B0020244B1A68D0075CBF01221A6069
:10302800224B1A68D1075CBF01221A60204B1A682C
:10303800D2075CBF01221A601E4B1A68D0075CBF1A
:1030480001221A601C4B1A68D1075CBF01221A6062
:103058001A4B1A68D2075CBF01221A60184B1A680B
:10306800D0075CBF01221A60164B1A68D1075CBFF3
:1030780001221A60144B1A68D2075CBF01221A6039
:10308800124B1A68D0075CBF01221A60104B1A68ED
:10309800D1075CBF01221A600E4B1A68D2075CBFC9
:1030A80001221A60704700BFE00B0020DC0B0020F3
:1030B800D80B0020D40B0020D00B0020CC0B002014
:1030C800C80B0020C40B0020C00B0020BC0B002044
:1030D800B80B0020B40B002081F0004102E000BFD3
:1030E80083F0004330B54FEA41044FEA430594EAC0
:1030F800050F08BF90EA020F1FBF54EA000C55EAFB
:10310800020C7FEA645C7FEA655C00F0E2804FEACB
:103118005454D4EB5555B8BF6D420CDD2C4480EAAD
:10312800020281EA030382EA000083EA010180EADD
:10313800020281EA0303362D88BF30BD11F0004F2B
:103148004FEA01314FF4801C4CEA113102D0404261
:1031580061EB410113F0004F4FEA03334CEA13339C
:1031680002D0524263EB430394EA050F00F0A780B4
:10317800A4F10104D5F1200E0DDB02FA0EFC22FAAF
:1031880005F2801841F1000103FA0EF2801843FAA3
:1031980005F359410EE0A5F120050EF1200E012A94
:1031A80003FA0EFC28BF4CF0020C43FA05F3C018D2
:1031B80051EBE37101F0004507D54FF0000EDCF14B
:1031C800000C7EEB00006EEB0101B1F5801F1BD3F4
:1031D800B1F5001F0CD349085FEA30004FEA3C0CF8
:1031E80004F101044FEA445212F5800F80F09A80EE
:1031F800BCF1004F08BF5FEA500C50F1000041EBF2
:10320800045141EA050130BD5FEA4C0C404141EBF5
:10321800010111F4801FA4F10104E9D191F0000F1C
:1032280004BF01460020B1FA81F308BF2033A3F19F
:103238000B03B3F120020CDA0C3208DD02F1140C96
:10324800C2F10C0201FA0CF021FA02F10CE002F1D1
:103258001402D8BFC2F1200C01FA02F120FA0CFCCA
:10326800DCBF41EA0C019040E41AA2BF01EB045113
:10327800294330BD6FEA04041F3C1CDA0C340EDC11
:1032880004F11404C4F1200220FA04F001FA02F354
:1032980040EA030021FA04F345EA030130BDC4F112
:1032A8000C04C4F1200220FA02F001FA04F340EA07
:1032B8000300294630BD21FA04F0294630BD94F0B8
:1032C800000F83F4801306BF81F480110134013D9F
:1032D8004EE77FEA645C18BF7FEA655C29D094EA10
:1032E800050F08BF90EA020F05D054EA000C04BF8E
:1032F8001946104630BD91EA030F1EBF0021002079
:1033080030BD5FEA545C05D14000494128BF41F017
:10331800004130BD14F580043CBF01F5801130BD7B
:1033280001F0004545F0FE4141F470014FF0000006
:1033380030BD7FEA645C1ABF194610467FEA655CB7
:103348001CBF0B46024650EA013406BF52EA033559
:1033580091EA030F41F4002130BD00BF90F0000F47
:1033680004BF0021704730B54FF4806404F1320483
:103378004FF000054FF0000150E700BF90F0000F3C
:1033880004BF0021704730B54FF4806404F1320463
:1033980010F0004548BF40424FF000013EE700BF33
:1033A80042004FEAE2014FEA31014FEA02701FBFC3
:1033B80012F07F4393F07F4F81F06051704792F095
:1033C800000F14BF93F07F4F704730B54FF460740F
:1033D80001F0004521F0004120E700BF50EA01025A
:1033E80008BF704730B54FF000050AE050EA010207
:1033F80008BF704730B511F0004502D5404261EB77
:1034080041014FF4806404F132045FEA915C3FF4B7
:10341800DCAE4FF003025FEADC0C18BF03325FEA50
:10342800DC0C18BF033202EBDC02C2F1200300FA05
:1034380003FC20FA02F001FA03FE40EA0E0021FA2A
:1034480002F11444C1E600BF70B54FF0FF0C4CF414
:10345800E06C1CEA11541DBF1CEA135594EA0C0FCA
:1034680095EA0C0F00F0DEF82C4481EA030621EA05
:103478004C5123EA4C5350EA013518BF52EA033540
:1034880041F4801143F4801338D0A0FB02CE4FF0F2
:103498000005E1FB02E506F00042E0FB03E54FF022
:1034A8000006E1FB03569CF0000F18BF4EF0010E1A
:1034B800A4F1FF04B6F5007F64F5407404D25FEA16
:1034C8004E0E6D4146EB060642EAC62141EA5551C9
:1034D8004FEAC52040EA5E504FEACE2EB4F1FD0C0B
:1034E80088BFBCF5E06F1ED8BEF1004F08BF5FEA89
:1034F800500E50F1000041EB045170BD06F000463B
:1035080046EA010140EA020081EA0301B4EB5C04E7
:10351800C2BFD4EB0C0541EA045170BD41F48011DF
:103528004FF0000E013C00F3AB8014F1360FDEBF04
:10353800002001F0004170BDC4F10004203C35DAE0
:103548000C341BDC04F11404C4F1200500FA05F363
:1035580020FA04F001FA05F240EA020001F0004204
:1035680021F0004110EBD37021FA04F642EB06017A
:103578005EEA430E08BF20EAD37070BDC4F10C04A4
:10358800C4F1200500FA04F320FA05F001FA04F268
:1035980040EA020001F0004110EBD37041F1000154
:1035A8005EEA430E08BF20EAD37070BDC4F120055F
:1035B80000FA05F24EEA020E20FA04F301FA05F2C7
:1035C80043EA020321FA04F001F0004121FA04F26F
:1035D80020EA020000EBD3705EEA430E08BF20EA3F
:1035E800D37070BD94F0000F0FD101F00046400079
:1035F80041EB010111F4801F08BF013CF7D041EAFB
:10360800060195F0000F18BF704703F000465200FE
:1036180043EB030313F4801F08BF013DF7D043EACF
:103628000603704794EA0C0F0CEA135518BF95EA85
:103638000C0F0CD050EA410618BF52EA4306D1D10C
:1036480081EA030101F000414FF0000070BD50EA2B
:10365800410606BF1046194652EA430619D094EAB5
:103668000C0F02D150EA013613D195EA0C0F05D19F
:1036780052EA03361CBF104619460AD181EA0301F3
:1036880001F0004141F0FE4141F470014FF00000AB
:1036980070BD41F0FE4141F4780170BD70B54FF046
:1036A800FF0C4CF4E06C1CEA11541DBF1CEA1355C6
:1036B80094EA0C0F95EA0C0F00F0A7F8A4EB0504A8
:1036C80081EA030E52EA03354FEA013100F088809F
:1036D8004FEA03334FF0805545EA131343EA126368
:1036E8004FEA022245EA111545EA10654FEA00261D
:1036F8000EF000419D4208BF964244F1FD0404F5D6
:10370800407402D25B084FEA3202B61A65EB030531
:103718005B084FEA32024FF480104FF4002CB6EBEE
:10372800020E75EB030E22BFB61A754640EA0C006E
:103738005B084FEA3202B6EB020E75EB030E22BFAE
:10374800B61A754640EA5C005B084FEA3202B6EBEF
:10375800020E75EB030E22BFB61A754640EA9C00AE
:103768005B084FEA3202B6EB020E75EB030E22BF7E
:10377800B61A754640EADC0055EA060E18D04FEA3C
:10378800051545EA16754FEA06164FEAC30343EADC
:1037980052734FEAC2025FEA1C1CC0D111F4801FA9
:1037A8000BD141EA00014FF000004FF0004CB6E7A2
:1037B80011F4801F04BF01430020B4F1FD0C88BF41
:1037C800BCF5E06F3FF6AFAEB5EB030C04BFB6EB4C
:1037D800020C5FEA500C50F1000041EB045170BD3F
:1037E8000EF0004E4EEA113114EB5C04C2BFD4EB6C
:1037F8000C0541EA045170BD41F480114FF0000EF0
:10380800013C90E645EA060E8DE60CEA135594EA6B
:103818000C0F08BF95EA0C0F3FF43BAF94EA0C0F6E
:103828000AD150EA01347FF434AF95EA0C0F7FF4E3
:1038380025AF104619462CE795EA0C0F06D152EA37
:1038480003353FF4FDAE1046194622E750EA41061B
:1038580018BF52EA43067FF4C5AE50EA41047FF42C
:103868000DAF52EA43057FF4EBAE12E74FEA41028F
:10387800B2F1E04324BFB3F5001CDCF1FE5C0DD9C6
:1038880001F0004C4FEAC0024CEA5070B2F1004F10
:1038980040EB830008BF20F00100704711F0804F13
:1038A80021D113F13872BCBF01F00040704741F4D8
:1038B80080114FEA5252C2F11802C2F1200C10FADC
:1038C8000CF320FA02F018BF40F001004FEAC123C0
:1038D8004FEAD32303FA0CFC40EA0C0023FA02F364
:1038E8004FEA4303CCE77FEA625307D150EA01333A
:1038F8001EBF4FF0FE4040F44000704701F000400A
:1039080040F0FE4040F40000704700BF80F00040E7
:1039180002E000BF81F0004142001FBF5FEA41039F
:1039280092EA030F7FEA226C7FEA236C6AD04FEA9F
:103938001262D2EB1363C1BFD218414048404140E4
:10394800B8BF5B42192B88BF704710F0004F40F496
:10395800000020F07F4018BF404211F0004F41F4B2
:10396800000121F07F4118BF494292EA030F3FD07E
:10397800A2F1010241FA03FC10EB0C00C3F1200391
:1039880001FA03F100F0004302D5494260EB400020
:10399800B0F5000F13D3B0F1807F06D340084FEA8B
:1039A800310102F10102FE2A51D2B1F1004F40EB80
:1039B800C25008BF20F0010040EA030070474900E8
:1039C80040EB000010F4000FA2F10102EDD1B0FAB3
:1039D80080FCACF1080CB2EB0C0200FA0CF0AABFA8
:1039E80000EBC25052421843BCBFD0401843704746
:1039F80092F0000F81F4000106BF80F4000001324C
:103A0800013BB5E74FEA41037FEA226C18BF7FEA22
:103A1800236C21D092EA030F04D092F0000F08BF64
:103A28000846704790EA010F1CBF0020704712F04B
:103A38007F4F04D1400028BF40F00040704712F18A
:103A480000723CBF00F50000704700F0004343F0EF
:103A5800FE4040F4000070477FEA226216BF084625
:103A68007FEA23630146420206BF5FEA412390EAE8
:103A7800010F40F4800070474FF0000304E000BFDE
:103A880010F0004348BF40425FEA000C08BF70478F
:103A980043F0964301464FF000001CE050EA010253
:103AA80008BF70474FF000030AE000BF50EA010268
:103AB80008BF704711F0004302D5404261EB410155
:103AC8005FEA010C02BF84460146002043F0B6437A
:103AD80008BFA3F18053A3F50003BCFA8CF2083A9F
:103AE800A3EBC25310DB01FA02FC634400FA02FCA8
:103AF800C2F12002BCF1004F20FA02F243EB0200AF
:103B080008BF20F00100704702F1200201FA02FC10
:103B1800C2F1200250EA4C0021FA02F243EB020003
:103B280008BF20EADC7070474FF0FF0C1CEAD05247
:103B38001EBF1CEAD15392EA0C0F93EA0C0F6FD008
:103B48001A4480EA010C400218BF5FEA41211ED0E6
:103B58004FF0006343EA501043EA5111A0FB0131D2
:103B68000CF00040B1F5000F3EBF490041EAD371A7
:103B78005B0040EA010062F17F02FD2A1DD8B3F123
:103B8800004F40EBC25008BF20F00100704790F092
:103B9800000F0CF0004C08BF49024CEA502040EAE4
:103BA80051207F3AC2BFD2F1FF0340EAC2507047AA
:103BB80040F400004FF00003013A5DDC12F1190FE8
:103BC800DCBF00F000407047C2F10002410021FA5A
:103BD80002F1C2F1200200FA02FC5FEA310040F172
:103BE800000053EA4C0308BF20EADC70704792F0EB
:103BF800000F00F0004C02BF400010F4000F013A23
:103C0800F9D040EA0C0093F0000F01F0004C02BF1D
:103C1800490011F4000F013BF9D041EA0C018FE78C
:103C28000CEAD15392EA0C0F18BF93EA0C0F0AD092
:103C380030F0004C18BF31F0004CD8D180EA0100B8
:103C480000F00040704790F0000F17BF90F0004F51
:103C5800084691F0000F91F0004F14D092EA0C0F33
:103C680001D142020FD193EA0C0F03D14B0218BFC6
:103C7800084608D180EA010000F0004040F0FE400C
:103C880040F40000704740F0FE4040F440007047A8
:103C98004FF0FF0C1CEAD0521EBF1CEAD15392EA27
:103CA8000C0F93EA0C0F69D0A2EB030280EA010C17
:103CB80049024FEA402037D04FF0805343EA1111B0
:103CC80043EA10130CF000408B4238BF5B0042F10E
:103CD8007D024FF4000C8B4224BF5B1A40EA0C00B3
:103CE800B3EB510F24BFA3EB510340EA5C00B3EBE5
:103CF800910F24BFA3EB910340EA9C00B3EBD10FD3
:103D080024BFA3EBD10340EADC001B0118BF5FEA24
:103D18001C1CE0D1FD2A3FF650AF8B4240EBC2504D
:103D280008BF20F0010070470CF0004C4CEA50200E
:103D38007F32C2BFD2F1FF0340EAC250704740F45D
:103D480000004FF00003013A37E792F0000F00F04F
:103D5800004C02BF400010F4000F013AF9D040EACD
:103D68000C0093F0000F01F0004C02BF490011F461
:103D7800000F013BF9D041EA0C0195E70CEAD15359
:103D880092EA0C0F08D142027FF47DAF93EA0C0F40
:103D98007FF470AF084676E793EA0C0F04D14B0224
:103DA8003FF44CAF08466EE730F0004C18BF31F0D6
:103DB800004CCAD130F000427FF45CAF31F00043D0
:103DC8007FF43CAF5FE700BF4FF0FF3C06E000BF69
:103DD8004FF0010C02E000BF4FF0010C4DF804CD8C
:103DE8004FEA40024FEA41037FEA226C18BF7FEA9C
:103DF800236C11D001B052EA530C18BF90EA010F9E
:103E080058BFB2EB030088BFC81738BF6FEAE1702C
:103E180018BF40F0010070477FEA226C02D15FEAC8
:103E2800402C05D17FEA236CE4D15FEA412CE1D034
:103E38005DF8040B704700BF844608466146FFE7FB
:103E48000FB5FFF7C9FF002848BF10F1000F0FBDDD
:103E58004DF808EDFFF7F4FF0CBF012000205DF8D6
:103E680008FB00BF4DF808EDFFF7EAFF34BF01205B
:103E780000205DF808FB00BF4DF808EDFFF7E0FFF4
:103E880094BF012000205DF808FB00BF4DF808ED45
:103E9800FFF7D2FF94BF012000205DF808FB00BFA8
:103EA8004DF808EDFFF7C8FF34BF012000205DF88A
:103EB80008FB00BF4FEA4002B2F1FE4F0FD34FF0AC
:103EC8009E03B3EB12620DD94FEA002343F000437F
:103ED80010F0004F23FA02F018BF404270474FF02D
:103EE8000000704712F1610F01D1420205D110F0B4
:103EF800004008BF6FF0004070474FF00000704767
:103F0800094B70B51C680646256C3DB91A20FDF7AB
:103F180041FB1A222064294600F043F9216C3046FF
:103F2800BDE8704000F002B8A004002010B50C46AF
:103F3800416986B001F26C71036982690491016874
:103F480003EB43030391416802EB4202029181684B
:103F58000191C1682046009104490B4404490A4470
:103F68000449FDF72FFB204606B010BD195008087C
:103F7800045008083D5008080A22002100F026BA1B
:103F880010B5054C13462CB10A4601460220AFF382
:103F9800008010BD204610BD0000000038B5074B5A
:103FA80005461C68E36B1BB92420FDF7F3FAE063B0
:103FB800E16B2846BDE8384000F002B8A0040020B4
:103FC8002DE9F0410C46804600F006FD21460746E3
:103FD800404600F005FD4669044606F26C76B307D4
:103FE80005D1642296FBF2F302FB13634BB94FF43D
:103FF800C87596FBF5F305FB1365B5FA85F35B0900
:1040080000E001235F4A302505FB032500F018FB7B
:1040180000F018FB5C4B1B68F3B17B689E4205D12E
:104028003968D8F80030FA6941B90AE0304600F03A
:104038005FFA0028F4D14FF0FF330DE0934208DB1C
:1040480001E0934207DABA6B9342ACBF0023012325
:1040580002E0002300E001232362236A3C20012BB5
:104068000CBFF96B396A4FF4616391FBF3F603FBFC
:10407800161393FBF0F200FB123061682368891A6B
:10408800A2681B1A921B3B2B23606160A26003DDB0
:10409800013161603C3B04E0002B03DA01396160C7
:1040A8003C33236063683B2B03DD0132A2603C3B59
:1040B80004E0002B03DA013AA2603C336360A36892
:1040C800172B22DDE269183B0132E261A269A36085
:1040D8000132062AC8BF0022A261E26823690132C0
:1040E800E26055F823108A4246DD01330C2B08BFE5
:1040F8006369A2EB0102E26005BF0133002223617C
:10410800226104BF6361E26136E0002B34DAE269C0
:104118001833013AE261A269A360013A48BF062256
:10412800A261E268013AE26032BB2369013B01D433
:1041380023611DE00B23236163695A1E12F0030FEC
:10414800626103F26B7305D1642193FBF1F201FB09
:1041580012324AB94FF4C87193FBF1F201FB1233E2
:10416800B3FA83F35B0900E0012303F5B673E36157
:10417800236955F82330E36000F063FA2046BDE870
:10418800F08100BFC4510808000C002010B5431E80
:104198000A44914204D011F8014B03F8014FF8E7A3
:1041A80010BD03460244934202D003F8011BFAE70C
:1041B8007047000038B5124B05461C68A36BD3B98D
:1041C8001820FDF7E7F943F20E33A06303804AF69F
:1041D800CD33438041F2342383804EF26D63C38034
:1041E8004DF6EC630381052343810B238381012270
:1041F8000023C0E90423A36B00221D615A6138BD66
:10420800A004002010F8012B11F8013B012A28BF57
:104218009A42F7D0D01A7047034611F8012B03F8D9
:10422800012B002AF9D17047024B0146186800F0AB
:1042380003B800BFA004002070B5064608460C4627
:1042480000F00DF8451C29463046FDF7DBF9064617
:1042580018B12A462146FFF799FF304670BD03463C
:1042680013F8012B002AFBD1181A0138704730B512
:1042780082B1451E013915F8013F11F8014FA342DB
:1042880006D1EC431444E04201D0002BF3D11C4684
:10429800181B30BD104630BD034610B542B111F8A9
:1042A800014B013A03F8014B002CF7D11A4400E006
:1042B80010BD934202D003F8014BFAE710BD00008D
:1042C8002DE9F0470F4680463F48D0F800903D461C
:1042D80015F8014B09EB0400407800F0080000F0E5
:1042E800FF0608B12F46F2E72D2C03D1BD1C7C78C0
:1042F800012603E02B2C04BF7C78BD1C13B1102BC6
:104308000AD15BE0302C57D1287800F0DF0058281C
:104318004DD16C7810230235002E14BF4FF0004C9D
:104328006FF0004CBCFBF3FA0027384603FB1ACCAD
:1043380009EB040E9EF801E01EF0040F01D0303C9A
:104348000BE01EF0030E1BD0BEF1010F0CBF4FF0A7
:10435800370E4FF0570ECEEB0404A34210DDB7F131
:10436800FF3F0AD0504506D801D1644503DC03FB62
:104378000040012701E04FF0FF3715F8014BD7E760
:104388007B1C0CD1002E4FF0220314BF4FF00040CD
:104398006FF00040C8F800302AB9BDE8F08706B1D0
:1043A800404272B107B1691E1160BDE8F087302440
:1043B800002BB1D10823AFE70A23ADE7302CA3D0F7
:1043C800AAE7BDE8F08700BF3C04002013460A4670
:1043D800014602480068FFF773BF00BFA004002031
:1043E8002DE9F0470E4680463B48D0F80090354608
:1043F80015F8014B09EB0400407800F0080000F0C4
:10440800FF0708B12E46F2E72D2C03D1B51C7478AE
:10441800012703E02B2C04BF7478B51C13B1102BB3
:104428000AD153E0302C4FD1287800F0DF0058280B
:1044380045D16C78102302354FF0FF3CBCFBF3FCF0
:1044480003FB0CFA00266FEA0A0A304609EB040E51
:104458009EF801E01EF0040F01D0303C0BE01EF086
:10446800030E1AD0BEF1010F0CBF4FF0370E4FF0FC
:10447800570ECEEB0404A3420FDD002E08DB604587
:1044880006D801D1544503DC03FB0040012601E0B6
:104498004FF0FF3615F8014BD8E7002E07DA222334
:1044A800C8F800304FF0FF302AB9BDE8F08707B1EF
:1044B800404272B106B1691E1160BDE8F087302430
:1044C800002BB9D10823B7E70A23B5E7302CABD0C6
:1044D800B2E7BDE8F08700BF3C04002013460A4657
:1044E800014602480068FFF77BBF00BFA004002018
:1044F8002DE9F74F044600F06FFA40F2B1739C4281
:1045080040F3968040F26D156FF4F663E318A4F259
:10451800B2729B1005FB0235A4F26D726FF0630353
:1045280092FBF3F36FF4C8622B44A5184FF4C872DA
:1045380094FBF2F795FBF2F502FB17471D44642341
:1045480094FBF3F6B7FA87FE014603FB164600F123
:104558003803019304F0030344604FEA5E1E00939E
:104568004FF0070C0B7A4A2B0ED14B69009AEC18C6
:1045780002B906B927B93B2BD4BF0023012300E0B9
:1045880000232344013B3FE0442B02D14B692B44D9
:104598003AE0009B2BB9002E0CBFF0464FF0010803
:1045A80000E0F046A946244B302202FB0838CC68CC
:1045B800A8F1040A0123A34204DA5AF804BF01331C
:1045C800D944F8E709F1040393FBFCFBCBEBCB0AD6
:1045D800CAEB030A4B69012CB8BF0124B3EB0A0AE2
:1045E8000B6904F1804403F1FF3304F1FF3448BF41
:1045F8000AF1070AC3EBC30358F824405344A34203
:1046080001DB073BFBE74B448C690C4A02FB034385
:104618000C6A234441F81C3F019B9942A2D1C3690B
:10462800826B9342ACBF002301230360012000E0AA
:10463800002003B0BDE8F08FC45108088051010084
:1046480070477047014B186800F002B8A0040020BA
:104658002DE9F04F8DB0074600F0BEF9B049044689
:10466800384600F0B1F9AF4E054660B9AE4BAF4AD7
:104678001860AF4B1860AF4B30681A605A60FCF78F
:1046880091FF356048E1316879B93068FCF78AFFF5
:104698002846FFF7E4FD411C3846FCF7B3FF3060BD
:1046A80048B12946FFF7B8FD05E0FFF7ABFD002844
:1046B80000F03281E9E72B780AAE3A2B08BF0135C2
:1046C80033469D4A9D492846FCF784FF002840F35D
:1046D80023810A9BEF18EB5C2D2B03D101374FF098
:1046E800FF3503E02B2B08BF013701250DF1200A08
:1046F8000DF11E0B4FF000080396CDF808A00196A7
:10470800CDF800B0334607AA8D493846ADF81E806B
:10471800ADF82080FCF75EFF404540F3FD80BDF812
:104728001E20BDF820303C2101FB0233BDF81C20BF
:104738004FF4616101FB02335D437F4B25627D4D80
:10474800DFF808922B600A9B4A461F447B49334690
:104758003846FCF73FFF404508DC2B68226A6B604F
:10476800714B1A60724BC3F80080D5E00A9BC5F8FC
:104778000490FD18FB5C2D2B03D101354FF0FF375A
:1047880003E02B2B08BF013501270023ADF81C30AF
:10479800ADF81E30ADF820300A930396CDF808A086
:1047A8000196CDF800B0334607AA65492846FCF7BC
:1047B80011FF002804DC236AA3F56163E3630EE0BC
:1047C800BDF81E20BDF820303C2101FB0233BDF8A6
:1047D8001C204FF4616101FB02335F43E763274606
:1047E8000A9B4FF000091D442B782C2B08BF01357C
:1047F80095F80080B8F14D0F26D10DF126030293EC
:1048080009AB00930396019633460DF122024D49F8
:104818002846FCF7DFFE03287ED1BDF822104B1E88
:104828000B2B79D8BDF82420531E042B74D8BDF85F
:104838002630062B70D887F80880F9603A617B61CA
:104848000A9B05EB03082AE0B8F14A0F06BF434666
:10485800013544230A220BA928460593FFF73EFE9B
:10486800DDF82C80ADF826004545059B14D14D2375
:10487800B9F1000F07D123720323E36002232361F8
:10488800C4F814900BE084F824300B23A3620123AE
:10489800E3620023236302E080B23B727861022363
:1048A800ADF81C300023ADF81E30ADF820300A9367
:1048B80098F800302F2B0BD10396CDF808A001965D
:1048C800CDF800B0334607AA1F494046FCF782FEE0
:1048D800BDF81E20BDF820303C2101FB0233BDF895
:1048E8001C204FF4616101FB0233BB610A9D09F191
:1048F8000109B9F1020F454407F11C077FF474AFB1
:104908006068FFF7F5FD226A074B1A60E36B9B1A94
:10491800074A18BF012313600DB0BDE8F08F00BF30
:1049280024520808FC0B0020040C00202752080819
:10493800000C0020A4040020EF0B00202B520808D4
:104948004E5208083A5208084D520808E40B002055
:104958002DE9F84F07468B46904600F0D7F8194BDB
:104968001D689A463DB15C46234613F8012B42B1B7
:104978003D2A1C46F8D1384600F0C9F80020BDE8A9
:10498800F88FCBEB0404A94659F8040B0028F2D0A1
:1049980022465946FFF76BFC88B959F8043C1E19A2
:1049A8001B5D3D2B0BD1DAF800303846ED1AAD10FF
:1049B800C8F8005000F0ABF8701CBDE8F88F4D4601
:1049C800E1E700BFEC04002007B501AAFFF7C0FF2C
:1049D80003B05DF804FB000000487047AC040020F9
:1049E8000268464BF0B592FBF3F403FB1422002A4D
:1049F800BCBF02F5A83202F5C0724FF4616092FBA9
:104A0800F0F300FB13224FF03C008B6092FBF0F3B5
:104A180000FB132204F52F24ACBF04F66C2404F623
:104A28006B244B600A600723E21C92FBF3F3344DBE
:104A3800C3EBC30394FBF5F5D31A48F6AC6240F216
:104A4800B4578B612F4B304803FB0544B4FBF2F29B
:104A5800B4FBF7F3B4FBF0F02244D21A48F694669C
:104A6800131A40F26D12B3FBF6F6B3FBF2F0B3FB88
:104A7800F7F33444E31A02FB103303EB830299245F
:104A88000232B2FBF4F25443A61C0524B6FBF4F43C
:104A98000A2A34BF02266FF0090616444FF4C8727A
:104AA80002FB05055F1C012E98BF0135B3F5997F00
:104AB800A7EB040702D3A3F5997214E0820705D186
:104AC8006424B0FBF4F204FB12024AB94FF4C87232
:104AD800B0FBF2F402FB1400B0FA80F2520900E0D5
:104AE80001223B331A44A5F26C750023CA614D615B
:104AF8000E61CF600B620846F0BD00BF8051010017
:104B0800B13A02004FC5FDFFB03A02007047704746
:104B18001D0008085D000808890008088D000808BD
:104B280000000000537461727475702053756363DC
:104B380065737366756C00000000000000000000DB
:104B4800000000000000000000000000000000005D
:104B5800000000000000000000000000000000004D
:104B680000000000257320533A25322E3066252593
:104B78002C20513A25322E30662525200041542B11
:104B88004346554E3D31360D0A007B2254656D7003
:104B980065726174757265223A25342E31662C204F
:104BA8002248756D6964697479223A25342E316614
:104BB8002C202242617474657279223A25692C206E
:104BC80022526573657473223A25692C2022416C40
:104BD80065727473223A25697D0043656C6C756C47
:104BE80061725F536F696C5F486F6F6B00457272DB
:104BF8006F722074616B696E67204D6561737572A1
:104C0800656D656E747300537461746500476F69F0
:104C18006E6720746F20536C656570004C6F772049
:104C280042617474657279202D20536C65657069D2
:104C38006E67005265706F7274696E670049646CC4
:104C480065004572726F72202D205265706F727404
:104C5800696E672054696D6564204F75740045520C
:104C6800524F525F5354415445202D20526573656D
:104C78007474696E67004E6F2044617461005562F8
:104C880069646F747320486F6F6B00526573706F3F
:104C98006E73652052656365697665640053657453
:104CA80020536F6C617220506F7765726564204D78
:104CB8006F646500436C656172656420536F6C6155
:104CC8007220506F7765726564204D6F646500537C
:104CD800657420566572626F7365204D6F64650058
:104CE800436C656172656420566572626F736520F6
:104CF8004D6F64650054696D65207A6F6E65206F2D
:104D080066667365742025690054696D65004C6F8B
:104D18007720506F776572004E6F726D616C204F0F
:104D28007065726174696F6E73005369676E616C48
:104D3800005265736574436F756E740052656C65D7
:104D48006173650073746174654F66436867006CCE
:104D58006F77506F7765724D6F64650074656D701D
:104D6800657261747572650068756D6964697479D6
:104D7800004D6561737572652D4E6F77004C6F77C6
:104D8800506F7765724D6F646500536F6C61722D5B
:104D98004D6F646500566572626F73652D4D6F6463
:104DA800650053657454696D655A6F6E6500537478
:104DB800617274757000556E6B6E6F776E004E6F12
:104DC8006E6500576946690047534D00554D545369
:104DD8000043444D41004C54450049454545383051
:104DE8003231353400312E30300000000000000030
:104DF800000000004916080800000000000000003C
:104E0800051708088717080807170808C5170808A6
:104E18000D170808951708083117080855170808C6
:104E2800FCFFFFFF000000007F17080800000000DB
:104E3800000000000D180808131808083B18080897
:104E48001F1808080F1808080000000000000000DC
:104E58008D1E0808D71E0808AF1E08088F1E0808F0
:104E6800B71E0808BF1E0808C71E0808CF1E080876
:104E78000000000000000000D71F0808C91F08082C
:104E8800CB1F080866006C6E00666E00636F646571
:104E98000064657461696C00253031307520005DEF
:104EA80020002564002C200028293A2000205B00DF
:104EB800636F6465203D200064657461696C7320CC
:104EC8003D2000626175640053657269616C00552C
:104ED800534253657269616C310074797065007072
:104EE8006172616D00636D6400696400686E6400DE
:104EF8007374726D0066696C74006C766C00616422
:104F08006448616E646C65720072656D6F766548A1
:104F1800616E646C657200656E756D48616E646C77
:104F2800657273004A534F4E53747265616D4C6FCE
:104F38006748616E646C657200617070006E6F6EB8
:104F48006500747261636500696E666F00776172EF
:104F58006E006572726F720070616E696300616CD9
:104F68006C0000000000000000000000D9240808C0
:104F7800DB240808252B3033643A253032750025A8
:104F8800592D256D2D25645425483A254D3A25532C
:104F9800257A0061736374696D6500000000000084
:104FA800000000007528080899280808A52808089E
:104FB800BF230808812808088D28080887280808BA
:104FC80093280808772808087B28080800000000AC
:104FD800000000004D290808912908086B290808D5
:104FE800BF230808652908084F2908085729080811
:104FF8008B2908085F2908084929080853756E4D48
:105008006F6E547565576564546875467269536167
:10501800744A616E4665624D61724170724D617984
:105028004A756E4A756C4175675365704F63744E67
:105038006F76446563252E337320252E337325330D
:105048006420252E32643A252E32643A252E3264A5
:105058002025640A0000202020202020202020284D
:105068002828282820202020202020202020202018
:105078002020202020208810101010101010101050
:105088001010101010100404040404040404040490
:10509800101010101010104141414141410101010F
:1050A80001010101010101010101010101010101E8
:1050B80001101010101010424242424242020202F5
:1050C80002020202020202020202020202020202B8
:1050D8000210101010200000000000000000000066
:1050E80000000000000000000000000000000000B8
:1050F80000000000000000000000000000000000A8
:105108000000000000000000000000000000000097
:105118000000000000000000000000000000000087
:105128000000000000000000000000000000000077
:105138000000000000000000000000000000000067
:105148000000000000000000000000000000000057
:105158000000000000000000000000000000000047
:105168000000000000000000000000000000000037
:105178000000000000000000000000000000000027
:105188000000000000000000000000000000000017
:105198000000000000000000000000000000000007
:1051A80000000000000000000000000000000000F7
:1051B8000000000000000000430000001F00000085
:1051C8001C0000001F0000001E0000001F0000005F
:1051D8001E0000001F0000001F0000001E0000004D
:1051E8001F0000001E0000001F0000001F0000003C
:1051F8001D0000001F0000001E0000001F0000002E
:105208001E0000001F0000001F0000001E0000001C
:105218001F0000001E0000001F000000545A004735
:105228004D54002531305B5E302D392C2B2D5D25FA
:105238006E004D256875256E2E256875256E2E2500
:105248006875256E002F256875256E3A25687525C1
:105258006E3A256875256E00810D0808E11008086A
:10526800C916080839200808BD240808992608081E
:1052780061280808B52D0808E52D0808512E0808EA
:10528800152F0808992F08081D300808000000008D
:0852980000000000000000000E
:0452A000000000000A
:1052A40030750000ED4D0808905F0100E803000030
:1052B400C8AF000001000000BE4D0808C64D080834
:1052C400CB4D0808D04D0808D44D0808D94D08081E
:1052D400DE4D0808E24D08089B4F08085D50080899
:1052E400000000006051080880510808A051080817
:1052F40000000000000000000000000000000000AA
:10530400C051080800000000000000000000000078
:105314000000000000000000000000000000000089
:105324000000000000000000000000000000000079
:105334000000000000000000000000000000000069
:1053440040040020275208082752080801000000E2
:10535400000000004A0000000000000000000000FF
:105364000000000000000000000000000000000039
:105374004A000000000000000000000000000000DF
:10538400000000000000000000000000080C0020E5
:10539400FFFFFFFF00000102030405060708090AD6
:1053A4000B0C0D0E0F101112131415161718191AD1
:0853B4001B1C1D1E1F20280018
:0453BC0078563412D9
:0400000508080018CF
:00000001FF
