:020000040808EA
:10000000000008080C5C0808000006000A00050152
:0800100004024E040000000090
:10001800B051080809480A4908B5884205D0094A74
:10002800824202D0121A04F0FDFB0748074A002159
:10003800121A04F002FC064808BD00BF00040020A4
:10004800945A08085005002050050020C00C0020D4
:10005800C00C002070B503F0F1F8074B074C1E46A2
:10006800E41AA4080025A54204D056F8253098477C
:100078000135F8E770BD00BF485A0808845A0808D7
:1000880000F060BE08B500F06DFCBDE8084003F064
:1000980097B801F0F1BC01F0F7BC0078B0FA80F035
:1000A800400970470123037070470000014B01228B
:1000B8001A7070473006002008B5044902F0FDFDAB
:1000C80018B1034B03221A70012008BD985608087E
:1000D8008F05002001F084BA01F08ABA37B50546C9
:1000E8009DF8184023438DF800303C2301F0BAFFF7
:1000F800284603B030BD000030B58FB0104904A8C1
:1001080001F066FD04A801F0BEFD044604A801F054
:1001180019FE054604A801F0FDFD03F08DFCCDE9AC
:100128000201284603F088FCCDE90001054B064A88
:1001380053F824304021054801F0C6FC0FB030BD0B
:100148006C0600207804002004520808A805002046
:1001580007B5334801F0D0F8324B186003F06CFC57
:10016800314ACDE900011021304801F0ADFC2C489E
:1001780001F0D4F82E4B186003F05EFC2D4ACDE94F
:10018800000110212C4801F09FFC2C4801F09BF93C
:10019800642001F0B1FC294801F098F9284B186057
:1001A80003F04AFC274ACDE900011021264801F056
:1001B8008BFC224801F09AF9244B186003F03CFCB0
:1001C800194ACDE900011021214801F07DFC1B48A6
:1001D80001F09CF91F4B186003F02EFC154ACDE97D
:1001E800000110211C4801F06FFC1C4B0022114635
:1001F800586801F009FC08B1FFF77EFF184802F0C3
:10020800E1F804F0A3F9174A034610601021164AD2
:10021800164801F059FC012003B05DF804FB00BF4B
:1002280070050020280600201D52080854050020EB
:10023800A4050020255208083806002034060020AE
:10024800000600202E520808E80500209805002026
:100258005B0600207C050020130600206C060020A9
:1002680084050020A005002039520808490600200E
:100278002DE9D0431A4800231A461946406801F070
:10028800CBFB40F2E73601F05FFB4FF49674002792
:10029800002001F0C5F980464FF00009002001F068
:1002A800BFF9B0EB080061EB09018F4208BF864235
:1002B80005D301F059FB10B901F03EFBEEE701F060
:1002C80053FB18B1BDE8D04301F04EBB01F070F903
:1002D800044B186001F030FB013CF3D0D8E700BFB5
:1002E8006C060020840B002008B501F035FB064899
:1002F80000231A461946406801F096FB4FF47A70BD
:1003080001F0FAFB012008BD6C0600201FB51F484C
:1003180002F0D8F91D4802F082FB1D4B1C781D4BDA
:10032800BCB1142241F2E82118481A6002F04CFAD4
:100338004FF46171154802F0D1FA00221146029279
:10034800019200920123114802F010FB41F2700162
:1003580016E01E2241F270010C481A6002F034FACD
:1003680040F2DC51094802F0B9FA0123214602940F
:10037800019400941A46054802F0F8FA41F2100177
:10038800024804B0BDE8104002F023BB90050020ED
:10039800480600206405002008B501F009F9044B5F
:1003A8001B68C01AB0F57A7F34BF0020012008BD51
:1003B8009405002008B5FFF7EFFF18B1BDE8084025
:1003C800FFF7EABF01F0B8FAF5E7000037B501F02A
:1003D800C3FA01F0EDF843F69725044601F0C4FA94
:1003E80040B101F0E5F8001BA84203D8642001F0F1
:1003F80083FBF3E70021094B47F23052084601F02E
:10040800A7F84FF47A7001F077FB054B0A221B68B6
:100418000121684602F084FC03B030BD3F52080851
:100428000806002008B50121062002F068FF002117
:10043800062002F064FF024B00221A7008BD00BFBC
:100448003006002038B5046805467CB16368013B76
:1004580063605BB9236820469B689847A368013BA3
:10046800A3601BB923682046DB689847284638BD37
:1004780000B5264BD1B01B680C93254B1B680B931A
:10048800244B1B680A93244B186803F0D5FACDE96E
:100498000801224B186803F0CFFACDE90601204B7A
:1004A800186803F0C9FACDE904011E4B186803F077
:1004B800C3FACDE902011C4B186803F0BDFA1B4AC8
:1004C800CDE900014FF4807110A801F0FDFA184B36
:1004D800002218491B780EA88DF8002010AAFFF7F3
:1004E800FDFD0FA8FFF7AEFF02F0E4FC124B1870F9
:1004F80002F0F4FC114B01221870114B1A7001F034
:1005080057F8104B186051B05DF804FB9C050020AB
:10051800F8050020A00500207C0500209805002093
:1005280000060020A4050020280600204C520808D8
:100538006C050020DE520808FC050020910500200B
:100548007404002068050020F0B585B0084602AFA5
:100558000E4604F0D0F900F1080323F007036D46B6
:10056800ADEB030D02AC421C3146204604F0E0F925
:100578009DF808604EB901F0F7F900283BD0204BF0
:10058800204A1B788DF800602EE0204604F040F8E1
:10059800C83801281FD801F0E7F960B1184B0022CC
:1005A8001B7838468DF800201749184AFFF796FD42
:1005B800381DFFF747FF00F0FBFF154B186002F0EE
:1005C800EDFE02F070FCC1B20520FFF785FD114B6E
:1005D80000221A700FE001F0C7F960B1084B002241
:1005E8001B788DF80020224638460B49FFF776FD28
:1005F800381DFFF727FFAD460C37BD46F0BD00BFDD
:100608006C050020F152080818530808065308081A
:100618009405002074040020F952080830B52449D4
:1006280085B0054602F049FB0446D0B1214B0124B0
:100638001C7002F0B3FE0420FFF74CFD1E4D40F085
:100648000400287002F0AAFE29780420FFF744FD70
:10065800FFF75CFE194B00221B788DF80020184A22
:100668001CE01849284602F028FBF8B1114B124D3E
:100678001C7002F093FE0420FFF72CFD20F004000C
:10068800287002F08BFE29780420FFF725FDFFF77C
:100698003DFE0A4B0C4A1B788DF800400B4902A816
:1006A800FFF71CFD03A8FFF7CDFE012005B030BD04
:1006B8009856080848060020590600206C050020B6
:1006C8001E53080835530808375308084D530808BF
:1006D80030B5224985B0054602F0EFFA0446C0B1AC
:1006E8001F4B01241C7002F059FE0420FFF7F2FC96
:1006F8001C4D40F00800287002F050FE29780420B4
:10070800FFF7EAFC184B00221B788DF80020174AE7
:100718001AE01749284602F0D0FAE8B1104B114DFB
:100728001C7002F03BFE0420FFF7D4FC20F0080008
:10073800287002F033FE29780420FFF7CDFC0A4B1D
:100748000C4A1B788DF800400B4902A8FFF7C6FC3D
:1007580003A8FFF777FE012005B030BD98560808BA
:100768008E050020590600206C0500205253080809
:1007780035530808635308084D53080870B5CCB0C2
:100788000A2205A9006804F06DF9C5B205F10C0349
:10079800DBB2182B3DD844B2204603F0BDFC02F072
:1007A80023FB02F0FBFD29460320FFF795FC02F02E
:1007B8007AFB194E194D23463060194A4FF480715F
:1007C80000240CA801F080F92B780CAA154908A878
:1007D8008DF80040FFF782FC09A8FFF733FE4FF4BD
:1007E8007A7001F089F9316808A802F019FB089BB2
:1007F8000C490393039A2B7806A88DF80040FFF75D
:100808006DFC07A8FFF71EFE08A802F0E2F9012018
:1008180000E000204CB070BD800500206C05002071
:10082800785308088C5308087FB52649054602F016
:1008380044FA28B92449284602F03FFA00283FD054
:1008480002F0ACFD0420FFF745FC204C1D49207048
:10085800284602F032FA0646A0B11D4B00221B784A
:100868001C498DF8002002A81B4AFFF737FC03A893
:10087800FFF7E8FD2378012243F001032370174BAB
:100888001A7016E01049284602F017FA88B1104B82
:10089800134A1B780F4902A88DF80060FFF71EFC69
:1008A80003A8FFF7CFFD237803F07E0323700B4BDB
:1008B8001E7002F073FD04202178FFF70DFC012063
:1008C80004B070BD9856080835530808590600202A
:1008D8006C0500204D5308089153080812060020A3
:1008E8009B53080830B5184D18492A780E2303FB86
:1008F8000212174C8FB02078009203FB0013154AA0
:10090800282104A801F0E0F82B78237001F02CF8D6
:1009180090B1FFF74FFD104B00221B780F498DF85F
:10092800002002A804AAFFF7D9FB03A8FFF78AFD55
:1009380000F03EFE0A4B186002F0A2FB04A902F088
:10094800BAF80FB030BD00BF8F05002000040020AA
:100958008D050020AD5308086C050020BB5308081E
:10096800940500207FB5924C2378013B062B00F2BA
:10097800CB81DFE813F0510107002A0053006B0018
:100988009E00E2008B4B1B780BB1FFF74BFD8A4BA7
:100998001B784BB100F00CFE884B1B68C01A884BC3
:1009A8001B68984200F2AD8102F084FA854B1B78EF
:1009B80098421CBF03232370834B1A68834B1B6820
:1009C8009A4200F3A181072326E0814B1A781D463D
:1009D8002AB1804B1B78032B01D0FFF783FFFFF769
:1009E800B7FB0646B8B9012323702B78002B00F01B
:1009F8008B81FFF7DFFC784B784A1B78784902A88F
:100A08008DF80060FFF76AFB03A8FFF71BFD00F0F5
:100A1800CFFD744B2EE00423237075E16C4B1B78DB
:100A28002BB16C4B1B78042B01D0FFF75BFF00F058
:100A38009BFF00283BD002F03DFA0C2802D1002091
:100A480000F0B2FFFFF714FD0523E5E7604B1B78C4
:100A58002BB1604B1B78052B01D0FFF743FF624B8E
:100A68001B784BB902232370604A554B1A6000F07B
:100A78009FFD524B186047E100F09AFD5C4B1B68E4
:100A8800C01A4AF6C873984240F23E8100F090FDC1
:100A9800584B00221860504B02A81B7856498DF815
:100AA8000020564AFFF71AFB03A8FFF7CBFC0123E7
:100AB800B2E7474B1A781C462AB1464B1B78062BDF
:100AC80001D0FFF70FFF4E4B1D781E465DBB00F0AF
:100AD8004BFFC8B123788BB1FFF76CFC3E4B494AFA
:100AE8001B783F4902A88DF80050FFF7F7FA03A8D2
:100AF800FFF7A8FC00F05CFD3A4B18604FF47A70E1
:100B080000F0FAFFFFF7F0FB02F048FC3E4B022032
:100B18001978FFF7E1FA3D4B00210720197002F020
:100B2800EEFB0123337002F0CFF9394BC0F13C00E2
:100B38003C221B684243022136E0254B1A781C46AA
:100B48002AB1244B1B78072B01D0FFF7CBFE00F00E
:100B58000BFFD0B1237893B1FFF72CFC1E4B00227A
:100B68001B781F498DF8002002A82A4AFFF7B6FA19
:100B780003A8FFF767FC00F01BFD1A4B18604FF441
:100B88007A7000F0B9FFFFF7AFFB204B0021072078
:100B9800197002F0B4FB02F097F93C22C0F13C0056
:100BA8001B4B42431B68012102A802F0B9F8ABE0D5
:100BB8008F050020300600201206002024060020A1
:100BC80004060020FC050020A00500206405002084
:100BD8008E0500208D0500206C050020CC530808E8
:100BE800185308089405002074040020905F010041
:100BF800680500202C060020E65308084B52080818
:100C08005A060020FF530808F80500208C0500202C
:100C1800080600200E5408083C4B1B782BB13C4BAF
:100C28001B78012B01D0FFF75DFE00F0C1FC394BAA
:100C38001B6803F5EA433033984265D9364B1B6885
:100C4800032B16DC00F090FE60B1344B00221B78B9
:100C580002A88DF800203249324AFFF73FFA03A86C
:100C6800FFF7F0FB4FF4FA6000F046FF02F054F88B
:100C78004AE002F018F9044602F090FB0520FFF75D
:100C880029FA201AB0F5E15F1EDD00F06DFE60B1B3
:100C9800224B00221B7802A88DF800202049224A06
:100CA800FFF71CFA03A8FFF7CDFB4FF4FA6000F03A
:100CB80023FF02F073FB00210220FFF70DFA012148
:100CC800042002F01CFB1FE000F04EFE60B1134B45
:100CD80000221B7802A88DF800201149134AFFF75B
:100CE800FDF903A8FFF7AEFB4FF4FA6000F004FF2C
:100CF80002F054FB00210220FFF7EEF9FFF766FB34
:100D080002E0062323704FE604B070BD8E05002074
:100D18008D0500202C060020F80500206C05002019
:100D28001853080825540808395408085354080863
:100D38000023042200F0F0BD0246014801F072B819
:100D4800011E08082DE9F041B8B008AA1646A24BC2
:100D580003F11005144618685968083303C4AB42F8
:100D68002246F7D119889B782D22A37021800DF196
:100D780033000021994F03F060FD0225012107206F
:100D88003D7002F0ABFA0021052002F0A7FA01211C
:100D9800062002F0A3FA0021112002F09FFA012197
:100DA800042002F09BFA04A8002400F0E5FD0023CB
:100DB8007D2218A904A801F092FF234622468849FB
:100DC8000194009418A800F0E7FD86498648FFF7CB
:100DD800AFFF23462A468549854800F09DFD854991
:100DE800234604220968844800F096FD8349844814
:100DF800FFF79EFF234601228249834800F08CFDBD
:100E080082498348FFF794FF82498348FFF790FFA0
:100E180082498348FFF78CFF82498348FFF788FFA0
:100E280082498348FFF784FF82498348FFF784FF9C
:100E380082498348FFF780FF82498348FFF77CFF98
:100E480082498348FFF778FF82498348FFF774FF98
:100E580002F0A4FA2046FFF73DF9012819D102F063
:100E68009DFA0220FFF736F9604C002220601146F7
:100E780002A8029200F08CFB029B142B1ED123685F
:100E88000133236002F08AFA21780220FFF724F95F
:100E980014E002F083FA0125042202A920460295F3
:100EA80000F0AEFB02F07AFA2846042202A90135C6
:100EB800029400F0A5FB0A2DF4D1D0E72368052B96
:100EC80007DD02F06BFA04210220FFF705F9FFF7AE
:100ED8007DFA02F063FA0320FFF7FCF800F10C0337
:100EE800DBB2182B03D840B203F016F900E000205B
:100EF80001F07AFF02F052FA0420FFF7EBF8574CA2
:100F0800DFF8008100F00103554DC0F38002207026
:100F180088F80030C0F3C000524B28706321524853
:100F28001A7000F062FA48B900F042FB4F4B504982
:100F38001860304603F0BCFC01233B70FFF7E6F96C
:100F4800FFF706F9052002F0F3F958B9237888F875
:100F5800000023F00103237002F020FA0421207816
:100F6800FFF7BAF8434B1A68434B1B689A4202DCF6
:100F780007233B7008E0FFF77BF928B901233F49B5
:100F880030463B7003F094FC0024FFF74BFA4FF017
:100F9800FF3301223A490094112001F0AFFA00F022
:100FA800E3FC08B12B784BB900F002FB354B186015
:100FB80004A801F00EFE38B0BDE8F081324B02A85B
:100FC8001B7832468DF800403049FFF787F803A8B0
:100FD800FFF738FAE8E700BFC45108088F0500207A
:100FE80051050808A805002072540808F8050020D3
:100FF8007954080870040020845408084906002021
:101008008C5408081206002097540808540500203C
:10101800A454080838060020B0540808E805002041
:10102800B95408085B060020C654080813060020B7
:10103800CF540808C1000808DD540808310808081A
:10104800E954080825060808F6540808D9060808C7
:1010580001550808850708080E5508085906002094
:101068008E05002048060020340600202C060020AB
:101078001A550808A0050020640500203655080800
:10108800B5000808940500206C050020485508089C
:101098001C4B70B500241C601B4B01251D7000F013
:1010A800C7FA22212322194800F040F8184800F016
:1010B80099F94FF6FF72174B02201C705C809A80DA
:1010C80000F0DEFB2146284600F0F2FB2946124DCF
:1010D800042000F04DFA114E2146284601F032F95D
:1010E80028460F4D32460F4902F0F2F921462846AC
:1010F80001F0FFFA32462846BDE870400A4902F07E
:10110800E7B900BF080600206C0500207005002024
:10111800340600200C06002084050020500500201D
:10112800900500206B2308081927080880E80600A6
:1011380070472DE9F04100250F4698462C4696B297
:10114800454511DA0121304602F0D9F80A2000F0AD
:10115800D3FCB8B202F0ECF8640004440021304635
:1011680002F0CDF80135EBE72046BDE8F0812DE926
:10117800F0411F461646884694B2BDB2204601216A
:1011880002F0ACF82846012102F0A8F82046012117
:1011980002F0B5F82846012102F0B1F820460021F6
:1011A80002F0ADF82846002102F0A9F828460121EE
:1011B80002F0A5F82046012102F0A1F828460021F6
:1011C80002F09DF85FFA88F30122F9B2F0B202F05A
:1011D800C2F82846012102F092F80021204602F0C8
:1011E8007DF8204602F0A4F82846002102F087F88E
:1011F8002046BDE8F04102F09BB838B58DB22846CC
:10120800002102F06BF864240A2000F075FC2846DF
:1012180002F08EF808B1013CF6D138BD2DE9F8434B
:10122800164680460D468CB2B7B22046002102F021
:1012380055F83846012102F051F83246082329466C
:101248004046FFF776FF01214FEA0029204602F0C9
:1012580045F82046012102F052F82046002102F00C
:101268004EF83846012102F04AF83846002102F0CB
:1012780046F82046002102F031F808233246294674
:101288004046FFF756FF49EA0000BDE8F88338B545
:1012980014468DB2A4B22846012102F01FF8204658
:1012A800012102F01BF82846012102F028F8204607
:1012B800012102F024F82046BDE83840002102F060
:1012C8001EB838B5044690E80C000321FFF74FFF1D
:1012D80021682046FFF791FF94E806002046FFF7B3
:1012E8009DFF94E8060005462046FFF7D0FF2846F4
:1012F80002F012FF38BD000008B5FFF7E2FF03F067
:1013080025F902F009FF034902F05AFF024902F0E9
:101318004DFE08BD0AD7233C00002042F8B504461C
:1013280090E80C000521FFF722FF21682046FFF70F
:1013380064FF94E806002046FFF770FF94E8060073
:1013480005462046FFF7A3FF284602F0E5FE1F49A1
:10135800054602F035FF4FF0814102F027FE1C4997
:101368000646284602F02CFF294602F029FF0146CE
:10137800304602F01DFE06462046FFF7BDFF154920
:101388000746284602F01CFF134902F011FE02F03E
:1013980053FB044638460D4602F04EFB00220F4B25
:1013A80002F0EAF902460B462046294602F098FB6D
:1013B800044630460D4602F03FFB02460B462046E7
:1013C800294602F0DBF902F09DFDF8BD54E3253D06
:1013D800A2E73BB6ACC5A7380AD7233C0000394082
:1013E80000F026B963230360704708B5016001F077
:1013F800E9FF01F049F8012008BD10B5044601F0E5
:10140800E1FF00230122216801F04DF801F0DAFF25
:1014180003681B699847002806DD01F0D3FFBDE883
:10142800104003685B6918474FF0FF3010BD37B5AF
:1014380004460D4601F0C6FF216801F03DF801F0B1
:10144800C1FF036829469B68984701F0BBFF01F07C
:101458003AF801F0B7FF02222168002301F023F8CF
:101468000023ADF8063001F0ADFF03681B6998470B
:1014780001280DDD01F0A6FF03685B6998478DF828
:10148800060001F09FFF03685B6998478DF8070025
:10149800BDF9060003B030BD38B504460D4601F06D
:1014A80091FF216801F008F801F08CFF03682946D4
:1014B8009B68984701F086FF01F005F82046BDE8D3
:1014C8003840FFF79ABF0121FFF7E6BF08B50321AF
:1014D800FFF7ADFF02F09EFA0022034B02F02AFC50
:1014E80002F010FD08BD00BF0000244008B504212B
:1014F800FFF79DFF02F08EFA0022034B02F01AFC60
:1015080002F000FD08BD00BF0000594008B50521E4
:10151800FFF78DFF02F07EFA0022034B02F00AFC6F
:1015280002F0F0FC08BD00BF0000244000F080B8C5
:1015380008B5024B1B68DB6B019308BD2000060849
:1015480008B5024B1B685B6C019308BD20000608B8
:1015580008B5024B1B689B6C019308BD2000060868
:1015680008B5024B1B681B6B019308BDD00104082A
:1015780008B5024B1B685B6E019308BDB8010408EF
:1015880008B5024B1B689B6E019308BDB80104089F
:1015980008B5024B1B68DB6E019308BDB80104084F
:1015A80008B5024B1B685B68019308BD9C010408E1
:1015B80008B5024B1B685B69019308BD9C010408D0
:1015C80008B5024B1B68DB69019308BD9C01040840
:1015D80008B5024B1B689B6A019308BD9C0104086F
:1015E80008B5024B1B68DB6A019308BD9C0104081F
:1015F80008B5024B1B681B6B019308BD9C010408CE
:1016080008B5024B1B689B6C019308BD9C0104083C
:1016180008B5024B1B689B6D019308BD9C0104082B
:1016280008B5024B1B68DB6D019308BD9C010408DB
:1016380008B5024B1B681B68019308BDB00104087C
:1016480008B5024B1B689B68019308BDB0010408EC
:1016580008B5024B1B68DB68019308BDB00104089C
:1016680008B5024B1B681B69019308BDB00104084B
:1016780008B5024B1B685B69019308BDB0010408FB
:1016880008B5024B1B689B69019308BDB0010408AB
:1016980008B5024B1B68DB69019308BDB00104085B
:1016A80008B5024B1B68DB68019308BDAC01040850
:1016B80008B5024B1B685B69019308BDAC010408BF
:1016C80008B5024B1B689B69019308BDAC0104086F
:1016D80008B5024B1B68DB69019308BDAC0104081F
:1016E80008B5024B1B681B6A019308BDAC010408CE
:1016F80008B5024B1B685B6A019308BDAC0104087E
:1017080008B5024B1B689B6A019308BDAC0104082D
:1017180008B5024B1B68DB6A019308BDAC010408DD
:1017280008B5024B1B681B6B019308BDAC0104088C
:1017380008B5024B1B685B6B019308BDAC0104083C
:1017480008B5024B1B681B6C019308BDAC0104086B
:1017580008B5024B1B689B6C019308BDAC010408DB
:1017680008B5024B1B68DB6C019308BDAC0104088B
:1017780008B5024B1B68DB69019308BDB401040876
:1017880008B5024B1B681B6A019308BDB401040825
:1017980008B5024B1B689B69019308BDC401040886
:1017A80008B5024B1B685B6A019308BDC4010408B5
:1017B80008B5024B1B689B6A019308BDC401040865
:1017C80008B5024B1B68DB6A019308BDC401040815
:1017D80008B5024B1B681B6B019308BDC4010408C4
:1017E80008B5024B1B685B6B019308BDC401040874
:1017F80008B5024B1B689B6B019308BDC401040824
:1018080008B5024B1B681B6C019308BDC401040892
:1018180008B5024B1B681B68019308BD1C0006082D
:1018280008B5024B1B681B69019308BD1C0006081C
:1018380008B5024B1B685B69019308BD1C000608CC
:1018480008B5024B1B689B69019308BD1C0006087C
:1018580008B5024B1B68DB69019308BD1C0006082C
:1018680008B5024B1B681B6A019308BD1C000608DB
:1018780008B5024B1B681B68019308BDA401040846
:1018880008B5024B1B685B68019308BDA4010408F6
:1018980008B5024B1B685B69019308BDA4010408E5
:1018A80008B5024B1B689B69019308BDA401040895
:1018B80008B5024B1B68DB6A019308BDA401040844
:1018C80008B5024B1B68DB6C019308BDA401040832
:1018D80008B5024B1B685B6D019308BDA4010408A1
:1018E80008B5024B1B689B6D019308BDA401040851
:1018F80008B5034B1B68D3F89030019308BD00006E
:10190800A401040808B5034B1B68D3F89C30019365
:1019180008BD0000A401040808B5024B1B681B6839
:10192800019308BDCC01040808B5024B1B685B682D
:10193800019308BDCC01040808B5024B1B689B68DD
:10194800019308BDCC01040808B5024B1B68DB688D
:10195800019308BDCC01040808B5024B1B681B693C
:10196800019308BDCC01040808B5024B1B685B69EC
:10197800019308BDCC01040808B5024B1B68DB695C
:10198800019308BDCC01040808B5024B1B681B6A0B
:10199800019308BDCC01040808B5024B1B685B6ABB
:1019A800019308BDCC01040808B5024B1B68DB6A2B
:1019B800019308BDCC01040808B5024B1B681B6BDA
:1019C800019308BDCC01040808B5024B1B68DB6B0A
:1019D800019308BDCC01040808B5024B1B685B687D
:1019E800019308BDC801040808B5024B1B689B6831
:1019F800019308BDC801040808B5024B1B68DB68E1
:101A0800019308BDC801040808B5024B1B681B698F
:101A1800019308BDC801040808B5024B1B685B693F
:101A2800019308BDC801040808B5024B1B689B69EF
:101A3800019308BDC801040808B5024B1B68DB699F
:101A4800019308BDC801040808B5024B1B681B6A4E
:101A5800019308BDC801040808B5024B1B681B6B3D
:101A6800019308BDC801040808B5024B1B685B6BED
:101A7800019308BDC801040808B5024B1B681B6820
:101A8800019308BDA001040808B5024B1B685B68F8
:101A9800019308BDA001040808B5024B1B689B68A8
:101AA800019308BDA001040808B5024B1B681B6917
:101AB800019308BDA001040808B5024B1B689B6987
:101AC800019308BDA001040808B5024B1B68DB6937
:101AD800019308BDA001040808B5024B1B68DB6A26
:101AE800019308BDA001040808B5024B1B681B6BD5
:101AF800019308BDA00104080021FFF7C9BE10B575
:101B0800836804460BB901F0E8FCC3689847A368EA
:101B18001BB103222146204698472046BDE81040C5
:101B2800FEF7B9BA002211464068FFF76DBF2DE9EC
:101B3800FF41002604AC054610468846174644F87F
:101B4800046D02F0D8FE009681B2D8F8043022461F
:101B58003846FFF7EDFC20B13146284600F028FD55
:101B680003E02146284600F01BFD284604B0BDE8E6
:101B7800F081002211464068FFF766BF0022114637
:101B88004068FFF771BF00224068FFF765BF002279
:101B980081F001014068FFF74FBF00231A4619463C
:101BA8004068FFF741BF00231A4619464068FFF70F
:101BB80033BF002211464068FFF716BF00220221FA
:101BC8004068FFF719BF00231A464068FFF704BFB3
:101BD800F0B50F461A4B002503601826283389B044
:101BE80043608560C560324629460446103002F0DD
:101BF80024FE2A4629467868FFF706FF08B9A06040
:101C08001BE02946324602A80095019502F015FE10
:101C180002A96846ADF80860FFF792FC10B10123ED
:101C2800A3600AE0009B019AA360E2600BB902235B
:101C3800A36002A9204600F09DF8204609B0F0BD37
:101C4800C055080838B50C4C28252A4600212046DE
:101C580002F0F3FD4FF0FF3363602580074C042347
:101C680020466360064B2C2540F8083B2A46002195
:101C780002F0E3FD258138BDA00600206C06002097
:101C88008C5508087047007D7047000008B5037D33
:101C98001BB18069B0F1004F01D1002008BD02F0EE
:101CA8003BFA024902F040FB08BD00BF0000C842F1
:101CB80008B5037D1BB1006AB0F1004F01D10020C7
:101CC80008BD02F029FA024902F02EFB08BD00BF48
:101CD8000000C84270B50D4606460A2281682846AB
:101CE80000F041FF2C210446284600F0D5FE0A22C8
:101CF8000444F168284600F036FF204470BDA0F186
:101D08000400FFF7E7BF10B50446FEF7C4F9204604
:101D180010BD000008B5037D5BB1406A002808DBF0
:101D280002F0FAF9044902F0FFFA044902F048FA0D
:101D380008BD034808BD00BF00FF7F470000C84238
:101D4800000080BF08B5037D5BB1C069002808DBCF
:101D580002F0E2F9044902F0E7FA044902F030FA25
:101D680008BD034808BD00BF00FF7F470000C84208
:101D7800000080BF30B50D4600F110040FCD0FC430
:101D880095E8030084E80300012030BD7047002077
:101D9800704710B50446FEF77EF9204610BD08B519
:101DA80008B1FFF7F6FF08BD10B58368044613B104
:101DB800032201469847204610BD38B5C468D4B1FF
:101DC8002378022B02D1E068FFF75EFE65682DB12B
:101DD8002846FFF7E9FF2846FEF75DF9A5682DB10B
:101DE8002846FFF7E1FF2846FEF755F92046BDE8EB
:101DF8003840FEF750B938BD10B588B0044668467B
:101E080000F02EFF694604A800F04CFF04A8A04784
:101E1800044604A800F0DDFE684600F0DAFE20461D
:101E280008B010BDF0B507460E46154685B010241B
:101E380022460021684602F000FD0022694610464D
:101E4800ADF80040029703960195FFF76DFD05B0C8
:101E5800F0BD13B5044691E8050000234B600B6004
:101E68002060626001A801930093FEF7EBFA204618
:101E780002B010BD0B68036013B15A6801325A6092
:101E88007047F7B50C4606460F4654F8043B02ADBA
:101E980045F8083D214601A8FFF7ECFF29463046E2
:101EA800FFF7D7FF01A8FEF7CDFA2046FEF7CAFADA
:101EB8003846FEF7F0F8304603B0F0BD13B50B46D0
:101EC800044603C88DE8030093E8030084E8030090
:101ED8009DE8030083E8030002B010BD826810B5D6
:101EE8000AB901F0FAFAC368BDE81040184708B506
:101EF800006800F11001FFF7F1FF08BD826810B516
:101F08000AB901F0EAFAC368BDE81040184708B5F5
:101F1800006800F11001FFF7F1FF08BD38B5002394
:101F280083608B6804460D462BB102229847EB6804
:101F3800E360AB68A360204638BD00002DE9F0419E
:101F48004FF69C7304684FF0020086B0B1F9042084
:101F58008B8000230F688DF800300B60D4E84F1F8A
:101F6800994203D1C4E8450F002DF7D102D08DF86E
:101F780000106BE014F10C051CBFE7602282BFF370
:101F88005F8F18BF1F4601236370BFF35F8F04F193
:101F98000803002053E8006F43E80002002AF9D143
:101FA800BFF35F8F002E51D0FFF78AFC20B129467E
:101FB8003046FFF793FF43E031466846FFF7AEFF30
:101FC800E068B4F9105008B102F07AFC04901020CF
:101FD800ADF81450FEF75DF8054630B34FF0000831
:101FE800C0F808801820FEF754F80446C0B1C0F8BD
:101FF800088001466846FFF761FF029BA268A3605C
:10200800039B0292E268E360BDF814300392A38256
:102018004FF69C73ADF81430049BCDF81080236103
:102028000D4B2C60EB600D4BAB600498FFF72CFD5B
:102038006846FFF7B9FE002229460948FFF748FC21
:102048003046FFF7B1FE3046FEF725F83846FFF771
:102058001BFD06B0BDE8F081F71E080855210808E9
:10206800071B08082DE9F04F8BB007AD4FF0000BA8
:102078000646994614200C230F4690469DF850A01A
:10208800C5F804B0C5F808B00793FEF702F804468F
:1020980038B180F800B080F801B0C0F804B0C0F8DA
:1020A80008B00023102003940493FDF7F2FF28B131
:1020B800012343608360234BC4600360224B049078
:1020C80008200893FDF7E5FF044628B1039B04A9FF
:1020D80040F8043BFFF7CEFE00955FFA8AF34A46C4
:1020E800414638460994FFF74FFCB8B9039B5B7823
:1020F80003F0FF0293B94FF69C7305A903A8059254
:10210800ADF81830FFF71AFF0598FFF7BDFC05A8D2
:102118000999FFF7B6FE06A8FEF794F9039B04A9F0
:1021280006A80593FFF7A6FE05A93046FFF791FE1E
:1021380006A8FEF787F904A8FEF784F930460BB025
:10214800BDE8F08FF4550808BD220808022AF8B542
:10215800044606D0032A17D0012A20D10B68036051
:102168001DE018200E68FDF794FF054650B1314672
:10217800FFF7D4FE3069B6F9147008B102F0A0FB7D
:102188002861AF8225600AE0046844B12069FFF73E
:102198007BFC2046FFF708FE2046FDF77CFF002069
:1021A800F8BD38B5002383608B6804460D462BB113
:1021B80002229847EB68E360AB68A360204638BD0D
:1021C800022A70B5044606D0032A11D0012A17D175
:1021D8000B68036014E014200E68FDF75AFF0546EB
:1021E80020B13146FFF7DDFF337C2B74256007E013
:1021F80004682CB12046FFF7D7FD2046FDF74BFFBA
:10220800002070BDF0B50C46BFF35F8F87B0002388
:1022180050E8006F40E80032002AF9D1BFF35F8F21
:10222800002E3ED01846FFF74BFB074620B121464B
:102238003046FFF763FE2EE0314601A8FFF7B1FFF5
:10224800237810208DF81430FDF723FF0546D0B110
:1022580087601420FDF71DFF044678B187600146AA
:1022680001A8FFF72BFE039BA268A360049B0392BF
:10227800E268E3609DF81430049223740A4B2C60E2
:10228800EB600A4BAB6001A8FFF78EFD00222946E0
:102298000748FFF71DFB3046FFF786FD3046FDF780
:1022A800FAFE07B0F0BD00BF171F0808C9210808CB
:1022B800071B080830B5044685B00D466846114628
:1022C800FFF7DFFD7CB124B228460DB102F0F8FA21
:1022D800029002A96846ADF80C40FFF72FFE02985D
:1022E800FFF7D2FB1DE04FF0010200988DF808407F
:1022F800D0E84F3FA34203D1C0E8412F0029F7D1CE
:1023080002D08DF808300CE010F10C014FF00103F9
:1023180018BF0373BFF35F8F043000F8033CFFF767
:1023280071FF01A8FEF78EF805B030BD006800F017
:10233800D1B810B50446016002710AB1FFF7F6FF83
:10234800204610BD38B504460D4601F05BF82A4614
:1023580001462046FFF7EDFF204638BD006800F033
:10236800C2B810B5037904460BB1FFF7F7FF204652
:1023780010BDF8B504460F4616461D46FFF7D6FFB2
:102388002068362100F098F82068394603689B6871
:1023980098470121206800F092F802223621012393
:1023A800206800F080F8206803685B6998473070FF
:1023B800206803685B69984728702046BDE8F840A4
:1023C800FFF7CCBF13B5002202AB03F8012D8DF83F
:1023D800062004210DF10602FFF7CBFF9DF8070048
:1023E80001F018FB0022084B01F07AFB01F08AFD8E
:1023F80004469DF8060001F08FFE0146204601F0D4
:10240800D7FD02B010BD00BF0000703F7047F8B59F
:10241800064615460C468F18BC4206D0336814F899
:10242800011B9B6830469847F6E72846F8BD00220E
:10243800007CFFF755B90021007CFFF759B900214E
:10244800007CFFF75DB90021007CFFF761B900212E
:10245800007CFFF765B910B50446FDF71CFE204661
:1024680010BD000010B5044608464FF47A73A36007
:10247800044B0021207461602360FFF761F9204656
:1024880010BD00BF1056080800231A461946007CE4
:10249800FFF706B913B50024007C0094FFF708F98C
:1024A800C0B202B010BDDBB2D2B2C9B2FFF7F2BF00
:1024B8000022007CFFF704B9C9B2FFF7F9BF002278
:1024C800007CFFF705B90121FFF7F9BF0021007C67
:1024D800FFF72EB908B50021007CFFF739F9B0FAEB
:1024E80080F0400908BD08B50021007CFFF738F9E5
:1024F800B0FA80F0400908BD0047000007282DE920
:10250800FF4105460F4690461E464FF0000419D07D
:10251800FFF7BEF8A6424FF0040303948DF80C3081
:10252800A2BF9DF8283003AC8DF80E3028460094E1
:1025380043463A460549A8BF8DF80D60FFF7A0F855
:10254800012000E0204604B0BDE8F081012508081C
:10255800704710B50446FDF79EFD204610BDF8B53E
:102568000F4600F10806051D002416F8011D0A2271
:10257800384600F0D4FAAE42044407D0002CF4D018
:102588002E21384600F088FA0444EEE72046F8BDCC
:10259800024A026000224260704700BF38560808AD
:1025A800024A02600A684260704700BF385608084D
:1025B800014A4160026070473856080810B59DF816
:1025C800084044EA032343EA024242EA01614160C7
:1025D80010BD000037B5044D05609DF818500095F2
:1025E800FFF7ECFF03B030BD38560808014A024B2C
:1025F8001A607047F9560808C806002000231A46D2
:102608004068FFF7E9B9002202214068FFF7F4B9F2
:10261800002211464068FFF7E7B9002211464068DA
:10262800FFF7F2B900231A4619464068FFF7F4B9D4
:1026380000231A4619464068FFF7F6B9002281F0D0
:1026480001014068FFF7F8B900224068FFF704BAB3
:10265800002211464068FFF707BA00221146406879
:10266800FFF7F2B9F0B5174687B0054604A8FFF79B
:102678008FFF002606AC384644F80C6D02F03BF993
:102688000A4B009681B25B6822463846FEF750FF37
:1026980020B131462846FFF78BFF03E02146284644
:1026A800FFF77EFF284607B0F0BD00BF6C0600208C
:1026B800024B034A1A6000225A607047CC06002079
:1026C8002C57080808B500F09DFEFFF7FFFE18B963
:1026D80000F098FEFFF7D8FE00F094FEBDE8084031
:1026E800FFF7F4BE08B500F08DFEBDE80840FFF71F
:1026F800F1BE10B50446017009B1FFF7F3FF20469B
:1027080010BD08B500F07EFEBDE80840FFF7EBBE3F
:1027180010B5037804460BB1FFF7F3FF204610BD50
:1027280010B504460068FFF7ECFF204610BD37B52A
:1027380002AC0D4644F8040DFFF7D4FF00F062FE2A
:102748006B21FFF7B9FE00F05DFE036829469B6820
:10275800984700F057FE0121FFF7B1FE00F052FE46
:1027680001231A466B21FFF79EFE00F04BFE03681B
:102778005B69984705462046FFF7D2FFE8B203B0E9
:1027880030BD73B502AC15460E4644F8040DFFF78C
:10279800A9FF00F037FE6B21FFF78EFE00F032FE36
:1027A800036831469B68984700F02CFE0368294669
:1027B8009B68984700F026FE0121FFF780FE20461F
:1027C800FFF7AEFF02B070BD37B504460D46019065
:1027D800FFF788FF00212046FFF7A9FF41F25813B1
:1027E8009D4200F087025BD020D841F218039D4239
:1027F8004DD00CD840F678739D4242D040F6C8734D
:102808009D4241D040F628739D4260D159E041F283
:10281800B8039D423ED041F208139D423DD041F29B
:1028280068039D4253D142F020024AE041F29823C6
:102838009D423ED00ED841F2F8139D4233D041F26A
:1028480048239D4232D041F2A8139D423FD142F025
:10285800400236E041F238339D422DD006D841F28D
:10286800E8239D4233D142F060022AE041F28833E6
:102878009D4224D041F2D8339D4228D142F07802BB
:102888001FE042F008021CE042F0100219E042F09A
:10289800180216E042F0280213E042F0300210E07D
:1028A80042F038020DE042F048020AE042F05002DD
:1028B80007E042F0580204E042F0680201E042F00A
:1028C800700220460021FFF75CFF012400E000248D
:1028D80001A8FFF725FF204603B030BD37B50446F1
:1028E8000D460190FFF7FEFE00212046FFF71FFF6F
:1028F800B5F5617F00F0F80223D007D8962D1AD0DD
:10290800B5F5FA7F1AD0642D29D122E040F2DC53C4
:102918009D4219D005D8B5F5966F20D142F0040232
:1029280017E0B5F5FA6F12D040F6B8339D4216D1CC
:1029380042F007020DE042F001020AE042F0020212
:1029480007E042F0030204E042F0050201E042F031
:10295800060220460021FFF714FF012400E00024AE
:1029680001A8FFF7DDFE204603B030BDF7B50C46E1
:10297800174605461E460190FFF7B4FE002C0CBF13
:102988000024802417B144F04004E4B20EB144F0AE
:1029980020049DF820300BB144F010049DF8243039
:1029A8000BB144F008049DF828300BB144F004043E
:1029B80002212846FFF7BBFE00F001022243022154
:1029C8002846FFF7DEFE01A8FFF7AAFE012003B0A4
:1029D800F0BD37B504460D460190FFF783FE04218C
:1029E8002046FFF7A4FE41F210039D4200F00302C7
:1029F80006D041F270039D420AD142F0B00201E0D4
:102A080042F0980220460421FFF7BBFE012400E0B3
:102A1800002401A8FFF784FE204603B030BD37B577
:102A2800054602AC44F8040DFFF75CFE0521284674
:102A3800FFF77DFE052100F0CE022846FFF7A1FE34
:102A48002046FFF76DFE012003B030BDF8B50646FD
:102A58000D468F180024BD420CD0336815F8011BB1
:102A68009B6830469847002801DB0444F3E7002CB4
:102A780008BF04462046F8BD70B505460C46084612
:102A880049B101F038FF2B68024621462846BDE8C7
:102A98007040DB68184770BD03689B68184738B5F5
:102AA8000D210546FFF7F8FF0A2104462846FFF7DF
:102AB800F3FF204438BD38B50546FFF7DDFF04466F
:102AC8002846FFF7ECFF204438BD012A98BF0A22A8
:102AD80030B50B468BB000218DF824100DF123047E
:102AE800B3FBF2F505FB1233DBB2092B94BF30338D
:102AF8003733DBB2214604F801392B46002DEFD1DC
:102B0800FFF7BAFF0BB030BD10B422B90368C9B2E1
:102B18009B6810BC1847D2B210BCFFF7D6BFFFF7AE
:102B2800F3BF2DE9F04107460E4615462AB9BDE820
:102B3800F0410368C9B29B6818470A2A02D10029E4
:102B480001DA04E0D2B2BDE8F041FFF7BEBF2D21A3
:102B5800FFF7A2FF2A46044671423846FFF7B5FF41
:102B68002044BDE8F081FFF7DCBF10B50446FFF74D
:102B78001BF9204610BD0000034800238360034A68
:102B8800034900F0A5BC00BFD40600205005002072
:102B9800732B0808704710B50446FDF77CFA2046E9
:102BA80010BD000070B504460E46074B00250360B3
:102BB80040F80C5FFEF7D4FC30462671FEF7D8FDCE
:102BC800A560204670BD00BF605708080079FEF771
:102BD800D7BD10B504460068FEF756FF204610BD65
:102BE80010B50446006808B1FEF74EFF00232360C5
:102BF800A360636010BD38B504460D460068013116
:102C0800FEF74AFF10B184E82100012038BD10B555
:102C18000368044613B143688B4207D22046FFF786
:102C2800EAFF20B1A3680BB922681370012010BD18
:102C380070B50E46114604461546FFF7E8FF18B969
:102C48002046FFF7CDFF09E02A463146A5602068F7
:102C580001F0E8FD2268A3680021D154204670BD28
:102C680038B50023044603604360836003730D4650
:102C780039B1084601F03FFE294602462046FFF7D3
:102C8800D7FF204638BD884210B50B46044607D00A
:102C9800096819B19A68FFF7CBFF01E0FFF7A0FFB9
:102CA800204610BD10B504460023036043608360CE
:102CB8000373FFF7E8FF204610BD08B582680B468E
:102CC80012B919B9012008BD11B90368187802E0D2
:102CD800006801F0E3FDB0FA80F0400908BD70B566
:102CE8000E469AB191B185689D4202D800230B70B7
:102CF80070BD541EED1AAC4228BF2C46016822460E
:102D08001944304601F014FE0023335570BD0146C6
:102D180000228C20FEF734BC0020FFF7F8BF00002B
:102D280010B50446084611461A460023FEF7B8FDBA
:102D3800064B00221A704FF6FF7258809A801A6864
:102D48009B882260A380204610BD00BFE4060020B7
:102D58004FF6FF72034B0020187058809A80FEF7D8
:102D68008FBD00BFE4060020F0B5144B144F1E6859
:102D7800144B064418683B6806449E428BB01BD02F
:102D88000AA840F8286D01F055FC0446436901ADD6
:102D980003F26C7343610FCC0FC50FCC0FC5D4F889
:102DA80000E0094CC5F800E001AD0FCD0FC40FCD10
:102DB8000FC43E60C4F800E00BB0F0BD1C07002053
:102DC8001807002014070020EC06002008B5002092
:102DD800FEF7F2FD28B1FEF7C7FD80F00100C0B292
:102DE80008BD012008BD000010B50949044601F0DE
:102DF80085FB60B90749204601F09EFB38B90649B2
:102E0800204601F0DDF901F0A1FB044B186010BD6C
:102E1800000040C100006041000061451C0700201F
:102E280037B50E4B04461B6802A819440C4B1B68A7
:102E3800194440F8041D01F0FDFB01F0ADFB054607
:102E480001F059FD0023284400F8013C294620469A
:102E5800FFF706FF204603B030BD00BF1C07002067
:102E68001407002010B50020FEF7D2FB044668B90D
:102E7800FEF7FEFC01280BD12046FEF731FD38B9DC
:102E8800FFF7A4FF30B9FEF757FDF9E7012010BDA1
:102E9800002010BDFFF79AFF0020FEF7B9FB0030B5
:102EA80018BF012010BD08B5FFF7DCFFBDE80840DA
:102EB800FEF786BB08B5FFF7F6FFFFF755FF014B96
:102EC800986808BDEC06002008B5FFF7ECFFFFF78F
:102ED8004BFF014B586808BDEC06002008B5FFF70A
:102EE800E2FFFFF741FF014BD86808BDEC06002060
:102EF800024B1A68024B1A60704700BF9804002002
:102F080010070020704741747047007CFEF778BCBA
:102F1800007CFEF74DBC007CFEF75ABC007CFEF737
:102F28004FBC007CFEF75CBC10B50446FDF7B3F857
:102F3800204610BD70B5457C04460E4625B9007C78
:102F4800FEF75EFC002805DD3146207CBDE87040B8
:102F5800FEF726BC284670BD10B504460846114643
:102F6800002262604FF47A72A260054A20742260DF
:102F7800012262741A46FEF70BFC204610BD00BF02
:102F880098570808007CFEF733BC000038B50C4D94
:102F9800296811F0010411D12846FDF77EF868B1BF
:102FA800084A2146084B0948FFF7D6FF2846FDF78F
:102FB80079F8074A0749054800F08AFA034838BDF6
:102FC800B8070020BC070020340700202007002095
:102FD800500500200D2F08084174704770470021E4
:102FE800007CFEF72DBC0121007CFEF729BC007C8B
:102FF800FEF71EBC007CFEF713BC38B50446007C07
:103008000D46FEF715FC002801DC607C20B129463E
:10301800207CFEF71DFC012038BD007CFEF720BC9B
:1030280010B50446FDF737F8204610BD10B5044624
:10303800002363604FF47A73A360054B084623604E
:103048000123217463741146FEF7E2FB204610BD8C
:10305800C857080810B504461422002101F0EDFBFA
:10306800054B20466360054BE36040F20113238162
:103078008123238210BD00BFC5080020440800201A
:1030880030B50E4D87B001A8FFF7E4FF296811F0AD
:10309800010410D12846FDF700F860B101AA2146C5
:1030A8000748FFF7C3FF2846FCF7FCFF054A064917
:1030B800034800F00DFA024807B030BD4008002070
:1030C800C809002050050020E52F080810B504465F
:1030D8001422002101F0B1FB054B20466360054B2B
:1030E800E36040F2011323818123238210BD00BFD6
:1030F800780A0020E009002010B50E4C86B001A81F
:10310800FFF7E4FF2368DB0710D42046FCF7C5FF70
:1031180060B101AA01210848FFF788FF2046FCF7A3
:10312800C1FF064A0649044800F0D2F9024806B031
:1031380010BD00BFDC090020640A002050050020F3
:10314800E52F080808B5184B33B1FFF799FF036856
:103158001B69984700281EDC144B33B1FFF716FF94
:1031680003681B699847002818DC114B0BB1AFF3B3
:103178000080104B0BB1AFF300800F4B0BB1AFF3D6
:1031880000800E4B7BB1FFF7B7FF03681B699847B8
:10319800002806DC08BDAFF30080DDE7AFF3008050
:1031A800E3E7AFF3008008BD000000000000000066
:1031B8000000000000000000000000000000000007
:1031C80008B5FFF7BFFFFEF7F3F9014B186008BD1C
:1031D800840B00200248034A0349121A01F022BB5B
:1031E8000040024004400240905A080807B50023F6
:1031F80000931A466FF07701FEF784FB03B05DF881
:1032080004FB000007B543880A2B08D0502B09D1CE
:10321800094B1B683BB103B05DF804EB1847FFF797
:10322800E5FF06E0002300931A466FF07701FEF7EA
:1032380069FB03B05DF804FB7C0B002038B5104C2B
:10324800104D2368AB42104B0CBF012200221A70AC
:1032580002D0FFF7BFFF2560FEF7A2F9044601F090
:10326800F5FA0A4B13B12046AFF300800021074856
:10327800FEF7AAFBBDE8384000210548FEF738BB39
:10328800004002401E1C279A800B0020000000000E
:103298000D32080810B504460F48FFF797FC28B10F
:1032A800A4F10D03022B01D8002010BD00F08AF80C
:1032B800FFF70CF908B1012CF6D9FFF767FEFFF705
:1032C80061FE18B1A4F11203012BEDD92E2C8CBF8D
:1032D8000020012010BD00BFC80B00202E2838B5E3
:1032E80004460D460AD8FF2908D0FFF7D3FF28B1B6
:1032F80029462046BDE83840FEF7A2B938BD38B5A2
:1033080004460D46FEF7A4F9FF2810D0062804D875
:103318004D2323FA00F0C30709D42046FFF7BAFF6C
:1033280028B129462046BDE83840FEF799B938BD8E
:1033380010B50446FEF78CF90438C0B2012808D944
:103348002046FFF7A7FF20B12046BDE81040FEF752
:103358008FB9002010BD2DE9F04190461E46074662
:103368000D460724B8F1000F04D1C4F1070146FA4D
:1033780001F101E046FA04F101F001013846FFF7D6
:10338800BEFF01212846FFF7BAFF00212846FFF7B4
:10339800B6FF14F1FF34E5D2BDE8F08110B5074C53
:1033A8002368DB0708D42046FCF777FE20B1FEF738
:1033B8000FF92046FCF776FE014810BD880B002067
:1033C8008C0B002038B50B4D296811F001040FD182
:1033D8002846FCF762FE58B121460748FFF742F835
:1033E8002846FCF75FFE054A0549034800F070F8D7
:1033F800014838BD900B0020A80B00205005002084
:103408001524080810B50B4C2368DB070FD4204699
:10341800FCF743FE58B102210748FFF723F820467E
:10342800FCF740FE054A0649034800F051F80248F7
:1034380010BD00BFBC0B0020940B002050050020DD
:103448001524080813B5084C00231A46194600939A
:103458002046FFF7BFF82046044A054902B0BDE8F8
:10346800104000F035B800BFC00B00205005002008
:103478005925080870B5114E114D124C00213046DF
:10348800FFF790FB3046104E2A46214600F020F800
:1034980001213046FFF786FB30460C4E2A4621466E
:1034A80000F016F802213046FFF77CFB2A46214639
:1034B8003046BDE8704000F00BB800BFC80B0020D4
:1034C800500500209D2B0808D80B0020E80B002091
:1034D8000B460146184601F09FB808B5FEF7FCFAFE
:1034E800244B1A68D0075CBF01221A60224B1A6865
:1034F800D1075CBF01221A60204B1A68D2075CBF53
:1035080001221A601E4B1A68D0075CBF01221A609C
:103518001C4B1A68D1075CBF01221A601A4B1A6843
:10352800D2075CBF01221A60184B1A68D0075CBF2B
:1035380001221A60164B1A68D1075CBF01221A6073
:10354800144B1A68D2075CBF01221A60124B1A6822
:10355800D0075CBF01221A60104B1A68D1075CBF04
:1035680001221A600E4B1A68D2075CBF01221A604A
:10357800704700BF240C0020200C00201C0C0020E9
:10358800180C0020140C0020100C00200C0C00203B
:10359800080C0020040C0020000C0020FC0B00206C
:1035A800F80B0020184B1A68D1075CBF01221A607B
:1035B800164B1A68D2075CBF01221A60144B1A68AE
:1035C800D0075CBF01221A60124B1A68D1075CBF92
:1035D80001221A60104B1A68D2075CBF01221A60D8
:1035E8000E4B1A68D0075CBF01221A600C4B1A6890
:1035F800D1075CBF01221A600A4B1A68D2075CBF68
:1036080001221A60704700BF440C0020400C0020C3
:103618003C0C0020380C0020340C0020300C00201A
:103628002C0C0020280C0020184B1A68D1075CBF0E
:1036380001221A60164B1A68D2075CBF01221A6071
:10364800144B1A68D0075CBF01221A60124B1A6823
:10365800D1075CBF01221A60104B1A68D2075CBF01
:1036680001221A600E4B1A68D0075CBF01221A604B
:103678000C4B1A68D1075CBF01221A600A4B1A6802
:10368800D2075CBF01221A60704700BF640C00209B
:10369800600C00205C0C0020580C0020540C00200A
:1036A800500C00204C0C0020480C0020244B1A68B9
:1036B800D0075CBF01221A60224B1A68D1075CBF91
:1036C80001221A60204B1A68D2075CBF01221A60D7
:1036D8001E4B1A68D0075CBF01221A601C4B1A687F
:1036E800D1075CBF01221A601A4B1A68D2075CBF67
:1036F80001221A60184B1A68D0075CBF01221A60B1
:10370800164B1A68D1075CBF01221A60144B1A685D
:10371800D2075CBF01221A60124B1A68D0075CBF3F
:1037280001221A60104B1A68D1075CBF01221A6087
:103738000E4B1A68D2075CBF01221A60704700BF9F
:10374800940C0020900C00208C0C0020880C002089
:10375800840C0020800C00207C0C0020780C0020B9
:10376800740C0020700C00206C0C0020680C0020E9
:1037780081F0004102E000BF83F0004330B54FEA1A
:1037880041044FEA430594EA050F08BF90EA020F87
:103798001FBF54EA000C55EA020C7FEA645C7FEA1A
:1037A800655C00F0E2804FEA5454D4EB5555B8BF3D
:1037B8006D420CDD2C4480EA020281EA030382EAAE
:1037C800000083EA010180EA020281EA0303362D40
:1037D80088BF30BD11F0004F4FEA01314FF4801C13
:1037E8004CEA113102D0404261EB410113F0004F25
:1037F8004FEA03334CEA133302D0524263EB4303DC
:1038080094EA050F00F0A780A4F10104D5F1200E79
:103818000DDB02FA0EFC22FA05F2801841F10001D4
:1038280003FA0EF2801843FA05F359410EE0A5F1A8
:1038380020050EF1200E012A03FA0EFC28BF4CF0D9
:10384800020C43FA05F3C01851EBE37101F000458F
:1038580007D54FF0000EDCF1000C7EEB00006EEB9C
:103868000101B1F5801F1BD3B1F5001F0CD3490826
:103878005FEA30004FEA3C0C04F101044FEA44527D
:1038880012F5800F80F09A80BCF1004F08BF5FEA04
:10389800500C50F1000041EB045141EA050130BDE4
:1038A8005FEA4C0C404141EB010111F4801FA4F187
:1038B8000104E9D191F0000F04BF01460020B1FADC
:1038C80081F308BF2033A3F10B03B3F120020CDA14
:1038D8000C3208DD02F1140CC2F10C0201FA0CF0F2
:1038E80021FA02F10CE002F11402D8BFC2F1200C57
:1038F80001FA02F120FA0CFCDCBF41EA0C0190400D
:10390800E41AA2BF01EB0451294330BD6FEA040455
:103918001F3C1CDA0C340EDC04F11404C4F1200240
:1039280020FA04F001FA02F340EA030021FA04F352
:1039380045EA030130BDC4F10C04C4F1200220FAA9
:1039480002F001FA04F340EA0300294630BD21FAE7
:1039580004F0294630BD94F0000F83F4801306BFAD
:1039680081F480110134013D4EE77FEA645C18BFA1
:103978007FEA655C29D094EA050F08BF90EA020F38
:1039880005D054EA000C04BF1946104630BD91EA30
:10399800030F1EBF0021002030BD5FEA545C05D133
:1039A8004000494128BF41F0004130BD14F5800472
:1039B8003CBF01F5801130BD01F0004545F0FE41E6
:1039C80041F470014FF0000030BD7FEA645C1ABF1B
:1039D800194610467FEA655C1CBF0B46024650EA52
:1039E800013406BF52EA033591EA030F41F400217E
:1039F80030BD00BF90F0000F04BF0021704730B504
:103A08004FF4806404F132044FF000054FF00001D8
:103A180050E700BF90F0000F04BF0021704730B599
:103A28004FF4806404F1320410F0004548BF40426E
:103A38004FF000013EE700BF42004FEAE2014FEAC3
:103A480031014FEA02701FBF12F07F4393F07F4F9E
:103A580081F06051704792F0000F14BF93F07F4FD0
:103A6800704730B54FF4607401F0004521F0004113
:103A780020E700BF50EA010208BF704730B54FF099
:103A880000050AE050EA010208BF704730B511F09E
:103A9800004502D5404261EB41014FF4806404F1D6
:103AA80032045FEA915C3FF4DCAE4FF003025FEA58
:103AB800DC0C18BF03325FEADC0C18BF033202EBE0
:103AC800DC02C2F1200300FA03FC20FA02F001FA3A
:103AD80003FE40EA0E0021FA02F11444C1E600BFD9
:103AE80070B54FF0FF0C4CF4E06C1CEA11541DBF8C
:103AF8001CEA135594EA0C0F95EA0C0F00F0DEF857
:103B08002C4481EA030621EA4C5123EA4C5350EA3B
:103B1800013518BF52EA033541F4801143F480138C
:103B280038D0A0FB02CE4FF00005E1FB02E506F01D
:103B38000042E0FB03E54FF00006E1FB03569CF072
:103B4800000F18BF4EF0010EA4F1FF04B6F5007F78
:103B580064F5407404D25FEA4E0E6D4146EB0606EA
:103B680042EAC62141EA55514FEAC52040EA5E5073
:103B78004FEACE2EB4F1FD0C88BFBCF5E06F1ED81D
:103B8800BEF1004F08BF5FEA500E50F1000041EB54
:103B9800045170BD06F0004646EA010140EA020001
:103BA80081EA0301B4EB5C04C2BFD4EB0C0541EA23
:103BB800045170BD41F480114FF0000E013C00F338
:103BC800AB8014F1360FDEBF002001F0004170BD5C
:103BD800C4F10004203C35DA0C341BDC04F1140475
:103BE800C4F1200500FA05F320FA04F001FA05F201
:103BF80040EA020001F0004221F0004110EBD370CE
:103C080021FA04F642EB06015EEA430E08BF20EAF9
:103C1800D37070BDC4F10C04C4F1200500FA04F39C
:103C280020FA05F001FA04F240EA020001F000412E
:103C380010EBD37041F100015EEA430E08BF20EAA1
:103C4800D37070BDC4F1200500FA05F24EEA020EE9
:103C580020FA04F301FA05F243EA020321FA04F018
:103C680001F0004121FA04F220EA020000EBD370CF
:103C78005EEA430E08BF20EAD37070BD94F0000FCF
:103C88000FD101F00046400041EB010111F4801F03
:103C980008BF013CF7D041EA060195F0000F18BFB4
:103CA800704703F00046520043EB030313F4801FF0
:103CB80008BF013DF7D043EA0603704794EA0C0FAA
:103CC8000CEA135518BF95EA0C0F0CD050EA4106C0
:103CD80018BF52EA4306D1D181EA030101F000413D
:103CE8004FF0000070BD50EA410606BF1046194665
:103CF80052EA430619D094EA0C0F02D150EA013671
:103D080013D195EA0C0F05D152EA03361CBF1046B1
:103D180019460AD181EA030101F0004141F0FE4150
:103D280041F470014FF0000070BD41F0FE4141F4D4
:103D3800780170BD70B54FF0FF0C4CF4E06C1CEAD4
:103D480011541DBF1CEA135594EA0C0F95EA0C0F89
:103D580000F0A7F8A4EB050481EA030E52EA033544
:103D68004FEA013100F088804FEA03334FF0805565
:103D780045EA131343EA12634FEA022245EA111592
:103D880045EA10654FEA00260EF000419D4208BF43
:103D9800964244F1FD0404F5407402D25B084FEAF0
:103DA8003202B61A65EB03055B084FEA32024FF49C
:103DB80080104FF4002CB6EB020E75EB030E22BFF9
:103DC800B61A754640EA0C005B084FEA3202B6EBB9
:103DD800020E75EB030E22BFB61A754640EA5C0068
:103DE8005B084FEA3202B6EB020E75EB030E22BFF8
:103DF800B61A754640EA9C005B084FEA3202B6EBF9
:103E0800020E75EB030E22BFB61A754640EADC00B7
:103E180055EA060E18D04FEA051545EA16754FEA19
:103E280006164FEAC30343EA52734FEAC2025FEA37
:103E38001C1CC0D111F4801F0BD141EA00014FF0C6
:103E480000004FF0004CB6E711F4801F04BF014397
:103E58000020B4F1FD0C88BFBCF5E06F3FF6AFAEB3
:103E6800B5EB030C04BFB6EB020C5FEA500C50F143
:103E7800000041EB045170BD0EF0004E4EEA1131C6
:103E880014EB5C04C2BFD4EB0C0541EA045170BDCD
:103E980041F480114FF0000E013C90E645EA060E11
:103EA8008DE60CEA135594EA0C0F08BF95EA0C0F3F
:103EB8003FF43BAF94EA0C0F0AD150EA01347FF487
:103EC80034AF95EA0C0F7FF425AF104619462CE75E
:103ED80095EA0C0F06D152EA03353FF4FDAE1046C1
:103EE800194622E750EA410618BF52EA43067FF412
:103EF800C5AE50EA41047FF40DAF52EA43057FF4A2
:103F0800EBAE12E74FEA4102B2F1E04324BFB3F54A
:103F1800001CDCF1FE5C0DD901F0004C4FEAC00238
:103F28004CEA5070B2F1004F40EB830008BF20F01C
:103F38000100704711F0804F21D113F13872BCBFD6
:103F480001F00040704741F480114FEA5252C2F12B
:103F58001802C2F1200C10FA0CF320FA02F018BF74
:103F680040F001004FEAC1234FEAD32303FA0CFCC7
:103F780040EA0C0023FA02F34FEA4303CCE77FEA56
:103F8800625307D150EA01331EBF4FF0FE4040F4A0
:103F98004000704701F0004040F0FE4040F400004F
:103FA800704700BF80F0004002E000BF81F0004190
:103FB80042001FBF5FEA410392EA030F7FEA226CC7
:103FC8007FEA236C6AD04FEA1262D2EB1363C1BF57
:103FD800D218414048404140B8BF5B42192B88BFC6
:103FE800704710F0004F40F4000020F07F4018BFE9
:103FF800404211F0004F41F4000121F07F4118BF09
:10400800494292EA030F3FD0A2F1010241FA03FCB0
:1040180010EB0C00C3F1200301FA03F100F0004398
:1040280002D5494260EB4000B0F5000F13D3B0F160
:10403800807F06D340084FEA310102F10102FE2ACF
:1040480051D2B1F1004F40EBC25008BF20F001003F
:1040580040EA03007047490040EB000010F4000FED
:10406800A2F10102EDD1B0FA80FCACF1080CB2EB80
:104078000C0200FA0CF0AABF00EBC25052421843DF
:10408800BCBFD0401843704792F0000F81F4000184
:1040980006BF80F400000132013BB5E74FEA410357
:1040A8007FEA226C18BF7FEA236C21D092EA030FC3
:1040B80004D092F0000F08BF0846704790EA010F3D
:1040C8001CBF0020704712F07F4F04D1400028BF6A
:1040D80040F00040704712F100723CBF00F500004C
:1040E800704700F0004343F0FE4040F40000704782
:1040F8007FEA226216BF08467FEA2363014642022E
:1041080006BF5FEA412390EA010F40F48000704740
:104118004FF0000304E000BF10F0004348BF4042E6
:104128005FEA000C08BF704743F0964301464FF022
:1041380000001CE050EA010208BF70474FF000037E
:104148000AE000BF50EA010208BF704711F00043BF
:1041580002D5404261EB41015FEA010C02BF84468F
:104168000146002043F0B64308BFA3F18053A3F5EE
:104178000003BCFA8CF2083AA3EBC25310DB01FA35
:1041880002FC634400FA02FCC2F12002BCF1004FB9
:1041980020FA02F243EB020008BF20F0010070474A
:1041A80002F1200201FA02FCC2F1200250EA4C009E
:1041B80021FA02F243EB020008BF20EADC707047E4
:1041C8004FF0FF0C1CEAD0521EBF1CEAD15392EAF2
:1041D8000C0F93EA0C0F6FD01A4480EA010C4002CE
:1041E80018BF5FEA41211ED04FF0006343EA501028
:1041F80043EA5111A0FB01310CF00040B1F5000F6A
:104208003EBF490041EAD3715B0040EA010062F118
:104218007F02FD2A1DD8B3F1004F40EBC25008BF02
:1042280020F00100704790F0000F0CF0004C08BF20
:1042380049024CEA502040EA51207F3AC2BFD2F1ED
:10424800FF0340EAC250704740F400004FF00003FB
:10425800013A5DDC12F1190FDCBF00F00040704735
:10426800C2F10002410021FA02F1C2F1200200FA73
:1042780002FC5FEA310040F1000053EA4C0308BF3A
:1042880020EADC70704792F0000F00F0004C02BF8B
:10429800400010F4000F013AF9D040EA0C0093F006
:1042A800000F01F0004C02BF490011F4000F013B60
:1042B800F9D041EA0C018FE70CEAD15392EA0C0FCE
:1042C80018BF93EA0C0F0AD030F0004C18BF31F039
:1042D800004CD8D180EA010000F00040704790F00F
:1042E800000F17BF90F0004F084691F0000F91F0B3
:1042F800004F14D092EA0C0F01D142020FD193EA79
:104308000C0F03D14B0218BF084608D180EA010000
:1043180000F0004040F0FE4040F40000704740F0DC
:10432800FE4040F4400070474FF0FF0C1CEAD052AA
:104338001EBF1CEAD15392EA0C0F93EA0C0F69D006
:10434800A2EB030280EA010C49024FEA402037D071
:104358004FF0805343EA111143EA10130CF0004068
:104368008B4238BF5B0042F17D024FF4000C8B4258
:1043780024BF5B1A40EA0C00B3EB510F24BFA3EB38
:10438800510340EA5C00B3EB910F24BFA3EB910308
:1043980040EA9C00B3EBD10F24BFA3EBD10340EA62
:1043A800DC001B0118BF5FEA1C1CE0D1FD2A3FF6A8
:1043B80050AF8B4240EBC25008BF20F0010070475D
:1043C8000CF0004C4CEA50207F32C2BFD2F1FF0300
:1043D80040EAC250704740F400004FF00003013A31
:1043E80037E792F0000F00F0004C02BF400010F4D5
:1043F800000F013AF9D040EA0C0093F0000F01F0E9
:10440800004C02BF490011F4000F013BF9D041EA0A
:104418000C0195E70CEAD15392EA0C0F08D142023D
:104428007FF47DAF93EA0C0F7FF470AF084676E710
:1044380093EA0C0F04D14B023FF44CAF08466EE7E9
:1044480030F0004C18BF31F0004CCAD130F00042B7
:104458007FF45CAF31F000437FF43CAF5FE700BF0F
:104468004FF0FF3C06E000BF4FF0010C02E000BF38
:104478004FF0010C4DF804CD4FEA40024FEA4103DA
:104488007FEA226C18BF7FEA236C11D001B052EA90
:10449800530C18BF90EA010F58BFB2EB030088BF56
:1044A800C81738BF6FEAE17018BF40F001007047C5
:1044B8007FEA226C02D15FEA402C05D17FEA236CA7
:1044C800E4D15FEA412CE1D05DF8040B704700BFEE
:1044D800844608466146FFE70FB5FFF7C9FF002885
:1044E80048BF10F1000F0FBD4DF808EDFFF7F4FFBE
:1044F8000CBF012000205DF808FB00BF4DF808ED57
:10450800FFF7EAFF34BF012000205DF808FB00BF79
:104518004DF808EDFFF7E0FF94BF012000205DF89B
:1045280008FB00BF4DF808EDFFF7D2FF94BF01204C
:1045380000205DF808FB00BF4DF808EDFFF7C8FF45
:1045480034BF012000205DF808FB00BF4FEA40029D
:10455800B2F1FE4F0FD34FF09E03B3EB12620DD9A9
:104568004FEA002343F0004310F0004F23FA02F013
:1045780018BF404270474FF00000704712F1610FBA
:1045880001D1420205D110F0004008BF6FF0004091
:1045980070474FF000007047094B70B51C6806461D
:1045A800256C3DB91A20FDF767FA1A2220642946BE
:1045B80000F043F9216C3046BDE8704000F002B8C5
:1045C8000005002010B50C46416986B001F26C71F7
:1045D800036982690491016803EB4303039141680D
:1045E80002EB4202029181680191C1682046009164
:1045F80004490B4404490A440449FDF755FA204686
:1046080006B010BD05580808F057080829580808CA
:104618000A22002100F026BA10B5054C13462CB129
:104628000A4601460220AFF3008010BD204610BDA7
:104638000000000038B5074B05461C68E36B1BB942
:104648002420FDF719FAE063E16B2846BDE83840FD
:1046580000F002B8000500202DE9F0410C46804624
:1046680000F006FD21460746404600F005FD466974
:10467800044606F26C76B30705D1642296FBF2F382
:1046880002FB13634BB94FF4C87596FBF5F305FBB2
:104698001365B5FA85F35B0900E001235F4A30250D
:1046A80005FB032500F018FB00F018FB5C4B1B68AA
:1046B800F3B17B689E4205D13968D8F80030FA69B1
:1046C80041B90AE0304600F05FFA0028F4D14FF013
:1046D800FF330DE0934208DB01E0934207DABA6B3F
:1046E8009342ACBF0023012302E0002300E0012332
:1046F8002362236A3C20012B0CBFF96B396A4FF403
:10470800616391FBF3F603FB161393FBF0F200FBD6
:10471800123061682368891AA2681B1A921B3B2B06
:1047280023606160A26003DD013161603C3B04E00D
:10473800002B03DA013961603C33236063683B2B4B
:1047480003DD0132A2603C3B04E0002B03DA013AAE
:10475800A2603C336360A368172B22DDE269183B33
:104768000132E261A269A3600132062AC8BF0022B1
:10477800A261E26823690132E26055F823108A4297
:1047880046DD01330C2B08BF6369A2EB0102E2602E
:1047980005BF013300222361226104BF6361E26126
:1047A80036E0002B34DAE2691833013AE261A26993
:1047B800A360013A48BF0622A261E268013AE260BA
:1047C80032BB2369013B01D423611DE00B23236124
:1047D80063695A1E12F0030F626103F26B7305D10D
:1047E800642193FBF1F201FB12324AB94FF4C8710C
:1047F80093FBF1F201FB1233B3FA83F35B0900E098
:10480800012303F5B673E361236955F82330E360A8
:1048180000F063FA2046BDE8F08100BFAC590808F3
:10482800B40C002010B5431E0A44914204D011F87C
:10483800014B03F8014FF8E710BD034602449342C9
:1048480002D003F8011BFAE77047000038B5124B95
:1048580005461C68A36BD3B91820FDF70DF943F280
:104868000E33A06303804AF6CD33438041F23423EC
:1048780083804EF26D63C3804DF6EC63038105239C
:1048880043810B23838101220023C0E90423A36B06
:1048980000221D615A6138BD0005002010F8012B67
:1048A80011F8013B012A28BF9A42F7D0D01A704765
:1048B800034611F8012B03F8012B002AF9D17047A0
:1048C800024B0146186800F003B800BF000500203D
:1048D80070B5064608460C4600F00DF8451C2946FA
:1048E8003046FDF701F9064618B12A462146FFF77A
:1048F80099FF304670BD034613F8012B002AFBD1FF
:10490800181A0138704730B582B1451E013915F8BB
:10491800013F11F8014FA34206D1EC431444E04291
:1049280001D0002BF3D11C46181B30BD104630BDFA
:10493800034610B542B111F8014B013A03F8014B97
:10494800002CF7D11A4400E010BD934202D003F8BE
:10495800014BFAE710BD00002DE9F0470F468046ED
:104968003F48D0F800903D4615F8014B09EB04008C
:10497800407800F0080000F0FF0608B12F46F2E783
:104988002D2C03D1BD1C7C78012603E02B2C04BF01
:104998007C78BD1C13B1102B0AD15BE0302C57D1A9
:1049A800287800F0DF0058284DD16C7810230235A4
:1049B800002E14BF4FF0004C6FF0004CBCFBF3FA14
:1049C8000027384603FB1ACC09EB040E9EF801E0D9
:1049D8001EF0040F01D0303C0BE01EF0030E1BD07C
:1049E800BEF1010F0CBF4FF0370E4FF0570ECEEB54
:1049F8000404A34210DDB7F1FF3F0AD0504506D8A2
:104A080001D1644503DC03FB0040012701E04FF0BE
:104A1800FF3715F8014BD7E77B1C0CD1002E4FF060
:104A2800220314BF4FF000406FF00040C8F8003078
:104A38002AB9BDE8F08706B1404272B107B1691ED4
:104A48001160BDE8F0873024002BB1D10823AFE70F
:104A58000A23ADE7302CA3D0AAE7BDE8F08700BF52
:104A68009C04002013460A46014602480068FFF7E6
:104A780073BF00BF000500202DE9F0470E468046B1
:104A88003B48D0F80090354615F8014B09EB040077
:104A9800407800F0080000F0FF0708B12E46F2E762
:104AA8002D2C03D1B51C7478012703E02B2C04BFEF
:104AB8007478B51C13B1102B0AD153E0302C4FD1A8
:104AC800287800F0DF00582845D16C78102302358B
:104AD8004FF0FF3CBCFBF3FC03FB0CFA00266FEA2B
:104AE8000A0A304609EB040E9EF801E01EF0040F96
:104AF80001D0303C0BE01EF0030E1AD0BEF1010FBE
:104B08000CBF4FF0370E4FF0570ECEEB0404A34204
:104B18000FDD002E08DB604506D801D1544503DCC3
:104B280003FB0040012601E04FF0FF3615F8014B6A
:104B3800D8E7002E07DA2223C8F800304FF0FF30FC
:104B48002AB9BDE8F08707B1404272B106B1691EC3
:104B58001160BDE8F0873024002BB9D10823B7E7EE
:104B68000A23B5E7302CABD0B2E7BDE8F08700BF29
:104B78009C04002013460A46014602480068FFF7D5
:104B88007BBF00BF000500202DE9F74F044600F069
:104B98006FFA40F2B1739C4240F3968040F26D1573
:104BA8006FF4F663E318A4F2B2729B1005FB0235AA
:104BB800A4F26D726FF0630392FBF3F36FF4C862B3
:104BC8002B44A5184FF4C87294FBF2F795FBF2F545
:104BD80002FB17471D44642394FBF3F6B7FA87FEDC
:104BE800014603FB164600F13803019304F0030362
:104BF80044604FEA5E1E00934FF0070C0B7A4A2B75
:104C08000ED14B69009AEC1802B906B927B93B2BAB
:104C1800D4BF0023012300E000232344013B3FE0ED
:104C2800442B02D14B692B443AE0009B2BB9002E50
:104C38000CBFF0464FF0010800E0F046A946244BAF
:104C4800302202FB0838CC68A8F1040A0123A342E9
:104C580004DA5AF804BF0133D944F8E709F1040328
:104C680093FBFCFBCBEBCB0ACAEB030A4B69012C89
:104C7800B8BF0124B3EB0A0A0B6904F1804403F1BD
:104C8800FF3304F1FF3448BF0AF1070AC3EBC3033B
:104C980058F824405344A34201DB073BFBE74B444D
:104CA8008C690C4A02FB03430C6A234441F81C3FFD
:104CB800019B9942A2D1C369826B9342ACBF002386
:104CC80001230360012000E0002003B0BDE8F08F5D
:104CD800AC5908088051010070477047014B1868AB
:104CE80000F002B8000500202DE9F04F8DB007460E
:104CF80000F0BEF9B0490446384600F0B1F9AF4EAD
:104D0800054660B9AE4BAF4A1860AF4B1860AF4B61
:104D180030681A605A60FCF7B7FE356048E13168C0
:104D280079B93068FCF7B0FE2846FFF7E4FD411C6E
:104D38003846FCF7D9FE306048B12946FFF7B8FD80
:104D480005E0FFF7ABFD002800F03281E9E72B789A
:104D58000AAE3A2B08BF013533469D4A9D4928467D
:104D6800FCF7AAFE002840F323810A9BEF18EB5CAE
:104D78002D2B03D101374FF0FF3503E02B2B08BF54
:104D8800013701250DF1200A0DF11E0B4FF0000827
:104D98000396CDF808A00196CDF800B0334607AACF
:104DA8008D493846ADF81E80ADF82080FCF784FEAA
:104DB800404540F3FD80BDF81E20BDF820303C2161
:104DC80001FB0233BDF81C204FF4616101FB023383
:104DD8005D437F4B25627D4DDFF808922B600A9B6F
:104DE8004A461F447B4933463846FCF765FE404532
:104DF80008DC2B68226A6B60714B1A60724BC3F82F
:104E08000080D5E00A9BC5F80490FD18FB5C2D2BAB
:104E180003D101354FF0FF3703E02B2B08BF0135D5
:104E280001270023ADF81C30ADF81E30ADF8203056
:104E38000A930396CDF808A00196CDF800B0334642
:104E480007AA65492846FCF737FE002804DC236AD0
:104E5800A3F56163E3630EE0BDF81E20BDF82030C2
:104E68003C2101FB0233BDF81C204FF4616101FBBA
:104E780002335F43E76327460A9B4FF000091D444E
:104E88002B782C2B08BF013595F80080B8F14D0F11
:104E980026D10DF12603029309AB009303960196E0
:104EA80033460DF122024D492846FCF705FE03283A
:104EB8007ED1BDF822104B1E0B2B79D8BDF82420CB
:104EC800531E042B74D8BDF82630062B70D887F8EB
:104ED8000880F9603A617B610A9B05EB03082AE0C8
:104EE800B8F14A0F06BF4346013544230A220BA9ED
:104EF80028460593FFF73EFEDDF82C80ADF8260026
:104F08004545059B14D14D23B9F1000F07D12372F4
:104F18000323E36002232361C4F814900BE084F8B0
:104F280024300B23A3620123E3620023236302E0FE
:104F380080B23B7278610223ADF81C300023ADF8D3
:104F48001E30ADF820300A9398F800302F2B0BD183
:104F58000396CDF808A00196CDF800B0334607AA0D
:104F68001F494046FCF7A8FDBDF81E20BDF82030BB
:104F78003C2101FB0233BDF81C204FF4616101FBA9
:104F88000233BB610A9D09F10109B9F1020F4544D9
:104F980007F11C077FF474AF6068FFF7F5FD226A1C
:104FA800074B1A60E36B9B1A074A18BF012313606B
:104FB8000DB0BDE8F08F00BF0C5A0808B00C0020F7
:104FC800B80C00200F5A0808B40C00200405002073
:104FD800A30C0020135A0808365A0808225A080851
:104FE800355A0808980C00202DE9F84F07468B46DB
:104FF800904600F0D7F8194B1D689A463DB15C46BB
:10500800234613F8012B42B13D2A1C46F8D13846F5
:1050180000F0C9F80020BDE8F88FCBEB0404A946DE
:1050280059F8040B0028F2D022465946FFF76BFCCA
:1050380088B959F8043C1E191B5D3D2B0BD1DAF8D1
:1050480000303846ED1AAD10C8F8005000F0ABF843
:10505800701CBDE8F88F4D46E1E700BF4C05002005
:1050680007B501AAFFF7C0FF03B05DF804FB000015
:10507800004870470C0500200268464BF0B592FBCB
:10508800F3F403FB1422002ABCBF02F5A83202F590
:10509800C0724FF4616092FBF0F300FB13224FF0F3
:1050A8003C008B6092FBF0F300FB132204F52F24E5
:1050B800ACBF04F66C2404F66B244B600A6007232B
:1050C800E21C92FBF3F3344DC3EBC30394FBF5F5F9
:1050D800D31A48F6AC6240F2B4578B612F4B304874
:1050E80003FB0544B4FBF2F2B4FBF7F3B4FBF0F0B6
:1050F8002244D21A48F69466131A40F26D12B3FB92
:10510800F6F6B3FBF2F0B3FBF7F33444E31A02FB11
:10511800103303EB830299240232B2FBF4F25443B6
:10512800A61C0524B6FBF4F40A2A34BF02266FF045
:10513800090616444FF4C87202FB05055F1C012ED0
:1051480098BF0135B3F5997FA7EB040702D3A3F500
:10515800997214E0820705D16424B0FBF4F204FBD1
:1051680012024AB94FF4C872B0FBF2F402FB140001
:10517800B0FA80F2520900E001223B331A44A5F24A
:105188006C750023CA614D610E61CF600B620846E1
:10519800F0BD00BF80510100B13A02004FC5FDFFCC
:1051A800B03A0200704770471D0008085D00080803
:1051B800890008088D000808000000005374617217
:1051C800747570205375636365737366756C00003E
:1051D80000000000000000000000000000000000C7
:1051E80000000000000000000000000000000000B7
:1051F800000000000000000000000000257320539C
:105208003A25322E306625252C20513A25322E306B
:10521800662525200025342E316620430025342EAE
:1052280031662025250025342E3166206D532F6DDB
:105238000025692025250041542B4346554E3D3114
:10524800360D0A007B2254656D7065726174757243
:1052580065223A25342E31662C202248756D696402
:10526800697479223A25342E31662C2022536F69CD
:105278006C636F6E647563746976697479223A2514
:10528800342E31662C2022536F696C74656D702240
:105298003A25342E31662C2022536F696C6D6F6964
:1052A8007374757265223A25342E31662C20224299
:1052B800617474657279223A25692C2022526573CB
:1052C800657473223A25692C2022416C65727473C7
:1052D800223A25697D0043656C6C756C61725F5379
:1052E8006F696C5F486F6F6B004E6F20446174612B
:1052F80000556269646F747320486F6F6B00526564
:1053080073706F6E736520526563656976656400B6
:1053180053746174650053657420536F6C61722017
:10532800506F7765726564204D6F64650030004387
:105338006C656172656420536F6C617220506F7781
:1053480065726564204D6F64650053657420566509
:1053580072626F7365204D6F646500436C6561729E
:10536800656420566572626F7365204D6F646500D1
:1053780054696D65207A6F6E65206F666673657413
:105388002025690054696D65004C6F7720506F7750
:105398006572004E6F726D616C204F70657261743A
:1053A800696F6E730046726F6D20257320746F20CD
:1053B8002573005374617465205472616E73697447
:1053C800696F6E004572726F722074616B696E67E7
:1053D800204D6561737572656D656E7473007370C9
:1053E80061726B2F6465766963652F736573736982
:1053F8006F6E2F656E6400476F696E6720746F204B
:10540800536C656570004C6F7720426174746572E7
:1054180079202D20536C656570696E67004572723E
:105428006F72205374617465202D20526573657402
:10543800004572726F72205374617465202D20507C
:105448006F776572204379636C65004572726F727D
:10545800205374617465202D2046756C6C204D6F47
:1054680064656D205265736574005369676E616C7D
:10547800005265736574436F756E740052656C6590
:105488006173650073746174654F66436867006C87
:105498006F77506F7765724D6F64650074656D70D6
:1054A800657261747572650068756D69646974798F
:1054B80000436F6E64756374697669747900536F1D
:1054C800696C54656D7000566F6C756D65747269A2
:1054D8006348324F004D6561737572652D4E6F7765
:1054E800004C6F77506F7765724D6F646500536F2E
:1054F8006C61722D4D6F646500566572626F7365DD
:105508002D4D6F64650053657454696D655A6F6EEF
:10551800650053656E736F72206661696C656420FF
:10552800746F20696E697469616C697A6500466197
:10553800696C656420746F20636F6E6E65637400B8
:105548005374617274757000556E6B6E6F776E0070
:105558004E6F6E6500576946690047534D00554DBB
:1055680054530043444D41004C544500494545457A
:1055780038303231353400312E303600000000002A
:1055880000000000CF1B0808C51B0808BB1B080843
:105598002D1B0808AF1B0808A31B0808971B080841
:1055A8008F1B0808851B08087B1B0808371B080881
:1055B80000000000000000008D1C08080F1D0808EE
:1055C8008F1C08084D1D0808951C08081D1D080893
:1055D800B91C0808DD1C0808FCFFFFFF00000000DC
:1055E800071D08080000000000000000951D0808BD
:1055F8009B1D0808C31D0808A71D0808971D080853
:105608000000000000000000152408085F240808B6
:1056180037240808172408083F24080847240808DE
:105628004F24080857240808000000000000000064
:1056380067250808592508085B25080866006C6E68
:1056480000666E00636F64650064657461696C0070
:10565800253031307520005D20002564002C2000A5
:1056680028293A2000205B00636F6465203D2000F4
:1056780064657461696C73203D2000626175640023
:1056880053657269616C0055534253657269616C68
:1056980031007479706500706172616D00636D64CA
:1056A80000696400686E64007374726D0066696CEA
:1056B80074006C766C0061646448616E646C657239
:1056C8000072656D6F766548616E646C6572006521
:1056D8006E756D48616E646C657273004A534F4E07
:1056E80053747265616D4C6F6748616E646C657266
:1056F80000617070006E6F6E6500747261636500A2
:10570800696E666F007761726E006572726F720003
:1057180070616E696300616C6C000000000000003D
:1057280000000000052608080F26080819260808A2
:10573800232608082D2608083926080845260808BB
:105748005126080859260808632608086D260808FF
:1057580000000000000000009D2B08089F2B08088F
:10576800252B3033643A253032750025592D256DA7
:105778002D25645425483A254D3A2553257A00614C
:10578800736374696D65000000000000000000008C
:105798000D2F0808312F08083D2F0808552A08083A
:1057A800192F0808252F08081F2F08082B2F08086D
:1057B8000F2F0808132F0808000000000000000041
:1057C800E52F08082930080803300808552A080872
:1057D800FD2F0808E72F0808EF2F080823300808CE
:1057E800F72F0808E12F080853756E4D6F6E547532
:1057F800655765645468754672695361744A616E89
:105808004665624D61724170724D61794A756E4AA2
:10581800756C4175675365704F63744E6F76446558
:1058280063252E337320252E337325336420252ECC
:1058380032643A252E32643A252E32642025640AD1
:105848000000202020202020202020282828282868
:105858002020202020202020202020202020202040
:105868002020881010101010101010101010101098
:105878001010040404040404040404041010101098
:105888001010104141414141410101010101010153
:1058980001010101010101010101010101101010C3
:1058A8001010104242424242420202020202020226
:1058B8000202020202020202020202020210101096
:1058C80010200000000000000000000000000000A0
:1058D80000000000000000000000000000000000C0
:1058E80000000000000000000000000000000000B0
:1058F80000000000000000000000000000000000A0
:10590800000000000000000000000000000000008F
:10591800000000000000000000000000000000007F
:10592800000000000000000000000000000000006F
:10593800000000000000000000000000000000005F
:10594800000000000000000000000000000000004F
:10595800000000000000000000000000000000003F
:10596800000000000000000000000000000000002F
:10597800000000000000000000000000000000001F
:10598800000000000000000000000000000000000F
:1059980000000000000000000000000000000000FF
:1059A800000000001F0000001C0000001F00000095
:1059B8001E0000001F0000001E0000001F00000065
:1059C8001F0000001E0000001F0000001E00000055
:1059D8001F0000001F0000001D0000001F00000045
:1059E8001E0000001F0000001E0000001F00000035
:1059F8001F0000001E0000001F0000001E00000025
:105A08001F000000545A00474D54002531305B5E9A
:105A1800302D392C2B2D5D256E004D256875256E92
:105A28002E256875256E2E256875256E002F25682C
:105A380075256E3A256875256E3A256875256E00B8
:105A480099100808E9130808351508084D1C0808B6
:105A5800F5250808B9260808812B0808592D0808D3
:105A6800F92E08084D3408087D340808E934080878
:105A7800AD35080831360808B536080800000000BA
:085A8800000000000000000016
:045A90000000000012
:105A9400496E697469616C697A6500000000457239
:105AA400726F7200000000000000000049646C6521
:105AB400000000000000000000004D656173757275
:105AC400696E6700000000005265706F7274696E41
